{
  "contractName": "BetTracker",
  "abi": [
    {
      "inputs": [],
      "stateMutability": "nonpayable",
      "type": "constructor"
    },
    {
      "anonymous": false,
      "inputs": [
        {
          "indexed": true,
          "internalType": "uint256",
          "name": "round",
          "type": "uint256"
        },
        {
          "indexed": true,
          "internalType": "uint256",
          "name": "winners",
          "type": "uint256"
        },
        {
          "indexed": true,
          "internalType": "uint256",
          "name": "rejectors",
          "type": "uint256"
        }
      ],
      "name": "Finished",
      "type": "event"
    },
    {
      "anonymous": false,
      "inputs": [
        {
          "indexed": true,
          "internalType": "address",
          "name": "previousOwner",
          "type": "address"
        },
        {
          "indexed": true,
          "internalType": "address",
          "name": "newOwner",
          "type": "address"
        }
      ],
      "name": "OwnershipTransferred",
      "type": "event"
    },
    {
      "anonymous": false,
      "inputs": [
        {
          "indexed": true,
          "internalType": "uint256",
          "name": "round",
          "type": "uint256"
        },
        {
          "indexed": true,
          "internalType": "uint256",
          "name": "betsLimit",
          "type": "uint256"
        }
      ],
      "name": "Started",
      "type": "event"
    },
    {
      "anonymous": false,
      "inputs": [
        {
          "indexed": true,
          "internalType": "uint256",
          "name": "round",
          "type": "uint256"
        }
      ],
      "name": "Stopped",
      "type": "event"
    },
    {
      "inputs": [],
      "name": "SPADEQ",
      "outputs": [
        {
          "internalType": "uint256",
          "name": "",
          "type": "uint256"
        }
      ],
      "stateMutability": "view",
      "type": "function",
      "constant": true
    },
    {
      "inputs": [],
      "name": "betAmount",
      "outputs": [
        {
          "internalType": "uint256",
          "name": "",
          "type": "uint256"
        }
      ],
      "stateMutability": "view",
      "type": "function",
      "constant": true
    },
    {
      "inputs": [],
      "name": "burnPercentage",
      "outputs": [
        {
          "internalType": "uint256",
          "name": "",
          "type": "uint256"
        }
      ],
      "stateMutability": "view",
      "type": "function",
      "constant": true
    },
    {
      "inputs": [],
      "name": "deadAddress",
      "outputs": [
        {
          "internalType": "address",
          "name": "",
          "type": "address"
        }
      ],
      "stateMutability": "view",
      "type": "function",
      "constant": true
    },
    {
      "inputs": [],
      "name": "decimalsOfToken",
      "outputs": [
        {
          "internalType": "uint8",
          "name": "",
          "type": "uint8"
        }
      ],
      "stateMutability": "view",
      "type": "function",
      "constant": true
    },
    {
      "inputs": [],
      "name": "developerBonusPercentage",
      "outputs": [
        {
          "internalType": "uint256",
          "name": "",
          "type": "uint256"
        }
      ],
      "stateMutability": "view",
      "type": "function",
      "constant": true
    },
    {
      "inputs": [],
      "name": "isStarted",
      "outputs": [
        {
          "internalType": "bool",
          "name": "",
          "type": "bool"
        }
      ],
      "stateMutability": "view",
      "type": "function",
      "constant": true
    },
    {
      "inputs": [],
      "name": "maxBets",
      "outputs": [
        {
          "internalType": "uint256",
          "name": "",
          "type": "uint256"
        }
      ],
      "stateMutability": "view",
      "type": "function",
      "constant": true
    },
    {
      "inputs": [],
      "name": "owner",
      "outputs": [
        {
          "internalType": "address",
          "name": "",
          "type": "address"
        }
      ],
      "stateMutability": "view",
      "type": "function",
      "constant": true
    },
    {
      "inputs": [
        {
          "internalType": "uint256",
          "name": "",
          "type": "uint256"
        }
      ],
      "name": "rHistory",
      "outputs": [
        {
          "internalType": "uint256",
          "name": "",
          "type": "uint256"
        }
      ],
      "stateMutability": "view",
      "type": "function",
      "constant": true
    },
    {
      "inputs": [
        {
          "internalType": "bytes32",
          "name": "requestId",
          "type": "bytes32"
        },
        {
          "internalType": "uint256",
          "name": "randomness",
          "type": "uint256"
        }
      ],
      "name": "rawFulfillRandomness",
      "outputs": [],
      "stateMutability": "nonpayable",
      "type": "function"
    },
    {
      "inputs": [],
      "name": "rejectAmount",
      "outputs": [
        {
          "internalType": "uint256",
          "name": "",
          "type": "uint256"
        }
      ],
      "stateMutability": "view",
      "type": "function",
      "constant": true
    },
    {
      "inputs": [],
      "name": "renounceOwnership",
      "outputs": [],
      "stateMutability": "nonpayable",
      "type": "function"
    },
    {
      "inputs": [],
      "name": "roundNo",
      "outputs": [
        {
          "internalType": "uint256",
          "name": "",
          "type": "uint256"
        }
      ],
      "stateMutability": "view",
      "type": "function",
      "constant": true
    },
    {
      "inputs": [],
      "name": "token",
      "outputs": [
        {
          "internalType": "contract IERC20",
          "name": "",
          "type": "address"
        }
      ],
      "stateMutability": "view",
      "type": "function",
      "constant": true
    },
    {
      "inputs": [],
      "name": "totalBets",
      "outputs": [
        {
          "internalType": "uint256",
          "name": "",
          "type": "uint256"
        }
      ],
      "stateMutability": "view",
      "type": "function",
      "constant": true
    },
    {
      "inputs": [],
      "name": "totalRejects",
      "outputs": [
        {
          "internalType": "uint256",
          "name": "",
          "type": "uint256"
        }
      ],
      "stateMutability": "view",
      "type": "function",
      "constant": true
    },
    {
      "inputs": [
        {
          "internalType": "address",
          "name": "newOwner",
          "type": "address"
        }
      ],
      "name": "transferOwnership",
      "outputs": [],
      "stateMutability": "nonpayable",
      "type": "function"
    },
    {
      "inputs": [
        {
          "internalType": "uint256",
          "name": "",
          "type": "uint256"
        }
      ],
      "name": "wHistory",
      "outputs": [
        {
          "internalType": "uint256",
          "name": "",
          "type": "uint256"
        }
      ],
      "stateMutability": "view",
      "type": "function",
      "constant": true
    },
    {
      "inputs": [
        {
          "internalType": "address",
          "name": "_token",
          "type": "address"
        },
        {
          "internalType": "uint8",
          "name": "_decimals",
          "type": "uint8"
        }
      ],
      "name": "setToken",
      "outputs": [],
      "stateMutability": "nonpayable",
      "type": "function"
    },
    {
      "inputs": [
        {
          "internalType": "uint256",
          "name": "_count",
          "type": "uint256"
        }
      ],
      "name": "setMaxBets",
      "outputs": [],
      "stateMutability": "nonpayable",
      "type": "function"
    },
    {
      "inputs": [
        {
          "internalType": "uint256",
          "name": "_amount",
          "type": "uint256"
        }
      ],
      "name": "setBetAmount",
      "outputs": [],
      "stateMutability": "nonpayable",
      "type": "function"
    },
    {
      "inputs": [
        {
          "internalType": "uint256",
          "name": "_amount",
          "type": "uint256"
        }
      ],
      "name": "setRejectAmount",
      "outputs": [],
      "stateMutability": "nonpayable",
      "type": "function"
    },
    {
      "inputs": [
        {
          "internalType": "uint256",
          "name": "_value",
          "type": "uint256"
        }
      ],
      "name": "setBurnPercentage",
      "outputs": [],
      "stateMutability": "nonpayable",
      "type": "function"
    },
    {
      "inputs": [
        {
          "internalType": "uint256",
          "name": "_value",
          "type": "uint256"
        }
      ],
      "name": "setDeveloperBonusPercentage",
      "outputs": [],
      "stateMutability": "nonpayable",
      "type": "function"
    },
    {
      "inputs": [
        {
          "internalType": "address",
          "name": "_developer",
          "type": "address"
        }
      ],
      "name": "setDeveloper",
      "outputs": [],
      "stateMutability": "nonpayable",
      "type": "function"
    },
    {
      "inputs": [],
      "name": "startBet",
      "outputs": [],
      "stateMutability": "nonpayable",
      "type": "function"
    },
    {
      "inputs": [],
      "name": "stopBet",
      "outputs": [],
      "stateMutability": "nonpayable",
      "type": "function"
    },
    {
      "inputs": [],
      "name": "lastCard",
      "outputs": [
        {
          "internalType": "uint256",
          "name": "",
          "type": "uint256"
        }
      ],
      "stateMutability": "view",
      "type": "function",
      "constant": true
    },
    {
      "inputs": [],
      "name": "numberOfBets",
      "outputs": [
        {
          "internalType": "uint256",
          "name": "",
          "type": "uint256"
        }
      ],
      "stateMutability": "view",
      "type": "function",
      "constant": true
    },
    {
      "inputs": [],
      "name": "numberOfRejects",
      "outputs": [
        {
          "internalType": "uint256",
          "name": "",
          "type": "uint256"
        }
      ],
      "stateMutability": "view",
      "type": "function",
      "constant": true
    },
    {
      "inputs": [],
      "name": "winned",
      "outputs": [
        {
          "internalType": "uint256",
          "name": "",
          "type": "uint256"
        }
      ],
      "stateMutability": "view",
      "type": "function",
      "constant": true
    },
    {
      "inputs": [],
      "name": "bet",
      "outputs": [],
      "stateMutability": "nonpayable",
      "type": "function"
    },
    {
      "inputs": [],
      "name": "reject",
      "outputs": [],
      "stateMutability": "nonpayable",
      "type": "function"
    }
  ],
  "bytecode": "0x60e06040526ddead00000000000000000000000060c05260646004556006805461ffff60a01b1916905561271060075561138860085560056009819055600a556000600b819055600c819055600d819055600e819055600f5534801561006457600080fd5b507fa555fc018435bef5a13c6c6870a9d4c11dec329c00000000000000000000000060a0527f84b9b910527ad5c03a9ca831909e21e236ea7b06000000000000000000000000608052600180546001600160a01b0319163390811790915560405181906000907f8be0079c531659141344cd1fd0a4f28419497f9722a3daafe3b4186f6b6457e0908290a3507fcaf3c3727e033261d383b315559476f48034c13b18f8cafed4d871abe504918660025567016345785d8a000060035560805160601c60a05160601c60c05160601c612e416101746000396000818161027b015281816127ec01526128b00152600081816113c301526125f1015260008181611d1e01526125c20152612e416000f3fe608060405234801561001057600080fd5b50600436106102265760003560e01c806394985ddd1161012a578063c4767b95116100bd578063f01f20df1161008c578063fa6776db11610071578063fa6776db14610428578063fc0c546a14610430578063ff70fa491461044357610226565b8063f01f20df1461040c578063f2fde38b1461041557610226565b8063c4767b95146103df578063d24257c0146103f2578063d3d75c78146103fb578063ea5628981461040357610226565b8063b8204b3b116100f9578063b8204b3b146103b1578063befa1e2f146103ba578063c0e699b7146103c3578063c3f0d327146103cc57610226565b806394985ddd1461037a578063a47319331461038d578063a61d0aed14610395578063adf454311461039e57610226565b80634d7f4e5e116101bd5780635c462c401161018c578063715018a611610171578063715018a61461035957806374b38531146103615780638da5cb5b1461036957610226565b80635c462c40146103485780635dfec6761461035057610226565b80634d7f4e5e146102f65780634dc415de1461030957806353a79d7414610311578063544736e61461032457610226565b806327c8f835116101f957806327c8f835146102765780632ca8c6d3146102b55780634242ccbc146102bd5780634aafa034146102d057610226565b80630f8c13e11461022b578063101a8d7014610246578063103f5a1a1461025b57806311610c251461026e575b600080fd5b610233610456565b6040519081526020015b60405180910390f35b610259610254366004612b81565b610483565b005b610233610269366004612b81565b6105a7565b6102596105c8565b61029d7f000000000000000000000000000000000000000000000000000000000000000081565b6040516001600160a01b03909116815260200161023d565b610233610c6a565b6102336102cb366004612b81565b610c75565b6005546102e490600160a01b900460ff1681565b60405160ff909116815260200161023d565b610259610304366004612b81565b610c85565b610259610d54565b61025961031f366004612b81565b611188565b60065461033890600160a01b900460ff1681565b604051901515815260200161023d565b610233611257565b610233600e5481565b610259611262565b610259611313565b6001546001600160a01b031661029d565b610259610388366004612b60565b6113b8565b61023361143a565b61023360045481565b6102596103ac366004612b81565b611445565b610233600a5481565b610233600b5481565b610233600d5481565b6102596103da366004612b81565b611514565b6102596103ed366004612b05565b6115e3565b61023360075481565b610233600b81565b61023360085481565b61023360095481565b610259610423366004612aeb565b6116f4565b610259611833565b60055461029d906001600160a01b031681565b610259610451366004612aeb565b611b42565b6000601581335b6001600160a01b03166001600160a01b0316815260200190815260200160002054905090565b6001546001600160a01b031633146104e25760405162461bcd60e51b815260206004820181905260248201527f4f776e61626c653a2063616c6c6572206973206e6f7420746865206f776e657260448201526064015b60405180910390fd5b600654600160a01b900460ff16156105525760405162461bcd60e51b815260206004820152602d60248201527f49742063616e2062652063616c6c65642061667465722073746f70706564206360448201526c757272656e7420726f756e642160981b60648201526084016104d9565b600081116105a25760405162461bcd60e51b815260206004820152601c60248201527f49742073686f756c642062652067726561746572207468616e2030210000000060448201526064016104d9565b600455565b601781815481106105b757600080fd5b600091825260209091200154905081565b6006547501000000000000000000000000000000000000000000900460ff161561065a5760405162461bcd60e51b815260206004820152602260248201527f4e6f742066696e6973686564207468652070726576696f75732072657175657360448201527f742100000000000000000000000000000000000000000000000000000000000060648201526084016104d9565b600654600160a01b900460ff1615156001146106b85760405162461bcd60e51b815260206004820152601660248201527f4974206973206e6f74207374617274656420796574210000000000000000000060448201526064016104d9565b6005546106d090600160a01b900460ff16600a612ca9565b6007546106dd9190612d7a565b6005546001600160a01b03166370a08231336040516001600160e01b031960e084901b1681526001600160a01b03909116600482015260240160206040518083038186803b15801561072e57600080fd5b505afa158015610742573d6000803e3d6000fd5b505050506040513d601f19601f820116820180604052508101906107669190612b99565b10156107b45760405162461bcd60e51b815260206004820152601360248201527f4e6f7420656e6f7567682062616c616e6365210000000000000000000000000060448201526064016104d9565b6005546107cc90600160a01b900460ff16600a612ca9565b6007546107d99190612d7a565b6005546001600160a01b031663dd62ed3e336040516001600160e01b031960e084901b1681526001600160a01b03909116600482015230602482015260440160206040518083038186803b15801561083057600080fd5b505afa158015610844573d6000803e3d6000fd5b505050506040513d601f19601f820116820180604052508101906108689190612b99565b10156108b65760405162461bcd60e51b815260206004820152601460248201527f4e6f7420616c6c6f7765642062616c616e63652100000000000000000000000060448201526064016104d9565b60055433906001600160a01b038116906323b872dd90839030906108e590600160a01b900460ff16600a612ca9565b6007546108f29190612d7a565b6040516001600160e01b031960e086901b1681526001600160a01b0393841660048201529290911660248301526044820152606401602060405180830381600087803b15801561094157600080fd5b505af1158015610955573d6000803e3d6000fd5b505050506040513d601f19601f820116820180604052508101906109799190612b40565b50600b805490600061098a83612db0565b91905055506109f360148054806020026020016040519081016040528092919081815260200182805480156109e857602002820191906000526020600020905b81546001600160a01b031681526001909101906020018083116109ca575b505050505082611c3b565b15610a26576001600160a01b0381166000908152601260205260408120805491610a1c83612db0565b9190505550610a8d565b6014805460018082019092557fce6d7b5282bd9a3661ae061feed1dbda4e52ab073b1f9285be6e155d9c38d4ec01805473ffffffffffffffffffffffffffffffffffffffff19166001600160a01b0384169081179091556000908152601260205260409020555b600f54600090610aa19060ff166036611cb1565b610aac906001612c37565b6001600160a01b03831660009081526013602052604090208190559050600b811415610be557600c8054906000610ae283612db0565b9190505550610b4b6016805480602002602001604051908101604052809291908181526020018280548015610b4057602002820191906000526020600020905b81546001600160a01b03168152600190910190602001808311610b22575b505050505083611c3b565b15610b7e576001600160a01b0382166000908152601560205260408120805491610b7483612db0565b9190505550610be5565b6016805460018082019092557fd833147d7dc355ba459fc788f669e58cfaf9dc25ddcd0702e87d69c7b512428901805473ffffffffffffffffffffffffffffffffffffffff19166001600160a01b0385169081179091556000908152601560205260409020555b600f805460081c90819055610bfe57610bfc611cfa565b505b600454600b5410610c66576006805460ff60a01b19169055600c5415610c2b57610c26611e61565b610c33565b610c33612009565b600d54600c54600e546040517f768c68b493aee618d21858fda9089e9ce1a41fc00ba1b909ed1ed74b7d71d7be90600090a45b5050565b60006012813361045d565b601881815481106105b757600080fd5b6001546001600160a01b03163314610cdf5760405162461bcd60e51b815260206004820181905260248201527f4f776e61626c653a2063616c6c6572206973206e6f7420746865206f776e657260448201526064016104d9565b600654600160a01b900460ff1615610d4f5760405162461bcd60e51b815260206004820152602d60248201527f49742063616e2062652063616c6c65642061667465722073746f70706564206360448201526c757272656e7420726f756e642160981b60648201526084016104d9565b600a55565b600654600160a01b900460ff161515600114610db25760405162461bcd60e51b815260206004820152601660248201527f4974206973206e6f74207374617274656420796574210000000000000000000060448201526064016104d9565b600554610dca90600160a01b900460ff16600a612ca9565b600854610dd79190612d7a565b6005546001600160a01b03166370a08231336040516001600160e01b031960e084901b1681526001600160a01b03909116600482015260240160206040518083038186803b158015610e2857600080fd5b505afa158015610e3c573d6000803e3d6000fd5b505050506040513d601f19601f82011682018060405250810190610e609190612b99565b1015610eae5760405162461bcd60e51b815260206004820152601360248201527f4e6f7420656e6f7567682062616c616e6365210000000000000000000000000060448201526064016104d9565b600554610ec690600160a01b900460ff16600a612ca9565b600854610ed39190612d7a565b6005546001600160a01b031663dd62ed3e336040516001600160e01b031960e084901b1681526001600160a01b03909116600482015230602482015260440160206040518083038186803b158015610f2a57600080fd5b505afa158015610f3e573d6000803e3d6000fd5b505050506040513d601f19601f82011682018060405250810190610f629190612b99565b1015610fb05760405162461bcd60e51b815260206004820152601460248201527f4e6f7420616c6c6f7765642062616c616e63652100000000000000000000000060448201526064016104d9565b60055433906001600160a01b038116906323b872dd9083903090610fdf90600160a01b900460ff16600a612ca9565b600854610fec9190612d7a565b6040516001600160e01b031960e086901b1681526001600160a01b0393841660048201529290911660248301526044820152606401602060405180830381600087803b15801561103b57600080fd5b505af115801561104f573d6000803e3d6000fd5b505050506040513d601f19601f820116820180604052508101906110739190612b40565b50600d805490600061108483612db0565b91905055506110eb60118054806020026020016040519081016040528092919081815260200182805480156109e8576020028201919060005260206000209081546001600160a01b031681526001909101906020018083116109ca57505050505082611c3b565b1561111e576001600160a01b038116600090815260106020526040812080549161111483612db0565b9190505550611185565b6011805460018082019092557f31ecc21a745e3968a04e9570e4425bc18fa8019c68028196b546d1669c200c6801805473ffffffffffffffffffffffffffffffffffffffff19166001600160a01b0384169081179091556000908152601060205260409020555b50565b6001546001600160a01b031633146111e25760405162461bcd60e51b815260206004820181905260248201527f4f776e61626c653a2063616c6c6572206973206e6f7420746865206f776e657260448201526064016104d9565b600654600160a01b900460ff16156112525760405162461bcd60e51b815260206004820152602d60248201527f49742063616e2062652063616c6c65642061667465722073746f70706564206360448201526c757272656e7420726f756e642160981b60648201526084016104d9565b600755565b60006010813361045d565b6001546001600160a01b031633146112bc5760405162461bcd60e51b815260206004820181905260248201527f4f776e61626c653a2063616c6c6572206973206e6f7420746865206f776e657260448201526064016104d9565b6001546040516000916001600160a01b0316907f8be0079c531659141344cd1fd0a4f28419497f9722a3daafe3b4186f6b6457e0908390a36001805473ffffffffffffffffffffffffffffffffffffffff19169055565b6001546001600160a01b0316331461136d5760405162461bcd60e51b815260206004820181905260248201527f4f776e61626c653a2063616c6c6572206973206e6f7420746865206f776e657260448201526064016104d9565b6006805460ff60a01b191690556113826121b1565b61138a61236c565b600e546040517f5378e99f1c6cc344f21e74745742dd30c73797900a542307d5d109383b01bf2890600090a2565b336001600160a01b037f000000000000000000000000000000000000000000000000000000000000000016146114305760405162461bcd60e51b815260206004820152601f60248201527f4f6e6c7920565246436f6f7264696e61746f722063616e2066756c66696c6c0060448201526064016104d9565b610c668282612527565b60006013813361045d565b6001546001600160a01b0316331461149f5760405162461bcd60e51b815260206004820181905260248201527f4f776e61626c653a2063616c6c6572206973206e6f7420746865206f776e657260448201526064016104d9565b600654600160a01b900460ff161561150f5760405162461bcd60e51b815260206004820152602d60248201527f49742063616e2062652063616c6c65642061667465722073746f70706564206360448201526c757272656e7420726f756e642160981b60648201526084016104d9565b600855565b6001546001600160a01b0316331461156e5760405162461bcd60e51b815260206004820181905260248201527f4f776e61626c653a2063616c6c6572206973206e6f7420746865206f776e657260448201526064016104d9565b600654600160a01b900460ff16156115de5760405162461bcd60e51b815260206004820152602d60248201527f49742063616e2062652063616c6c65642061667465722073746f70706564206360448201526c757272656e7420726f756e642160981b60648201526084016104d9565b600955565b6001546001600160a01b0316331461163d5760405162461bcd60e51b815260206004820181905260248201527f4f776e61626c653a2063616c6c6572206973206e6f7420746865206f776e657260448201526064016104d9565b600654600160a01b900460ff16156116ad5760405162461bcd60e51b815260206004820152602d60248201527f49742063616e2062652063616c6c65642061667465722073746f70706564206360448201526c757272656e7420726f756e642160981b60648201526084016104d9565b6005805460ff909216600160a01b027fffffffffffffffffffffff0000000000000000000000000000000000000000009092166001600160a01b0390931692909217179055565b6001546001600160a01b0316331461174e5760405162461bcd60e51b815260206004820181905260248201527f4f776e61626c653a2063616c6c6572206973206e6f7420746865206f776e657260448201526064016104d9565b6001600160a01b0381166117ca5760405162461bcd60e51b815260206004820152602660248201527f4f776e61626c653a206e6577206f776e657220697320746865207a65726f206160448201527f646472657373000000000000000000000000000000000000000000000000000060648201526084016104d9565b6001546040516001600160a01b038084169216907f8be0079c531659141344cd1fd0a4f28419497f9722a3daafe3b4186f6b6457e090600090a36001805473ffffffffffffffffffffffffffffffffffffffff19166001600160a01b0392909216919091179055565b6001546001600160a01b0316331461188d5760405162461bcd60e51b815260206004820181905260248201527f4f776e61626c653a2063616c6c6572206973206e6f7420746865206f776e657260448201526064016104d9565b600654600160a01b900460ff16156118fd5760405162461bcd60e51b815260206004820152602d60248201527f49742063616e2062652063616c6c65642061667465722073746f70706564206360448201526c757272656e7420726f756e642160981b60648201526084016104d9565b60005b601454811015611968576000601260006014848154811061193157634e487b7160e01b600052603260045260246000fd5b60009182526020808320909101546001600160a01b031683528201929092526040019020558061196081612db0565b915050611900565b5060005b6014548110156119d4576000601360006014848154811061199d57634e487b7160e01b600052603260045260246000fd5b60009182526020808320909101546001600160a01b03168352820192909252604001902055806119cc81612db0565b91505061196c565b506119e160146000612a9d565b60005b601154811015611a4c5760006010600060118481548110611a1557634e487b7160e01b600052603260045260246000fd5b60009182526020808320909101546001600160a01b0316835282019290925260400190205580611a4481612db0565b9150506119e4565b50611a5960116000612a9d565b60005b601654811015611ac45760006015600060168481548110611a8d57634e487b7160e01b600052603260045260246000fd5b60009182526020808320909101546001600160a01b0316835282019290925260400190205580611abc81612db0565b915050611a5c565b50611ad160166000612a9d565b6000600b819055600c819055600d819055600e805491611af083612db0565b9190505550611afd611cfa565b506006805460ff60a01b1916600160a01b179055600454600e546040517f87ac41d581680567c1ef44614ddfa5522f853ea15b877693a35b1e4157cc309d90600090a3565b6001546001600160a01b03163314611b9c5760405162461bcd60e51b815260206004820181905260248201527f4f776e61626c653a2063616c6c6572206973206e6f7420746865206f776e657260448201526064016104d9565b600654600160a01b900460ff1615611c0c5760405162461bcd60e51b815260206004820152602d60248201527f49742063616e2062652063616c6c65642061667465722073746f70706564206360448201526c757272656e7420726f756e642160981b60648201526084016104d9565b6006805473ffffffffffffffffffffffffffffffffffffffff19166001600160a01b0392909216919091179055565b6000805b8351811015611ca557826001600160a01b0316848281518110611c7257634e487b7160e01b600052603260045260246000fd5b60200260200101516001600160a01b03161415611c93576001915050611cab565b80611c9d81612db0565b915050611c3f565b50600090505b92915050565b6000611cf383836040518060400160405280601881526020017f536166654d6174683a206d6f64756c6f206279207a65726f000000000000000081525061258a565b9392505050565b6003546040516370a0823160e01b8152306004820152600091906001600160a01b037f000000000000000000000000000000000000000000000000000000000000000016906370a082319060240160206040518083038186803b158015611d6057600080fd5b505afa158015611d74573d6000803e3d6000fd5b505050506040513d601f19601f82011682018060405250810190611d989190612b99565b1015611e0c5760405162461bcd60e51b815260206004820152602b60248201527f4e6f7420656e6f756768204c494e4b202d2066696c6c20636f6e74726163742060448201527f776974682066617563657400000000000000000000000000000000000000000060648201526084016104d9565b600680547fffffffffffffffffffff00ffffffffffffffffffffffffffffffffffffffffff167501000000000000000000000000000000000000000000179055600254600354611e5c91906125be565b905090565b6000611e6b612744565b90506000611e84600c548361298990919063ffffffff16565b905060005b601654811015611fce57600554601680546001600160a01b039092169163a9059cbb919084908110611ecb57634e487b7160e01b600052603260045260246000fd5b9060005260206000200160009054906101000a90046001600160a01b03166015600060168681548110611f0e57634e487b7160e01b600052603260045260246000fd5b60009182526020808320909101546001600160a01b03168352820192909252604001902054611f3d9086612d7a565b6040516001600160e01b031960e085901b1681526001600160a01b0390921660048301526024820152604401602060405180830381600087803b158015611f8357600080fd5b505af1158015611f97573d6000803e3d6000fd5b505050506040513d601f19601f82011682018060405250810190611fbb9190612b40565b5080611fc681612db0565b915050611e89565b5050600c54601780546001810182556000919091527fc624b66cc0138b8fabc209247f72d758e1cf3343756d543badbf24212bed8c15015550565b6000612013612744565b9050600061202c600d548361298990919063ffffffff16565b905060005b60115481101561217657600554601180546001600160a01b039092169163a9059cbb91908490811061207357634e487b7160e01b600052603260045260246000fd5b9060005260206000200160009054906101000a90046001600160a01b031660106000601186815481106120b657634e487b7160e01b600052603260045260246000fd5b60009182526020808320909101546001600160a01b031683528201929092526040019020546120e59086612d7a565b6040516001600160e01b031960e085901b1681526001600160a01b0390921660048301526024820152604401602060405180830381600087803b15801561212b57600080fd5b505af115801561213f573d6000803e3d6000fd5b505050506040513d601f19601f820116820180604052508101906121639190612b40565b508061216e81612db0565b915050612031565b5050600d54601880546001810182556000919091527fb13d2d76d1f4b7be834882e410b3e3a8afaf69f83600ae24db354391d2378d2e015550565b60005b60145481101561118557600060126000601484815481106121e557634e487b7160e01b600052603260045260246000fd5b60009182526020808320909101546001600160a01b03168352820192909252604001812054601480549193506012918391908690811061223557634e487b7160e01b600052603260045260246000fd5b60009182526020808320909101546001600160a01b03908116845290830193909352604090910190209190915560055460148054919092169163a9059cbb918590811061229257634e487b7160e01b600052603260045260246000fd5b6000918252602090912001546005546001600160a01b03909116906122c290600160a01b900460ff16600a612ca9565b6007546122cf9086612d7a565b6122d99190612d7a565b6040516001600160e01b031960e085901b1681526001600160a01b0390921660048301526024820152604401602060405180830381600087803b15801561231f57600080fd5b505af1158015612333573d6000803e3d6000fd5b505050506040513d601f19601f820116820180604052508101906123579190612b40565b5050808061236490612db0565b9150506121b4565b60005b60115481101561118557600060106000601184815481106123a057634e487b7160e01b600052603260045260246000fd5b60009182526020808320909101546001600160a01b0316835282019290925260400181205460118054919350601091839190869081106123f057634e487b7160e01b600052603260045260246000fd5b60009182526020808320909101546001600160a01b03908116845290830193909352604090910190209190915560055460118054919092169163a9059cbb918590811061244d57634e487b7160e01b600052603260045260246000fd5b6000918252602090912001546005546001600160a01b039091169061247d90600160a01b900460ff16600a612ca9565b60085461248a9086612d7a565b6124949190612d7a565b6040516001600160e01b031960e085901b1681526001600160a01b0390921660048301526024820152604401602060405180830381600087803b1580156124da57600080fd5b505af11580156124ee573d6000803e3d6000fd5b505050506040513d601f19601f820116820180604052508101906125129190612b40565b5050808061251f90612db0565b91505061236f565b8043604051602001612543929190918252602082015260400190565b60408051601f198184030181529190528051602090910120600f555050600680547fffffffffffffffffffff00ffffffffffffffffffffffffffffffffffffffffff169055565b600081836125ab5760405162461bcd60e51b81526004016104d99190612c24565b506125b68385612dcb565b949350505050565b60007f00000000000000000000000000000000000000000000000000000000000000006001600160a01b0316634000aea07f00000000000000000000000000000000000000000000000000000000000000008486600060405160200161262e929190918252602082015260400190565b6040516020818303038152906040526040518463ffffffff1660e01b815260040161265b93929190612bfc565b602060405180830381600087803b15801561267557600080fd5b505af1158015612689573d6000803e3d6000fd5b505050506040513d601f19601f820116820180604052508101906126ad9190612b40565b5060008381526020818152604080832054815180840188905280830185905230606082015260808082018390528351808303909101815260a090910190925281519183019190912086845292909152612707906001612c37565b60008581526020818152604091829020929092558051808301879052808201849052815180820383018152606090910190915280519101206125b6565b6005546040516370a0823160e01b815230600482015260009182916127d1916064916001600160a01b03909116906370a082319060240160206040518083038186803b15801561279357600080fd5b505afa1580156127a7573d6000803e3d6000fd5b505050506040513d601f19601f820116820180604052508101906127cb9190612b99565b90612989565b6005546009549192506001600160a01b03169063a9059cbb907f0000000000000000000000000000000000000000000000000000000000000000906128179085906129cb565b6040516001600160e01b031960e085901b1681526001600160a01b0390921660048301526024820152604401602060405180830381600087803b15801561285d57600080fd5b505af1158015612871573d6000803e3d6000fd5b505050506040513d601f19601f820116820180604052508101906128959190612b40565b50600554600a546001600160a01b039091169063a9059cbb907f0000000000000000000000000000000000000000000000000000000000000000906128db9085906129cb565b6040516001600160e01b031960e085901b1681526001600160a01b0390921660048301526024820152604401602060405180830381600087803b15801561292157600080fd5b505af1158015612935573d6000803e3d6000fd5b505050506040513d601f19601f820116820180604052508101906129599190612b40565b506000612982600a5460095460646129719190612d99565b61297b9190612d99565b83906129cb565b9250505090565b6000611cf383836040518060400160405280601a81526020017f536166654d6174683a206469766973696f6e206279207a65726f000000000000815250612a66565b6000826129da57506000611cab565b60006129e68385612d7a565b9050826129f38583612c4f565b14611cf35760405162461bcd60e51b815260206004820152602160248201527f536166654d6174683a206d756c7469706c69636174696f6e206f766572666c6f60448201527f770000000000000000000000000000000000000000000000000000000000000060648201526084016104d9565b60008183612a875760405162461bcd60e51b81526004016104d99190612c24565b506000612a948486612c4f565b95945050505050565b508054600082559060005260206000209081019061118591905b80821115612acb5760008155600101612ab7565b5090565b80356001600160a01b0381168114612ae657600080fd5b919050565b600060208284031215612afc578081fd5b611cf382612acf565b60008060408385031215612b17578081fd5b612b2083612acf565b9150602083013560ff81168114612b35578182fd5b809150509250929050565b600060208284031215612b51578081fd5b81518015158114611cf3578182fd5b60008060408385031215612b72578182fd5b50508035926020909101359150565b600060208284031215612b92578081fd5b5035919050565b600060208284031215612baa578081fd5b5051919050565b60008151808452815b81811015612bd657602081850181015186830182015201612bba565b81811115612be75782602083870101525b50601f01601f19169290920160200192915050565b60006001600160a01b038516825283602083015260606040830152612a946060830184612bb1565b600060208252611cf36020830184612bb1565b60008219821115612c4a57612c4a612ddf565b500190565b600082612c5e57612c5e612df5565b500490565b80825b6001808611612c755750612ca0565b818704821115612c8757612c87612ddf565b80861615612c9457918102915b9490941c938002612c66565b94509492505050565b6000611cf360001960ff851684600082612cc557506001611cf3565b81612cd257506000611cf3565b8160018114612ce85760028114612cf257612d1f565b6001915050611cf3565b60ff841115612d0357612d03612ddf565b6001841b915084821115612d1957612d19612ddf565b50611cf3565b5060208310610133831016604e8410600b8410161715612d52575081810a83811115612d4d57612d4d612ddf565b611cf3565b612d5f8484846001612c63565b808604821115612d7157612d71612ddf565b02949350505050565b6000816000190483118215151615612d9457612d94612ddf565b500290565b600082821015612dab57612dab612ddf565b500390565b6000600019821415612dc457612dc4612ddf565b5060010190565b600082612dda57612dda612df5565b500690565b634e487b7160e01b600052601160045260246000fd5b634e487b7160e01b600052601260045260246000fdfea2646970667358221220abf92eb891c8c46dc66594534bf4ab3d90556c32ff8d6c641e9f9d58d572c51864736f6c63430008030033",
  "immutableReferences": {
    "215": [
      {
        "length": 32,
        "start": 635
      },
      {
        "length": 32,
        "start": 10220
      },
      {
        "length": 32,
        "start": 10416
      }
    ],
    "6517": [
      {
        "length": 32,
        "start": 7454
      },
      {
        "length": 32,
        "start": 9666
      }
    ],
    "6519": [
      {
        "length": 32,
        "start": 5059
      },
      {
        "length": 32,
        "start": 9713
      }
    ]
  },
  "source": "// SPDX-License-Identifier: MIT\npragma solidity 0.8.3;\n\nimport \"./v0.8/VRFConsumerBase.sol\";\nimport \"./SafeMath.sol\";\nimport \"./IERC20.sol\";\nimport \"./Context.sol\";\nimport \"./Ownable.sol\";\n\ncontract BetTracker is VRFConsumerBase, Context, Ownable {\n    using SafeMath for uint256;\n\n    address public immutable deadAddress = 0x000000000000000000000000000000000000dEaD;\n\n    // Please confirm these addresses, and keyHash & fee in constructor\n    address private constant VRFCoordinator = address(0xa555fC018435bef5A13C6c6870a9d4C11DEC329C);\n    address private constant LinkToken = address(0x84b9B910527Ad5C03A9Ca831909E21e236EA7b06);\n    bytes32 internal keyHash;\n    uint256 internal fee;\n\n    uint256 public constant SPADEQ = 11;\n    uint256 public maxBets = 100;\n\n    IERC20 public token;\n    uint8 public decimalsOfToken;\n    address internal developer;\n\n    bool public isStarted = false;\n    bool internal pending = false;\n\n    uint256 public betAmount = 10000;\n    uint256 public rejectAmount = 5000;\n\n    uint256 public burnPercentage = 5;\n    uint256 public developerBonusPercentage = 5;\n\n    uint256 public totalBets = 0;\n    uint256 internal totalWins = 0;\n    uint256 public totalRejects = 0;\n    uint256 public roundNo = 0;\n\n    uint256 internal cardsSrc = 0;\n\n    // address vs rejected number\n    mapping (address => uint256) internal rejects;\n    address[] internal rejectedUsers;\n\n    mapping (address => uint256) internal bets;\n    mapping (address => uint256) internal lastCards;\n    address[] internal bettedUsers;\n\n    // address vs spadeQ selected count\n    mapping (address => uint256) internal winners;\n    address[] internal winnedUsers;\n\n    uint256[] public wHistory;\n    uint256[] public rHistory;\n\n    modifier onlyStopped() {\n        require(isStarted == false, \"It can be called after stopped current round!\");\n        _;\n    }\n\n    modifier onlyStarted() {\n        require(isStarted == true, \"It is not started yet!\");\n        _;\n    }\n\n    modifier onlyIdle() {\n        require(pending == false, \"Not finished the previous request!\");\n        _;\n    }\n\n    event Started(uint256 indexed round, uint256 indexed betsLimit);\n\n    event Stopped(uint256 indexed round);\n\n    event Finished(uint256 indexed round, uint256 indexed winners, uint256 indexed rejectors);\n\n    constructor() VRFConsumerBase(VRFCoordinator, LinkToken) public {\n        // Please confirm keyHash & fee, and addresses above\n        keyHash = 0xcaf3c3727e033261d383b315559476f48034c13b18f8cafed4d871abe5049186;\n        fee = 0.1 * 10 ** 18; // 0.1 LINK (Varies by network)\n    }\n\n    function setToken(address _token, uint8 _decimals) external onlyOwner() onlyStopped() {\n        token = IERC20(_token);\n        decimalsOfToken = _decimals;\n    }\n\n    function setMaxBets(uint256 _count) external onlyOwner() onlyStopped() {\n        require(_count > 0, \"It should be greater than 0!\");\n        maxBets = _count;\n    }\n\n    function setBetAmount(uint256 _amount) external onlyOwner() onlyStopped() {\n        betAmount = _amount;\n    }\n\n    function setRejectAmount(uint256 _amount) external onlyOwner() onlyStopped() {\n        rejectAmount = _amount;\n    }\n\n    function setBurnPercentage(uint256 _value) external onlyOwner() onlyStopped() {\n        burnPercentage = _value;\n    }\n\n    function setDeveloperBonusPercentage(uint256 _value) external onlyOwner() onlyStopped() {\n        developerBonusPercentage = _value;\n    }\n\n    function setDeveloper(address _developer) external onlyOwner() onlyStopped() {\n        developer = _developer;\n    }\n\n    // Request randomness\n    function seedRandomCards() internal returns (bytes32 requestId) {\n        require(LINK.balanceOf(address(this)) >= fee, \"Not enough LINK - fill contract with faucet\");\n        pending = true;\n        return requestRandomness(keyHash, fee);\n    }\n\n    // Callback used by VRF Coordinator\n    function fulfillRandomness(bytes32 requestId, uint256 randomness) internal override {\n        // shuffle cards based on random number\n        cardsSrc = uint256(keccak256(abi.encode(randomness, block.number)));\n        pending = false;\n    }\n\n    /**\n        It should reset all required status.\n     */\n    function startBet() public onlyOwner() onlyStopped() {\n        // clear bets / win / rejects status\n        for (uint256 i = 0; i < bettedUsers.length; i++) {\n            bets[bettedUsers[i]] = 0;\n        }\n        for (uint256 i = 0; i < bettedUsers.length; i++) {\n            lastCards[bettedUsers[i]] = 0;\n        }\n        delete bettedUsers;\n\n        for (uint256 i = 0; i < rejectedUsers.length; i++) {\n            rejects[rejectedUsers[i]] = 0;\n        }\n        delete rejectedUsers;\n\n        for (uint256 i = 0; i < winnedUsers.length; i++) {\n            winners[winnedUsers[i]] = 0;\n        }\n        delete winnedUsers;\n\n        totalBets = 0;\n        totalWins = 0;\n        totalRejects = 0;\n        roundNo ++;\n\n        seedRandomCards();\n\n        isStarted = true;\n\n        emit Started(roundNo, maxBets);\n    }\n\n    /**\n        While stopping bet, it should refund all current bet/reject amount.\n     */\n    function stopBet() public onlyOwner() {\n        isStarted = false;\n\n        refundAllBets();\n        refundAllRejects();\n\n        emit Stopped(roundNo);\n    }\n\n    function refundAllBets() internal {\n        for (uint256 i = 0; i < bettedUsers.length; i++) {\n            uint256 betCount = bets[bettedUsers[i]];\n            bets[bettedUsers[i]] = 0;\n            token.transfer(bettedUsers[i], betCount * betAmount * (10**decimalsOfToken));\n        }\n    }\n\n    function refundAllRejects() internal {\n        for (uint256 i = 0; i < rejectedUsers.length; i++) {\n            uint256 rejectCount = rejects[rejectedUsers[i]];\n            rejects[rejectedUsers[i]] = 0;\n            token.transfer(rejectedUsers[i], rejectCount * rejectAmount * (10**decimalsOfToken));\n        }\n    }\n\n    function lastCard() external view returns (uint256) {\n        return lastCards[_msgSender()];\n    }\n\n    function numberOfBets() external view returns (uint256) {\n        return bets[_msgSender()];\n    }\n\n    function numberOfRejects() external view returns (uint256) {\n        return rejects[_msgSender()];\n    }\n\n    function winned() external view returns (uint256) {\n        return winners[_msgSender()];\n    }\n\n    /**\n        Transfer token(betAmount) into this contract address.\n        And get one random card, and if it is spade Q, then updates winners\n        And check if it is final, then perform final logic.\n        calculate prize amount, and distribute\n     */\n    function bet() public onlyIdle() onlyStarted() {\n        require(token.balanceOf(_msgSender()) >= betAmount * (10**decimalsOfToken), \"Not enough balance!\");\n        require(token.allowance(_msgSender(), address(this)) >= betAmount * (10**decimalsOfToken), \"Not allowed balance!\");\n\n        address _better = _msgSender();\n        token.transferFrom(_better, address(this), betAmount * (10**decimalsOfToken));\n\n        totalBets ++;\n        if (isExistInAddresses(bettedUsers, _better)) {\n            bets[_better] ++;\n        } else {\n            bettedUsers.push(_better);\n            bets[_better] = 1;\n        }\n\n        uint256 selectedCard = (cardsSrc & 0xFF).mod(54) + 1;\n        lastCards[_better] = selectedCard;\n        if (selectedCard == SPADEQ) {\n            totalWins ++;\n            if (isExistInAddresses(winnedUsers, _better)) {\n                winners[_better] ++;\n            } else {\n                winnedUsers.push(_better);\n                winners[_better] = 1;\n            }\n        }\n\n        cardsSrc >>= 8;\n        if (cardsSrc == 0) {\n            // generate random numbers again for next incoming betters\n            seedRandomCards();\n        }\n\n        if (totalBets >= maxBets) {\n            // game over\n            isStarted = false;\n\n            if (totalWins > 0) {\n                distributeRewardsToBetters();\n            } else {\n                distributeRewardsToRejecters();\n            }\n\n            emit Finished(roundNo, totalWins, totalRejects);\n        }\n    }\n\n    function distributeCommonRewards() internal returns (uint256) {\n        uint256 unitReturn = token.balanceOf(address(this)).div(100);\n        // burn\n        token.transfer(deadAddress, unitReturn.mul(burnPercentage));\n        // send to developer\n        token.transfer(deadAddress, unitReturn.mul(developerBonusPercentage));\n        uint256 totalRewards = unitReturn.mul(100 - burnPercentage - developerBonusPercentage);\n\n        return totalRewards;\n    }\n\n    function distributeRewardsToBetters() internal {\n        uint256 totalRewards = distributeCommonRewards();\n        uint256 unitRewards = totalRewards.div(totalWins);\n\n        for (uint256 i = 0; i < winnedUsers.length; i++) {\n            token.transfer(\n                winnedUsers[i],\n                unitRewards * winners[winnedUsers[i]]\n            );\n        }\n\n        wHistory.push(totalWins);\n    }\n\n    function distributeRewardsToRejecters() internal {\n        uint256 totalRewards = distributeCommonRewards();\n        uint256 unitRewards = totalRewards.div(totalRejects);\n\n        for (uint256 i = 0; i < rejectedUsers.length; i++) {\n            token.transfer(\n                rejectedUsers[i],\n                unitRewards * rejects[rejectedUsers[i]]\n            );\n        }\n\n        rHistory.push(totalRejects);\n    }\n\n    /**\n        Transfer token(rejectAmount) into this contract address.\n        And updates rejects.\n     */\n    function reject() public onlyStarted() {\n        require(token.balanceOf(_msgSender()) >= rejectAmount * (10**decimalsOfToken), \"Not enough balance!\");\n        require(token.allowance(_msgSender(), address(this)) >= rejectAmount * (10**decimalsOfToken), \"Not allowed balance!\");\n\n        address _rejecter = _msgSender();\n        token.transferFrom(_rejecter, address(this), rejectAmount * (10**decimalsOfToken));\n\n        totalRejects ++;\n        if (isExistInAddresses(rejectedUsers, _rejecter)) {\n            rejects[_rejecter] ++;\n        } else {\n            rejectedUsers.push(_rejecter);\n            rejects[_rejecter] = 1;\n        }\n    }\n\n    function isExistInAddresses(address[] memory _addresses, address target) pure internal returns (bool) {\n        for (uint256 i = 0; i < _addresses.length; i++) {\n            if (_addresses[i] == target) {\n                return true;\n            }\n        }\n        return false;\n    }\n}",
  "sourcePath": "/home/rol/Desktop/spadeQ-lott/spadeq/contracts/BetTracker.sol",
  "compiler": {
    "name": "solc",
    "version": "0.8.3+commit.8d00100c.Emscripten.clang"
  },
  "schemaVersion": "3.4.1",
  "updatedAt": "2021-09-09T15:07:34.771Z",
  "networkType": "ethereum",
  "devdoc": {
    "kind": "dev",
    "methods": {},
    "version": 1
  },
  "userdoc": {
    "kind": "user",
    "methods": {
      "bet()": {
        "notice": "Transfer token(betAmount) into this contract address. And get one random card, and if it is spade Q, then updates winners And check if it is final, then perform final logic. calculate prize amount, and distribute"
      },
      "reject()": {
        "notice": "Transfer token(rejectAmount) into this contract address. And updates rejects."
      },
      "startBet()": {
        "notice": "It should reset all required status."
      },
      "stopBet()": {
        "notice": "While stopping bet, it should refund all current bet/reject amount."
      }
    },
    "version": 1
  }
}