{
  "contractName": "ConfirmedOwner",
  "abi": [
    {
      "inputs": [
        {
          "internalType": "address",
          "name": "newOwner",
          "type": "address"
        }
      ],
      "stateMutability": "nonpayable",
      "type": "constructor"
    },
    {
      "anonymous": false,
      "inputs": [
        {
          "indexed": true,
          "internalType": "address",
          "name": "from",
          "type": "address"
        },
        {
          "indexed": true,
          "internalType": "address",
          "name": "to",
          "type": "address"
        }
      ],
      "name": "OwnershipTransferRequested",
      "type": "event"
    },
    {
      "anonymous": false,
      "inputs": [
        {
          "indexed": true,
          "internalType": "address",
          "name": "from",
          "type": "address"
        },
        {
          "indexed": true,
          "internalType": "address",
          "name": "to",
          "type": "address"
        }
      ],
      "name": "OwnershipTransferred",
      "type": "event"
    },
    {
      "inputs": [],
      "name": "acceptOwnership",
      "outputs": [],
      "stateMutability": "nonpayable",
      "type": "function"
    },
    {
      "inputs": [],
      "name": "owner",
      "outputs": [
        {
          "internalType": "address",
          "name": "",
          "type": "address"
        }
      ],
      "stateMutability": "view",
      "type": "function"
    },
    {
      "inputs": [
        {
          "internalType": "address",
          "name": "to",
          "type": "address"
        }
      ],
      "name": "transferOwnership",
      "outputs": [],
      "stateMutability": "nonpayable",
      "type": "function"
    }
  ],
  "bytecode": "0x608060405234801561001057600080fd5b5060405161049238038061049283398101604081905261002f9161016f565b8060006001600160a01b03821661008d5760405162461bcd60e51b815260206004820152601860248201527f43616e6e6f7420736574206f776e657220746f207a65726f000000000000000060448201526064015b60405180910390fd5b600080546001600160a01b0319166001600160a01b03848116919091179091558116156100bd576100bd816100c5565b50505061019d565b6001600160a01b03811633141561011e5760405162461bcd60e51b815260206004820152601760248201527f43616e6e6f74207472616e7366657220746f2073656c660000000000000000006044820152606401610084565b600180546001600160a01b0319166001600160a01b0383811691821790925560008054604051929316917fed8889f560326eb138920d842192f0eb3dd22b4f139c87a2c57538e05bae12789190a350565b600060208284031215610180578081fd5b81516001600160a01b0381168114610196578182fd5b9392505050565b6102e6806101ac6000396000f3fe608060405234801561001057600080fd5b50600436106100415760003560e01c806379ba5097146100465780638da5cb5b14610050578063f2fde38b1461006f575b600080fd5b61004e610082565b005b600054604080516001600160a01b039092168252519081900360200190f35b61004e61007d366004610282565b610150565b6001546001600160a01b031633146100e15760405162461bcd60e51b815260206004820152601660248201527f4d7573742062652070726f706f736564206f776e65720000000000000000000060448201526064015b60405180910390fd5b60008054337fffffffffffffffffffffffff0000000000000000000000000000000000000000808316821784556001805490911690556040516001600160a01b0390921692909183917f8be0079c531659141344cd1fd0a4f28419497f9722a3daafe3b4186f6b6457e091a350565b610158610164565b610161816101c0565b50565b6000546001600160a01b031633146101be5760405162461bcd60e51b815260206004820152601660248201527f4f6e6c792063616c6c61626c65206279206f776e65720000000000000000000060448201526064016100d8565b565b6001600160a01b0381163314156102195760405162461bcd60e51b815260206004820152601760248201527f43616e6e6f74207472616e7366657220746f2073656c6600000000000000000060448201526064016100d8565b600180547fffffffffffffffffffffffff0000000000000000000000000000000000000000166001600160a01b0383811691821790925560008054604051929316917fed8889f560326eb138920d842192f0eb3dd22b4f139c87a2c57538e05bae12789190a350565b600060208284031215610293578081fd5b81356001600160a01b03811681146102a9578182fd5b939250505056fea26469706673582212204d900cdf428c953f8e64a4c38d7aef2221a0813065217a9e720efff871449dd464736f6c63430008030033",
  "immutableReferences": {},
  "source": "// SPDX-License-Identifier: MIT\npragma solidity ^0.8.0;\n\nimport \"./ConfirmedOwnerWithProposal.sol\";\n\n/**\n * @title The ConfirmedOwner contract\n * @notice A contract with helpers for basic contract ownership.\n */\ncontract ConfirmedOwner is ConfirmedOwnerWithProposal {\n\n  constructor(\n    address newOwner\n  )\n    ConfirmedOwnerWithProposal(\n      newOwner,\n      address(0)\n    )\n  {\n  }\n\n}\n",
  "sourcePath": "/home/rol/Desktop/spadeQ-lott/spadeq/contracts/v0.8/ConfirmedOwner.sol",
  "compiler": {
    "name": "solc",
    "version": "0.8.3+commit.8d00100c.Emscripten.clang"
  },
  "schemaVersion": "3.4.1",
  "updatedAt": "2021-09-09T15:04:26.987Z",
  "devdoc": {
    "kind": "dev",
    "methods": {},
    "title": "The ConfirmedOwner contract",
    "version": 1
  },
  "userdoc": {
    "kind": "user",
    "methods": {
      "acceptOwnership()": {
        "notice": "Allows an ownership transfer to be completed by the recipient."
      },
      "owner()": {
        "notice": "Get the current owner"
      },
      "transferOwnership(address)": {
        "notice": "Allows an owner to begin transferring ownership to a new address, pending."
      }
    },
    "notice": "A contract with helpers for basic contract ownership.",
    "version": 1
  }
}