{
  "contractName": "Flags",
  "abi": [
    {
      "inputs": [
        {
          "internalType": "address",
          "name": "racAddress",
          "type": "address"
        }
      ],
      "stateMutability": "nonpayable",
      "type": "constructor"
    },
    {
      "anonymous": false,
      "inputs": [
        {
          "indexed": false,
          "internalType": "address",
          "name": "user",
          "type": "address"
        }
      ],
      "name": "AddedAccess",
      "type": "event"
    },
    {
      "anonymous": false,
      "inputs": [],
      "name": "CheckAccessDisabled",
      "type": "event"
    },
    {
      "anonymous": false,
      "inputs": [],
      "name": "CheckAccessEnabled",
      "type": "event"
    },
    {
      "anonymous": false,
      "inputs": [
        {
          "indexed": true,
          "internalType": "address",
          "name": "subject",
          "type": "address"
        }
      ],
      "name": "FlagLowered",
      "type": "event"
    },
    {
      "anonymous": false,
      "inputs": [
        {
          "indexed": true,
          "internalType": "address",
          "name": "subject",
          "type": "address"
        }
      ],
      "name": "FlagRaised",
      "type": "event"
    },
    {
      "anonymous": false,
      "inputs": [
        {
          "indexed": true,
          "internalType": "address",
          "name": "from",
          "type": "address"
        },
        {
          "indexed": true,
          "internalType": "address",
          "name": "to",
          "type": "address"
        }
      ],
      "name": "OwnershipTransferRequested",
      "type": "event"
    },
    {
      "anonymous": false,
      "inputs": [
        {
          "indexed": true,
          "internalType": "address",
          "name": "from",
          "type": "address"
        },
        {
          "indexed": true,
          "internalType": "address",
          "name": "to",
          "type": "address"
        }
      ],
      "name": "OwnershipTransferred",
      "type": "event"
    },
    {
      "anonymous": false,
      "inputs": [
        {
          "indexed": true,
          "internalType": "address",
          "name": "previous",
          "type": "address"
        },
        {
          "indexed": true,
          "internalType": "address",
          "name": "current",
          "type": "address"
        }
      ],
      "name": "RaisingAccessControllerUpdated",
      "type": "event"
    },
    {
      "anonymous": false,
      "inputs": [
        {
          "indexed": false,
          "internalType": "address",
          "name": "user",
          "type": "address"
        }
      ],
      "name": "RemovedAccess",
      "type": "event"
    },
    {
      "inputs": [],
      "name": "acceptOwnership",
      "outputs": [],
      "stateMutability": "nonpayable",
      "type": "function"
    },
    {
      "inputs": [
        {
          "internalType": "address",
          "name": "_user",
          "type": "address"
        }
      ],
      "name": "addAccess",
      "outputs": [],
      "stateMutability": "nonpayable",
      "type": "function"
    },
    {
      "inputs": [],
      "name": "checkEnabled",
      "outputs": [
        {
          "internalType": "bool",
          "name": "",
          "type": "bool"
        }
      ],
      "stateMutability": "view",
      "type": "function"
    },
    {
      "inputs": [],
      "name": "disableAccessCheck",
      "outputs": [],
      "stateMutability": "nonpayable",
      "type": "function"
    },
    {
      "inputs": [],
      "name": "enableAccessCheck",
      "outputs": [],
      "stateMutability": "nonpayable",
      "type": "function"
    },
    {
      "inputs": [
        {
          "internalType": "address",
          "name": "_user",
          "type": "address"
        },
        {
          "internalType": "bytes",
          "name": "_calldata",
          "type": "bytes"
        }
      ],
      "name": "hasAccess",
      "outputs": [
        {
          "internalType": "bool",
          "name": "",
          "type": "bool"
        }
      ],
      "stateMutability": "view",
      "type": "function"
    },
    {
      "inputs": [],
      "name": "owner",
      "outputs": [
        {
          "internalType": "address",
          "name": "",
          "type": "address"
        }
      ],
      "stateMutability": "view",
      "type": "function"
    },
    {
      "inputs": [],
      "name": "raisingAccessController",
      "outputs": [
        {
          "internalType": "contract AccessControllerInterface",
          "name": "",
          "type": "address"
        }
      ],
      "stateMutability": "view",
      "type": "function"
    },
    {
      "inputs": [
        {
          "internalType": "address",
          "name": "_user",
          "type": "address"
        }
      ],
      "name": "removeAccess",
      "outputs": [],
      "stateMutability": "nonpayable",
      "type": "function"
    },
    {
      "inputs": [
        {
          "internalType": "address",
          "name": "to",
          "type": "address"
        }
      ],
      "name": "transferOwnership",
      "outputs": [],
      "stateMutability": "nonpayable",
      "type": "function"
    },
    {
      "inputs": [
        {
          "internalType": "address",
          "name": "subject",
          "type": "address"
        }
      ],
      "name": "getFlag",
      "outputs": [
        {
          "internalType": "bool",
          "name": "",
          "type": "bool"
        }
      ],
      "stateMutability": "view",
      "type": "function"
    },
    {
      "inputs": [
        {
          "internalType": "address[]",
          "name": "subjects",
          "type": "address[]"
        }
      ],
      "name": "getFlags",
      "outputs": [
        {
          "internalType": "bool[]",
          "name": "",
          "type": "bool[]"
        }
      ],
      "stateMutability": "view",
      "type": "function"
    },
    {
      "inputs": [
        {
          "internalType": "address",
          "name": "subject",
          "type": "address"
        }
      ],
      "name": "raiseFlag",
      "outputs": [],
      "stateMutability": "nonpayable",
      "type": "function"
    },
    {
      "inputs": [
        {
          "internalType": "address[]",
          "name": "subjects",
          "type": "address[]"
        }
      ],
      "name": "raiseFlags",
      "outputs": [],
      "stateMutability": "nonpayable",
      "type": "function"
    },
    {
      "inputs": [
        {
          "internalType": "address[]",
          "name": "subjects",
          "type": "address[]"
        }
      ],
      "name": "lowerFlags",
      "outputs": [],
      "stateMutability": "nonpayable",
      "type": "function"
    },
    {
      "inputs": [
        {
          "internalType": "address",
          "name": "racAddress",
          "type": "address"
        }
      ],
      "name": "setRaisingAccessController",
      "outputs": [],
      "stateMutability": "nonpayable",
      "type": "function"
    }
  ],
  "bytecode": "0x60806040523480156200001157600080fd5b506040516200114938038062001149833981016040819052620000349162000264565b33806000816200008b5760405162461bcd60e51b815260206004820152601860248201527f43616e6e6f7420736574206f776e657220746f207a65726f000000000000000060448201526064015b60405180910390fd5b600080546001600160a01b0319166001600160a01b0384811691909117909155811615620000be57620000be81620000e6565b50506001805460ff60a01b1916600160a01b17905550620000df8162000192565b5062000294565b6001600160a01b038116331415620001415760405162461bcd60e51b815260206004820152601760248201527f43616e6e6f74207472616e7366657220746f2073656c66000000000000000000604482015260640162000082565b600180546001600160a01b0319166001600160a01b0383811691821790925560008054604051929316917fed8889f560326eb138920d842192f0eb3dd22b4f139c87a2c57538e05bae12789190a350565b6200019c62000206565b6003546001600160a01b0390811690821681146200020257600380546001600160a01b0319166001600160a01b0384811691821790925560405190918316907fbaf9ea078655a4fffefd08f9435677bbc91e457a6d015fe7de1d0e68b8802cac90600090a35b5050565b6000546001600160a01b03163314620002625760405162461bcd60e51b815260206004820152601660248201527f4f6e6c792063616c6c61626c65206279206f776e657200000000000000000000604482015260640162000082565b565b60006020828403121562000276578081fd5b81516001600160a01b03811681146200028d578182fd5b9392505050565b610ea580620002a46000396000f3fe608060405234801561001057600080fd5b50600436106101005760003560e01c80637d723cac11610097578063a118f24911610066578063a118f24914610202578063d74af26314610215578063dc7f012414610228578063f2fde38b1461023c57610100565b80637d723cac146101b65780638038e4a1146101d65780638823da6c146101de5780638da5cb5b146101f157610100565b8063517e89fe116100d3578063517e89fe146101755780636b14daf814610188578063760bc82d1461019b57806379ba5097146101ae57610100565b80630a75698314610105578063282865961461010f5780632e1d859c14610122578063357e47fe14610152575b600080fd5b61010d61024f565b005b61010d61011d366004610d1d565b6102bd565b600354610135906001600160a01b031681565b6040516001600160a01b0390911681526020015b60405180910390f35b610165610160366004610c46565b61038a565b6040519015158152602001610149565b61010d610183366004610c46565b610441565b610165610196366004610c60565b6104bf565b61010d6101a9366004610d1d565b6104e5565b61010d610593565b6101c96101c4366004610d1d565b610651565b6040516101499190610dec565b61010d6107e5565b61010d6101ec366004610c46565b610857565b6000546001600160a01b0316610135565b61010d610210366004610c46565b6108d9565b61010d610223366004610c46565b610955565b60015461016590600160a01b900460ff1681565b61010d61024a366004610c46565b6109b2565b6102576109c3565b600154600160a01b900460ff16156102bb57600180547fffffffffffffffffffffff00ffffffffffffffffffffffffffffffffffffffff1690556040517f3be8a977a014527b50ae38adda80b56911c267328965c98ddc385d248f53963890600090a15b565b6102c56109c3565b60005b818110156103855760008383838181106102f257634e487b7160e01b600052603260045260246000fd5b90506020020160208101906103079190610c46565b6001600160a01b03811660009081526004602052604090205490915060ff1615610372576001600160a01b038116600081815260046020526040808220805460ff19169055517fd86728e2e5cbaa28c1d357b5fbccc9c1ab0add09950eb7cac42df9acb24c4bc89190a25b508061037d81610e32565b9150506102c8565b505050565b60006103cd336000368080601f0160208091040260200160405190810160405280939291908181526020018383808284376000920191909152506104bf92505050565b61041e5760405162461bcd60e51b815260206004820152600960248201527f4e6f20616363657373000000000000000000000000000000000000000000000060448201526064015b60405180910390fd5b506001600160a01b03811660009081526004602052604090205460ff165b919050565b6104496109c3565b6003546001600160a01b0390811690821681146104bb576003805473ffffffffffffffffffffffffffffffffffffffff19166001600160a01b0384811691821790925560405190918316907fbaf9ea078655a4fffefd08f9435677bbc91e457a6d015fe7de1d0e68b8802cac90600090a35b5050565b60006104cb8383610a1d565b806104de57506001600160a01b03831632145b9392505050565b6104ed610a54565b6105395760405162461bcd60e51b815260206004820152601a60248201527f4e6f7420616c6c6f77656420746f20726169736520666c6167730000000000006044820152606401610415565b60005b818110156103855761058183838381811061056757634e487b7160e01b600052603260045260246000fd5b905060200201602081019061057c9190610c46565b610b0c565b8061058b81610e32565b91505061053c565b6001546001600160a01b031633146105ed5760405162461bcd60e51b815260206004820152601660248201527f4d7573742062652070726f706f736564206f776e6572000000000000000000006044820152606401610415565b600080543373ffffffffffffffffffffffffffffffffffffffff19808316821784556001805490911690556040516001600160a01b0390921692909183917f8be0079c531659141344cd1fd0a4f28419497f9722a3daafe3b4186f6b6457e091a350565b6060610694336000368080601f0160208091040260200160405190810160405280939291908181526020018383808284376000920191909152506104bf92505050565b6106e05760405162461bcd60e51b815260206004820152600960248201527f4e6f2061636365737300000000000000000000000000000000000000000000006044820152606401610415565b60008267ffffffffffffffff81111561070957634e487b7160e01b600052604160045260246000fd5b604051908082528060200260200182016040528015610732578160200160208202803683370190505b50905060005b838110156107dd576004600086868481811061076457634e487b7160e01b600052603260045260246000fd5b90506020020160208101906107799190610c46565b6001600160a01b03168152602081019190915260400160002054825160ff909116908390839081106107bb57634e487b7160e01b600052603260045260246000fd5b91151560209283029190910190910152806107d581610e32565b915050610738565b509392505050565b6107ed6109c3565b600154600160a01b900460ff166102bb57600180547fffffffffffffffffffffff00ffffffffffffffffffffffffffffffffffffffff16600160a01b1790556040517faebf329500988c6488a0074e5a0a9ff304561fc5c6fc877aeb1d59c8282c348090600090a1565b61085f6109c3565b6001600160a01b03811660009081526002602052604090205460ff16156108d6576001600160a01b038116600081815260026020908152604091829020805460ff1916905590519182527f3d68a6fce901d20453d1a7aa06bf3950302a735948037deb182a8db66df2a0d191015b60405180910390a15b50565b6108e16109c3565b6001600160a01b03811660009081526002602052604090205460ff166108d6576001600160a01b038116600081815260026020908152604091829020805460ff1916600117905590519182527f87286ad1f399c8e82bf0c4ef4fcdc570ea2e1e92176e5c848b6413545b885db491016108cd565b61095d610a54565b6109a95760405162461bcd60e51b815260206004820152601a60248201527f4e6f7420616c6c6f77656420746f20726169736520666c6167730000000000006044820152606401610415565b6108d681610b0c565b6109ba6109c3565b6108d681610b78565b6000546001600160a01b031633146102bb5760405162461bcd60e51b815260206004820152601660248201527f4f6e6c792063616c6c61626c65206279206f776e6572000000000000000000006044820152606401610415565b6001600160a01b03821660009081526002602052604081205460ff16806104de575050600154600160a01b900460ff161592915050565b600080546001600160a01b0316331480610b0757506003546040517f6b14daf80000000000000000000000000000000000000000000000000000000081526001600160a01b0390911690636b14daf890610ab79033906000903690600401610dad565b60206040518083038186803b158015610acf57600080fd5b505afa158015610ae3573d6000803e3d6000fd5b505050506040513d601f19601f82011682018060405250810190610b079190610d8d565b905090565b6001600160a01b03811660009081526004602052604090205460ff166108d6576001600160a01b038116600081815260046020526040808220805460ff19166001179055517f881febd4cd194dd4ace637642862aef1fb59a65c7e5551a5d9208f268d11c0069190a250565b6001600160a01b038116331415610bd15760405162461bcd60e51b815260206004820152601760248201527f43616e6e6f74207472616e7366657220746f2073656c660000000000000000006044820152606401610415565b6001805473ffffffffffffffffffffffffffffffffffffffff19166001600160a01b0383811691821790925560008054604051929316917fed8889f560326eb138920d842192f0eb3dd22b4f139c87a2c57538e05bae12789190a350565b80356001600160a01b038116811461043c57600080fd5b600060208284031215610c57578081fd5b6104de82610c2f565b60008060408385031215610c72578081fd5b610c7b83610c2f565b9150602083013567ffffffffffffffff80821115610c97578283fd5b818501915085601f830112610caa578283fd5b813581811115610cbc57610cbc610e59565b604051601f8201601f19908116603f01168101908382118183101715610ce457610ce4610e59565b81604052828152886020848701011115610cfc578586fd5b82602086016020830137856020848301015280955050505050509250929050565b60008060208385031215610d2f578182fd5b823567ffffffffffffffff80821115610d46578384fd5b818501915085601f830112610d59578384fd5b813581811115610d67578485fd5b8660208260051b8501011115610d7b578485fd5b60209290920196919550909350505050565b600060208284031215610d9e578081fd5b815180151581146104de578182fd5b60006001600160a01b03851682526040602083015282604083015282846060840137818301606090810191909152601f909201601f1916010192915050565b6020808252825182820181905260009190848201906040850190845b81811015610e26578351151583529284019291840191600101610e08565b50909695505050505050565b6000600019821415610e5257634e487b7160e01b81526011600452602481fd5b5060010190565b634e487b7160e01b600052604160045260246000fdfea2646970667358221220c45cf8c3ccbfec28566e772bdcf0921588e0d5a4e3fe55d836ccf7ef259c0b4b64736f6c63430008030033",
  "immutableReferences": {},
  "source": "// SPDX-License-Identifier: MIT\npragma solidity ^0.8.0;\n\n\nimport \"./SimpleReadAccessController.sol\";\nimport \"./interfaces/AccessControllerInterface.sol\";\nimport \"./interfaces/FlagsInterface.sol\";\n\n\n/**\n * @title The Flags contract\n * @notice Allows flags to signal to any reader on the access control list.\n * The owner can set flags, or designate other addresses to set flags. The\n * owner must turn the flags off, other setters cannot. An expected pattern is\n * to allow addresses to raise flags on themselves, so if you are subscribing to\n * FlagOn events you should filter for addresses you care about.\n */\ncontract Flags is FlagsInterface, SimpleReadAccessController {\n\n  AccessControllerInterface public raisingAccessController;\n\n  mapping(address => bool) private flags;\n\n  event FlagRaised(\n    address indexed subject\n  );\n  event FlagLowered(\n    address indexed subject\n  );\n  event RaisingAccessControllerUpdated(\n    address indexed previous,\n    address indexed current\n  );\n\n  /**\n   * @param racAddress address for the raising access controller.\n   */\n  constructor(\n    address racAddress\n  ) {\n    setRaisingAccessController(racAddress);\n  }\n\n  /**\n   * @notice read the warning flag status of a contract address.\n   * @param subject The contract address being checked for a flag.\n   * @return A true value indicates that a flag was raised and a\n   * false value indicates that no flag was raised.\n   */\n  function getFlag(address subject)\n    external\n    view\n    override\n    checkAccess()\n    returns (bool)\n  {\n    return flags[subject];\n  }\n\n  /**\n   * @notice read the warning flag status of a contract address.\n   * @param subjects An array of addresses being checked for a flag.\n   * @return An array of bools where a true value for any flag indicates that\n   * a flag was raised and a false value indicates that no flag was raised.\n   */\n  function getFlags(address[] calldata subjects)\n    external\n    view\n    override\n    checkAccess()\n    returns (bool[] memory)\n  {\n    bool[] memory responses = new bool[](subjects.length);\n    for (uint256 i = 0; i < subjects.length; i++) {\n      responses[i] = flags[subjects[i]];\n    }\n    return responses;\n  }\n\n  /**\n   * @notice enable the warning flag for an address.\n   * Access is controlled by raisingAccessController, except for owner\n   * who always has access.\n   * @param subject The contract address whose flag is being raised\n   */\n  function raiseFlag(address subject)\n    external\n    override\n  {\n    require(allowedToRaiseFlags(), \"Not allowed to raise flags\");\n\n    tryToRaiseFlag(subject);\n  }\n\n  /**\n   * @notice enable the warning flags for multiple addresses.\n   * Access is controlled by raisingAccessController, except for owner\n   * who always has access.\n   * @param subjects List of the contract addresses whose flag is being raised\n   */\n  function raiseFlags(address[] calldata subjects)\n    external\n    override\n  {\n    require(allowedToRaiseFlags(), \"Not allowed to raise flags\");\n\n    for (uint256 i = 0; i < subjects.length; i++) {\n      tryToRaiseFlag(subjects[i]);\n    }\n  }\n\n  /**\n   * @notice allows owner to disable the warning flags for multiple addresses.\n   * @param subjects List of the contract addresses whose flag is being lowered\n   */\n  function lowerFlags(address[] calldata subjects)\n    external\n    override\n    onlyOwner()\n  {\n    for (uint256 i = 0; i < subjects.length; i++) {\n      address subject = subjects[i];\n\n      if (flags[subject]) {\n        flags[subject] = false;\n        emit FlagLowered(subject);\n      }\n    }\n  }\n\n  /**\n   * @notice allows owner to change the access controller for raising flags.\n   * @param racAddress new address for the raising access controller.\n   */\n  function setRaisingAccessController(\n    address racAddress\n  )\n    public\n    override\n    onlyOwner()\n  {\n    address previous = address(raisingAccessController);\n\n    if (previous != racAddress) {\n      raisingAccessController = AccessControllerInterface(racAddress);\n\n      emit RaisingAccessControllerUpdated(previous, racAddress);\n    }\n  }\n\n\n  // PRIVATE\n\n  function allowedToRaiseFlags()\n    private\n    view\n    returns (bool)\n  {\n    return msg.sender == owner() ||\n      raisingAccessController.hasAccess(msg.sender, msg.data);\n  }\n\n  function tryToRaiseFlag(address subject)\n    private\n  {\n    if (!flags[subject]) {\n      flags[subject] = true;\n      emit FlagRaised(subject);\n    }\n  }\n\n}\n",
  "sourcePath": "/home/rol/Desktop/spadeQ-lott/spadeq/contracts/v0.8/Flags.sol",
  "compiler": {
    "name": "solc",
    "version": "0.8.3+commit.8d00100c.Emscripten.clang"
  },
  "schemaVersion": "3.4.1",
  "updatedAt": "2021-09-09T15:04:26.993Z",
  "devdoc": {
    "kind": "dev",
    "methods": {
      "addAccess(address)": {
        "params": {
          "_user": "The address to add"
        }
      },
      "constructor": {
        "params": {
          "racAddress": "address for the raising access controller."
        }
      },
      "getFlag(address)": {
        "params": {
          "subject": "The contract address being checked for a flag."
        },
        "returns": {
          "_0": "A true value indicates that a flag was raised and a false value indicates that no flag was raised."
        }
      },
      "getFlags(address[])": {
        "params": {
          "subjects": "An array of addresses being checked for a flag."
        },
        "returns": {
          "_0": "An array of bools where a true value for any flag indicates that a flag was raised and a false value indicates that no flag was raised."
        }
      },
      "hasAccess(address,bytes)": {
        "params": {
          "_user": "The address to query"
        }
      },
      "lowerFlags(address[])": {
        "params": {
          "subjects": "List of the contract addresses whose flag is being lowered"
        }
      },
      "raiseFlag(address)": {
        "params": {
          "subject": "The contract address whose flag is being raised"
        }
      },
      "raiseFlags(address[])": {
        "params": {
          "subjects": "List of the contract addresses whose flag is being raised"
        }
      },
      "removeAccess(address)": {
        "params": {
          "_user": "The address to remove"
        }
      },
      "setRaisingAccessController(address)": {
        "params": {
          "racAddress": "new address for the raising access controller."
        }
      }
    },
    "title": "The Flags contract",
    "version": 1
  },
  "userdoc": {
    "kind": "user",
    "methods": {
      "acceptOwnership()": {
        "notice": "Allows an ownership transfer to be completed by the recipient."
      },
      "addAccess(address)": {
        "notice": "Adds an address to the access list"
      },
      "disableAccessCheck()": {
        "notice": "makes the access check unenforced"
      },
      "enableAccessCheck()": {
        "notice": "makes the access check enforced"
      },
      "getFlag(address)": {
        "notice": "read the warning flag status of a contract address."
      },
      "getFlags(address[])": {
        "notice": "read the warning flag status of a contract address."
      },
      "hasAccess(address,bytes)": {
        "notice": "Returns the access of an address"
      },
      "lowerFlags(address[])": {
        "notice": "allows owner to disable the warning flags for multiple addresses."
      },
      "owner()": {
        "notice": "Get the current owner"
      },
      "raiseFlag(address)": {
        "notice": "enable the warning flag for an address. Access is controlled by raisingAccessController, except for owner who always has access."
      },
      "raiseFlags(address[])": {
        "notice": "enable the warning flags for multiple addresses. Access is controlled by raisingAccessController, except for owner who always has access."
      },
      "removeAccess(address)": {
        "notice": "Removes an address from the access list"
      },
      "setRaisingAccessController(address)": {
        "notice": "allows owner to change the access controller for raising flags."
      },
      "transferOwnership(address)": {
        "notice": "Allows an owner to begin transferring ownership to a new address, pending."
      }
    },
    "notice": "Allows flags to signal to any reader on the access control list. The owner can set flags, or designate other addresses to set flags. The owner must turn the flags off, other setters cannot. An expected pattern is to allow addresses to raise flags on themselves, so if you are subscribing to FlagOn events you should filter for addresses you care about.",
    "version": 1
  }
}