{
  "contractName": "FlagsTestHelper",
  "abi": [
    {
      "inputs": [
        {
          "internalType": "address",
          "name": "flagsContract",
          "type": "address"
        }
      ],
      "stateMutability": "nonpayable",
      "type": "constructor"
    },
    {
      "inputs": [],
      "name": "flags",
      "outputs": [
        {
          "internalType": "contract Flags",
          "name": "",
          "type": "address"
        }
      ],
      "stateMutability": "view",
      "type": "function"
    },
    {
      "inputs": [
        {
          "internalType": "address",
          "name": "subject",
          "type": "address"
        }
      ],
      "name": "getFlag",
      "outputs": [
        {
          "internalType": "bool",
          "name": "",
          "type": "bool"
        }
      ],
      "stateMutability": "view",
      "type": "function"
    },
    {
      "inputs": [
        {
          "internalType": "address[]",
          "name": "subjects",
          "type": "address[]"
        }
      ],
      "name": "getFlags",
      "outputs": [
        {
          "internalType": "bool[]",
          "name": "",
          "type": "bool[]"
        }
      ],
      "stateMutability": "view",
      "type": "function"
    }
  ],
  "bytecode": "0x608060405234801561001057600080fd5b5060405161056738038061056783398101604081905261002f91610054565b600080546001600160a01b0319166001600160a01b0392909216919091179055610082565b600060208284031215610065578081fd5b81516001600160a01b038116811461007b578182fd5b9392505050565b6104d6806100916000396000f3fe608060405234801561001057600080fd5b50600436106100415760003560e01c8063357e47fe1461004657806364cc4aa51461006e5780637d723cac146100b3575b600080fd5b610059610054366004610267565b6100d3565b60405190151581526020015b60405180910390f35b60005461008e9073ffffffffffffffffffffffffffffffffffffffff1681565b60405173ffffffffffffffffffffffffffffffffffffffff9091168152602001610065565b6100c66100c1366004610281565b61017f565b604051610065919061042b565b600080546040517f357e47fe00000000000000000000000000000000000000000000000000000000815273ffffffffffffffffffffffffffffffffffffffff84811660048301529091169063357e47fe9060240160206040518083038186803b15801561013f57600080fd5b505afa158015610153573d6000803e3d6000fd5b505050506040513d601f19601f8201168201806040525081019061017791906103b8565b90505b919050565b6000546040517f7d723cac00000000000000000000000000000000000000000000000000000000815260609173ffffffffffffffffffffffffffffffffffffffff1690637d723cac906101d890869086906004016103d2565b60006040518083038186803b1580156101f057600080fd5b505afa158015610204573d6000803e3d6000fd5b505050506040513d6000823e601f3d908101601f1916820160405261022c91908101906102f1565b9392505050565b803573ffffffffffffffffffffffffffffffffffffffff8116811461017a57600080fd5b8051801515811461017a57600080fd5b600060208284031215610278578081fd5b61022c82610233565b60008060208385031215610293578081fd5b823567ffffffffffffffff808211156102aa578283fd5b818501915085601f8301126102bd578283fd5b8135818111156102cb578384fd5b8660208260051b85010111156102df578384fd5b60209290920196919550909350505050565b60006020808385031215610303578182fd5b825167ffffffffffffffff8082111561031a578384fd5b818501915085601f83011261032d578384fd5b81518181111561033f5761033f610471565b8060051b604051601f19603f8301168101818110858211171561036457610364610471565b604052828152858101935084860182860187018a1015610382578788fd5b8795505b838610156103ab5761039781610257565b855260019590950194938601938601610386565b5098975050505050505050565b6000602082840312156103c9578081fd5b61022c82610257565b60208082528181018390526000908460408401835b868110156104205773ffffffffffffffffffffffffffffffffffffffff61040d84610233565b16825291830191908301906001016103e7565b509695505050505050565b6020808252825182820181905260009190848201906040850190845b81811015610465578351151583529284019291840191600101610447565b50909695505050505050565b7f4e487b7100000000000000000000000000000000000000000000000000000000600052604160045260246000fdfea264697066735822122083ddf4284c3d27e8807ab4d4e164bf5a83c8ce48dbebeb5aa4078c782f4c24c964736f6c63430008030033",
  "immutableReferences": {},
  "source": "// SPDX-License-Identifier: MIT\npragma solidity ^0.8.0;\n\nimport \"../Flags.sol\";\n\ncontract FlagsTestHelper {\n  Flags public flags;\n\n  constructor(\n    address flagsContract\n  ) {\n    flags = Flags(flagsContract);\n  }\n\n  function getFlag(\n    address subject\n  )\n    external\n    view\n    returns(bool)\n  {\n    return flags.getFlag(subject);\n  }\n\n  function getFlags(\n    address[] calldata subjects\n  )\n    external\n    view\n    returns(bool[] memory)\n  {\n    return flags.getFlags(subjects);\n  }\n\n}\n",
  "sourcePath": "/home/rol/Desktop/spadeQ-lott/spadeq/contracts/v0.8/tests/FlagsTestHelper.sol",
  "compiler": {
    "name": "solc",
    "version": "0.8.3+commit.8d00100c.Emscripten.clang"
  },
  "schemaVersion": "3.4.1",
  "updatedAt": "2021-09-09T15:04:27.023Z",
  "devdoc": {
    "kind": "dev",
    "methods": {},
    "version": 1
  },
  "userdoc": {
    "kind": "user",
    "methods": {},
    "version": 1
  }
}