{
  "contractName": "MockAggregatorValidator",
  "abi": [
    {
      "inputs": [
        {
          "internalType": "uint8",
          "name": "id_",
          "type": "uint8"
        }
      ],
      "stateMutability": "nonpayable",
      "type": "constructor"
    },
    {
      "anonymous": false,
      "inputs": [
        {
          "indexed": false,
          "internalType": "uint8",
          "name": "id",
          "type": "uint8"
        },
        {
          "indexed": false,
          "internalType": "uint256",
          "name": "previousRoundId",
          "type": "uint256"
        },
        {
          "indexed": false,
          "internalType": "int256",
          "name": "previousAnswer",
          "type": "int256"
        },
        {
          "indexed": false,
          "internalType": "uint256",
          "name": "currentRoundId",
          "type": "uint256"
        },
        {
          "indexed": false,
          "internalType": "int256",
          "name": "currentAnswer",
          "type": "int256"
        }
      ],
      "name": "ValidateCalled",
      "type": "event"
    },
    {
      "inputs": [
        {
          "internalType": "uint256",
          "name": "previousRoundId",
          "type": "uint256"
        },
        {
          "internalType": "int256",
          "name": "previousAnswer",
          "type": "int256"
        },
        {
          "internalType": "uint256",
          "name": "currentRoundId",
          "type": "uint256"
        },
        {
          "internalType": "int256",
          "name": "currentAnswer",
          "type": "int256"
        }
      ],
      "name": "validate",
      "outputs": [
        {
          "internalType": "bool",
          "name": "",
          "type": "bool"
        }
      ],
      "stateMutability": "nonpayable",
      "type": "function"
    }
  ],
  "bytecode": "0x60a060405234801561001057600080fd5b506040516101df3803806101df83398101604081905261002f9161005c565b60f81b7fff0000000000000000000000000000000000000000000000000000000000000016608052610084565b60006020828403121561006d578081fd5b815160ff8116811461007d578182fd5b9392505050565b60805160f81c61013e6100a16000396000605f015261013e6000f3fe608060405234801561001057600080fd5b506004361061002b5760003560e01c8063beed9b5114610030575b600080fd5b61004361003e3660046100d7565b610057565b604051901515815260200160405180910390f35b6040805160ff7f00000000000000000000000000000000000000000000000000000000000000001681526020810186905290810184905260608101839052608081018290526000907f9ef8f58acca419d2e95bed9bdae0cb763fe14db033353f206cded59ef3359d5d9060a00160405180910390a1506001949350505050565b600080600080608085870312156100ec578384fd5b505082359460208401359450604084013593606001359250905056fea26469706673582212201db0665d623d080240a58238641eaa6fdf9262a08799a7a956208fe0f1252b2264736f6c63430008030033",
  "immutableReferences": {
    "7949": [
      {
        "length": 32,
        "start": 95
      }
    ]
  },
  "source": "// SPDX-License-Identifier: MIT\npragma solidity ^0.8.0;\n\nimport \"../interfaces/AggregatorValidatorInterface.sol\";\n\ncontract MockAggregatorValidator is AggregatorValidatorInterface {\n  \n  uint8 immutable id;\n\n  constructor(uint8 id_) {\n    id = id_;\n  }\n\n  event ValidateCalled(\n    uint8 id,\n    uint256 previousRoundId,\n    int256 previousAnswer,\n    uint256 currentRoundId,\n    int256 currentAnswer\n  );\n  \n  function validate(\n    uint256 previousRoundId,\n    int256 previousAnswer,\n    uint256 currentRoundId,\n    int256 currentAnswer\n  )\n    external\n    override\n    returns (\n      bool\n    )\n  {\n    emit ValidateCalled(id, previousRoundId, previousAnswer, currentRoundId, currentAnswer);\n    return true;\n  }\n\n}",
  "sourcePath": "/home/rol/Desktop/spadeQ-lott/spadeq/contracts/v0.8/mocks/MockAggregatorValidator.sol",
  "compiler": {
    "name": "solc",
    "version": "0.8.3+commit.8d00100c.Emscripten.clang"
  },
  "schemaVersion": "3.4.1",
  "updatedAt": "2021-09-09T15:04:27.022Z",
  "devdoc": {
    "kind": "dev",
    "methods": {},
    "version": 1
  },
  "userdoc": {
    "kind": "user",
    "methods": {},
    "version": 1
  }
}