{
  "contractName": "MockAggregator",
  "abi": [
    {
      "inputs": [],
      "name": "s_answer",
      "outputs": [
        {
          "internalType": "int256",
          "name": "",
          "type": "int256"
        }
      ],
      "stateMutability": "view",
      "type": "function"
    },
    {
      "inputs": [
        {
          "internalType": "int256",
          "name": "answer",
          "type": "int256"
        }
      ],
      "name": "setLatestAnswer",
      "outputs": [],
      "stateMutability": "nonpayable",
      "type": "function"
    },
    {
      "inputs": [],
      "name": "latestAnswer",
      "outputs": [
        {
          "internalType": "int256",
          "name": "",
          "type": "int256"
        }
      ],
      "stateMutability": "view",
      "type": "function"
    }
  ],
  "bytecode": "0x608060405234801561001057600080fd5b5060c18061001f6000396000f3fe6080604052348015600f57600080fd5b5060043610603c5760003560e01c806304ea97b0146041578063305da2db14605357806350d25bcd14606d575b600080fd5b6051604c3660046074565b600055565b005b605b60005481565b60405190815260200160405180910390f35b600054605b565b6000602082840312156084578081fd5b503591905056fea26469706673582212204cde5cbd6d13811c2c444327cb381215da6b1083d579b0f6e1672954a25d162b64736f6c63430008030033",
  "immutableReferences": {},
  "source": "// SPDX-License-Identifier: MIT\npragma solidity ^0.8.0;\n\ncontract MockAggregator {\n\n  int256 public s_answer;\n\n  function setLatestAnswer(\n    int256 answer\n  )\n    public\n  {\n    s_answer = answer;\n  }\n  \n  function latestAnswer()\n    public\n    view\n    returns(\n      int256\n    )\n  {\n    return s_answer;\n  }\n}",
  "sourcePath": "/home/rol/Desktop/spadeQ-lott/spadeq/contracts/v0.8/mocks/MockAggregator.sol",
  "compiler": {
    "name": "solc",
    "version": "0.8.3+commit.8d00100c.Emscripten.clang"
  },
  "schemaVersion": "3.4.1",
  "updatedAt": "2021-09-09T15:04:27.021Z",
  "devdoc": {
    "kind": "dev",
    "methods": {},
    "version": 1
  },
  "userdoc": {
    "kind": "user",
    "methods": {},
    "version": 1
  }
}