{
  "contractName": "SimpleWriteAccessController",
  "abi": [
    {
      "inputs": [],
      "stateMutability": "nonpayable",
      "type": "constructor"
    },
    {
      "anonymous": false,
      "inputs": [
        {
          "indexed": false,
          "internalType": "address",
          "name": "user",
          "type": "address"
        }
      ],
      "name": "AddedAccess",
      "type": "event"
    },
    {
      "anonymous": false,
      "inputs": [],
      "name": "CheckAccessDisabled",
      "type": "event"
    },
    {
      "anonymous": false,
      "inputs": [],
      "name": "CheckAccessEnabled",
      "type": "event"
    },
    {
      "anonymous": false,
      "inputs": [
        {
          "indexed": true,
          "internalType": "address",
          "name": "from",
          "type": "address"
        },
        {
          "indexed": true,
          "internalType": "address",
          "name": "to",
          "type": "address"
        }
      ],
      "name": "OwnershipTransferRequested",
      "type": "event"
    },
    {
      "anonymous": false,
      "inputs": [
        {
          "indexed": true,
          "internalType": "address",
          "name": "from",
          "type": "address"
        },
        {
          "indexed": true,
          "internalType": "address",
          "name": "to",
          "type": "address"
        }
      ],
      "name": "OwnershipTransferred",
      "type": "event"
    },
    {
      "anonymous": false,
      "inputs": [
        {
          "indexed": false,
          "internalType": "address",
          "name": "user",
          "type": "address"
        }
      ],
      "name": "RemovedAccess",
      "type": "event"
    },
    {
      "inputs": [],
      "name": "acceptOwnership",
      "outputs": [],
      "stateMutability": "nonpayable",
      "type": "function"
    },
    {
      "inputs": [],
      "name": "checkEnabled",
      "outputs": [
        {
          "internalType": "bool",
          "name": "",
          "type": "bool"
        }
      ],
      "stateMutability": "view",
      "type": "function"
    },
    {
      "inputs": [],
      "name": "owner",
      "outputs": [
        {
          "internalType": "address",
          "name": "",
          "type": "address"
        }
      ],
      "stateMutability": "view",
      "type": "function"
    },
    {
      "inputs": [
        {
          "internalType": "address",
          "name": "to",
          "type": "address"
        }
      ],
      "name": "transferOwnership",
      "outputs": [],
      "stateMutability": "nonpayable",
      "type": "function"
    },
    {
      "inputs": [
        {
          "internalType": "address",
          "name": "_user",
          "type": "address"
        },
        {
          "internalType": "bytes",
          "name": "",
          "type": "bytes"
        }
      ],
      "name": "hasAccess",
      "outputs": [
        {
          "internalType": "bool",
          "name": "",
          "type": "bool"
        }
      ],
      "stateMutability": "view",
      "type": "function"
    },
    {
      "inputs": [
        {
          "internalType": "address",
          "name": "_user",
          "type": "address"
        }
      ],
      "name": "addAccess",
      "outputs": [],
      "stateMutability": "nonpayable",
      "type": "function"
    },
    {
      "inputs": [
        {
          "internalType": "address",
          "name": "_user",
          "type": "address"
        }
      ],
      "name": "removeAccess",
      "outputs": [],
      "stateMutability": "nonpayable",
      "type": "function"
    },
    {
      "inputs": [],
      "name": "enableAccessCheck",
      "outputs": [],
      "stateMutability": "nonpayable",
      "type": "function"
    },
    {
      "inputs": [],
      "name": "disableAccessCheck",
      "outputs": [],
      "stateMutability": "nonpayable",
      "type": "function"
    }
  ],
  "bytecode": "0x608060405234801561001057600080fd5b5033806000816100675760405162461bcd60e51b815260206004820152601860248201527f43616e6e6f7420736574206f776e657220746f207a65726f000000000000000060448201526064015b60405180910390fd5b600080546001600160a01b0319166001600160a01b038481169190911790915581161561009757610097816100b2565b50506001805460ff60a01b1916600160a01b1790555061015c565b6001600160a01b03811633141561010b5760405162461bcd60e51b815260206004820152601760248201527f43616e6e6f74207472616e7366657220746f2073656c66000000000000000000604482015260640161005e565b600180546001600160a01b0319166001600160a01b0383811691821790925560008054604051929316917fed8889f560326eb138920d842192f0eb3dd22b4f139c87a2c57538e05bae12789190a350565b6106bb8061016b6000396000f3fe608060405234801561001057600080fd5b50600436106100a35760003560e01c80638823da6c11610076578063a118f2491161005b578063a118f24914610118578063dc7f01241461012b578063f2fde38b1461013f576100a3565b80638823da6c146100ea5780638da5cb5b146100fd576100a3565b80630a756983146100a85780636b14daf8146100b257806379ba5097146100da5780638038e4a1146100e2575b600080fd5b6100b0610152565b005b6100c56100c0366004610599565b6101c0565b60405190151581526020015b60405180910390f35b6100b06101f8565b6100b06102c6565b6100b06100f836600461057f565b610338565b6000546040516001600160a01b0390911681526020016100d1565b6100b061012636600461057f565b6103ba565b6001546100c590600160a01b900460ff1681565b6100b061014d36600461057f565b610436565b61015a610447565b600154600160a01b900460ff16156101be57600180547fffffffffffffffffffffff00ffffffffffffffffffffffffffffffffffffffff1690556040517f3be8a977a014527b50ae38adda80b56911c267328965c98ddc385d248f53963890600090a15b565b6001600160a01b03821660009081526002602052604081205460ff16806101f15750600154600160a01b900460ff16155b9392505050565b6001546001600160a01b031633146102575760405162461bcd60e51b815260206004820152601660248201527f4d7573742062652070726f706f736564206f776e65720000000000000000000060448201526064015b60405180910390fd5b60008054337fffffffffffffffffffffffff0000000000000000000000000000000000000000808316821784556001805490911690556040516001600160a01b0390921692909183917f8be0079c531659141344cd1fd0a4f28419497f9722a3daafe3b4186f6b6457e091a350565b6102ce610447565b600154600160a01b900460ff166101be57600180547fffffffffffffffffffffff00ffffffffffffffffffffffffffffffffffffffff16600160a01b1790556040517faebf329500988c6488a0074e5a0a9ff304561fc5c6fc877aeb1d59c8282c348090600090a1565b610340610447565b6001600160a01b03811660009081526002602052604090205460ff16156103b7576001600160a01b038116600081815260026020908152604091829020805460ff1916905590519182527f3d68a6fce901d20453d1a7aa06bf3950302a735948037deb182a8db66df2a0d191015b60405180910390a15b50565b6103c2610447565b6001600160a01b03811660009081526002602052604090205460ff166103b7576001600160a01b038116600081815260026020908152604091829020805460ff1916600117905590519182527f87286ad1f399c8e82bf0c4ef4fcdc570ea2e1e92176e5c848b6413545b885db491016103ae565b61043e610447565b6103b7816104a1565b6000546001600160a01b031633146101be5760405162461bcd60e51b815260206004820152601660248201527f4f6e6c792063616c6c61626c65206279206f776e657200000000000000000000604482015260640161024e565b6001600160a01b0381163314156104fa5760405162461bcd60e51b815260206004820152601760248201527f43616e6e6f74207472616e7366657220746f2073656c66000000000000000000604482015260640161024e565b600180547fffffffffffffffffffffffff0000000000000000000000000000000000000000166001600160a01b0383811691821790925560008054604051929316917fed8889f560326eb138920d842192f0eb3dd22b4f139c87a2c57538e05bae12789190a350565b80356001600160a01b038116811461057a57600080fd5b919050565b600060208284031215610590578081fd5b6101f182610563565b600080604083850312156105ab578081fd5b6105b483610563565b9150602083013567ffffffffffffffff808211156105d0578283fd5b818501915085601f8301126105e3578283fd5b8135818111156105f5576105f5610656565b604051601f8201601f19908116603f0116810190838211818310171561061d5761061d610656565b81604052828152886020848701011115610635578586fd5b82602086016020830137856020848301015280955050505050509250929050565b7f4e487b7100000000000000000000000000000000000000000000000000000000600052604160045260246000fdfea2646970667358221220185cd0a2c4db45e6bb789997d9ca80079a48ea9e493b4d437293960baaa1f0bc64736f6c63430008030033",
  "immutableReferences": {},
  "source": "// SPDX-License-Identifier: MIT\npragma solidity ^0.8.0;\n\nimport \"./ConfirmedOwner.sol\";\nimport \"./interfaces/AccessControllerInterface.sol\";\n\n/**\n * @title SimpleWriteAccessController\n * @notice Gives access to accounts explicitly added to an access list by the\n * controller's owner.\n * @dev does not make any special permissions for externally, see\n * SimpleReadAccessController for that.\n */\ncontract SimpleWriteAccessController is AccessControllerInterface, ConfirmedOwner {\n\n  bool public checkEnabled;\n  mapping(address => bool) internal accessList;\n\n  event AddedAccess(address user);\n  event RemovedAccess(address user);\n  event CheckAccessEnabled();\n  event CheckAccessDisabled();\n\n  constructor() \n    ConfirmedOwner(msg.sender) \n  {\n    checkEnabled = true;\n  }\n\n  /**\n   * @notice Returns the access of an address\n   * @param _user The address to query\n   */\n  function hasAccess(\n    address _user,\n    bytes memory\n  )\n    public\n    view\n    virtual\n    override\n    returns (bool)\n  {\n    return accessList[_user] || !checkEnabled;\n  }\n\n  /**\n   * @notice Adds an address to the access list\n   * @param _user The address to add\n   */\n  function addAccess(address _user)\n    external\n    onlyOwner()\n  {\n    if (!accessList[_user]) {\n      accessList[_user] = true;\n\n      emit AddedAccess(_user);\n    }\n  }\n\n  /**\n   * @notice Removes an address from the access list\n   * @param _user The address to remove\n   */\n  function removeAccess(address _user)\n    external\n    onlyOwner()\n  {\n    if (accessList[_user]) {\n      accessList[_user] = false;\n\n      emit RemovedAccess(_user);\n    }\n  }\n\n  /**\n   * @notice makes the access check enforced\n   */\n  function enableAccessCheck()\n    external\n    onlyOwner()\n  {\n    if (!checkEnabled) {\n      checkEnabled = true;\n\n      emit CheckAccessEnabled();\n    }\n  }\n\n  /**\n   * @notice makes the access check unenforced\n   */\n  function disableAccessCheck()\n    external\n    onlyOwner()\n  {\n    if (checkEnabled) {\n      checkEnabled = false;\n\n      emit CheckAccessDisabled();\n    }\n  }\n\n  /**\n   * @dev reverts if the caller does not have access\n   */\n  modifier checkAccess() {\n    require(hasAccess(msg.sender, msg.data), \"No access\");\n    _;\n  }\n}\n",
  "sourcePath": "/home/rol/Desktop/spadeQ-lott/spadeq/contracts/v0.8/SimpleWriteAccessController.sol",
  "compiler": {
    "name": "solc",
    "version": "0.8.3+commit.8d00100c.Emscripten.clang"
  },
  "schemaVersion": "3.4.1",
  "updatedAt": "2021-09-09T15:04:27.000Z",
  "devdoc": {
    "details": "does not make any special permissions for externally, see SimpleReadAccessController for that.",
    "kind": "dev",
    "methods": {
      "addAccess(address)": {
        "params": {
          "_user": "The address to add"
        }
      },
      "hasAccess(address,bytes)": {
        "params": {
          "_user": "The address to query"
        }
      },
      "removeAccess(address)": {
        "params": {
          "_user": "The address to remove"
        }
      }
    },
    "title": "SimpleWriteAccessController",
    "version": 1
  },
  "userdoc": {
    "kind": "user",
    "methods": {
      "acceptOwnership()": {
        "notice": "Allows an ownership transfer to be completed by the recipient."
      },
      "addAccess(address)": {
        "notice": "Adds an address to the access list"
      },
      "disableAccessCheck()": {
        "notice": "makes the access check unenforced"
      },
      "enableAccessCheck()": {
        "notice": "makes the access check enforced"
      },
      "hasAccess(address,bytes)": {
        "notice": "Returns the access of an address"
      },
      "owner()": {
        "notice": "Get the current owner"
      },
      "removeAccess(address)": {
        "notice": "Removes an address from the access list"
      },
      "transferOwnership(address)": {
        "notice": "Allows an owner to begin transferring ownership to a new address, pending."
      }
    },
    "notice": "Gives access to accounts explicitly added to an access list by the controller's owner.",
    "version": 1
  }
}