{
  "contractName": "SpadeQ",
  "abi": [
    {
      "inputs": [
        {
          "internalType": "address payable",
          "name": "marketingWallet",
          "type": "address"
        }
      ],
      "stateMutability": "nonpayable",
      "type": "constructor"
    },
    {
      "anonymous": false,
      "inputs": [
        {
          "indexed": true,
          "internalType": "address",
          "name": "owner",
          "type": "address"
        },
        {
          "indexed": true,
          "internalType": "address",
          "name": "spender",
          "type": "address"
        },
        {
          "indexed": false,
          "internalType": "uint256",
          "name": "value",
          "type": "uint256"
        }
      ],
      "name": "Approval",
      "type": "event"
    },
    {
      "anonymous": false,
      "inputs": [
        {
          "indexed": true,
          "internalType": "address",
          "name": "previousOwner",
          "type": "address"
        },
        {
          "indexed": true,
          "internalType": "address",
          "name": "newOwner",
          "type": "address"
        }
      ],
      "name": "OwnershipTransferred",
      "type": "event"
    },
    {
      "anonymous": false,
      "inputs": [
        {
          "indexed": false,
          "internalType": "uint256",
          "name": "tokensSwapped",
          "type": "uint256"
        },
        {
          "indexed": false,
          "internalType": "uint256",
          "name": "ethReceived",
          "type": "uint256"
        },
        {
          "indexed": false,
          "internalType": "uint256",
          "name": "tokensIntoLiqudity",
          "type": "uint256"
        }
      ],
      "name": "SwapAndLiquify",
      "type": "event"
    },
    {
      "anonymous": false,
      "inputs": [
        {
          "indexed": false,
          "internalType": "bool",
          "name": "enabled",
          "type": "bool"
        }
      ],
      "name": "SwapAndLiquifyEnabledUpdated",
      "type": "event"
    },
    {
      "anonymous": false,
      "inputs": [
        {
          "indexed": true,
          "internalType": "address",
          "name": "from",
          "type": "address"
        },
        {
          "indexed": true,
          "internalType": "address",
          "name": "to",
          "type": "address"
        },
        {
          "indexed": false,
          "internalType": "uint256",
          "name": "value",
          "type": "uint256"
        }
      ],
      "name": "Transfer",
      "type": "event"
    },
    {
      "inputs": [],
      "name": "_burnFee",
      "outputs": [
        {
          "internalType": "uint256",
          "name": "",
          "type": "uint256"
        }
      ],
      "stateMutability": "view",
      "type": "function",
      "constant": true
    },
    {
      "inputs": [],
      "name": "_liquidityFee",
      "outputs": [
        {
          "internalType": "uint256",
          "name": "",
          "type": "uint256"
        }
      ],
      "stateMutability": "view",
      "type": "function",
      "constant": true
    },
    {
      "inputs": [],
      "name": "_marketingFee",
      "outputs": [
        {
          "internalType": "uint256",
          "name": "",
          "type": "uint256"
        }
      ],
      "stateMutability": "view",
      "type": "function",
      "constant": true
    },
    {
      "inputs": [],
      "name": "_taxFee",
      "outputs": [
        {
          "internalType": "uint256",
          "name": "",
          "type": "uint256"
        }
      ],
      "stateMutability": "view",
      "type": "function",
      "constant": true
    },
    {
      "inputs": [],
      "name": "deadAddress",
      "outputs": [
        {
          "internalType": "address",
          "name": "",
          "type": "address"
        }
      ],
      "stateMutability": "view",
      "type": "function",
      "constant": true
    },
    {
      "inputs": [],
      "name": "maxTxAmount",
      "outputs": [
        {
          "internalType": "uint256",
          "name": "",
          "type": "uint256"
        }
      ],
      "stateMutability": "view",
      "type": "function",
      "constant": true
    },
    {
      "inputs": [],
      "name": "owner",
      "outputs": [
        {
          "internalType": "address",
          "name": "",
          "type": "address"
        }
      ],
      "stateMutability": "view",
      "type": "function",
      "constant": true
    },
    {
      "inputs": [],
      "name": "renounceOwnership",
      "outputs": [],
      "stateMutability": "nonpayable",
      "type": "function"
    },
    {
      "inputs": [],
      "name": "swapAndLiquifyEnabled",
      "outputs": [
        {
          "internalType": "bool",
          "name": "",
          "type": "bool"
        }
      ],
      "stateMutability": "view",
      "type": "function",
      "constant": true
    },
    {
      "inputs": [],
      "name": "tracker",
      "outputs": [
        {
          "internalType": "contract BetTracker",
          "name": "",
          "type": "address"
        }
      ],
      "stateMutability": "view",
      "type": "function",
      "constant": true
    },
    {
      "inputs": [
        {
          "internalType": "address",
          "name": "newOwner",
          "type": "address"
        }
      ],
      "name": "transferOwnership",
      "outputs": [],
      "stateMutability": "nonpayable",
      "type": "function"
    },
    {
      "inputs": [],
      "name": "uniswapV2Pair",
      "outputs": [
        {
          "internalType": "address",
          "name": "",
          "type": "address"
        }
      ],
      "stateMutability": "view",
      "type": "function",
      "constant": true
    },
    {
      "inputs": [],
      "name": "uniswapV2Router",
      "outputs": [
        {
          "internalType": "contract IUniswapV2Router02",
          "name": "",
          "type": "address"
        }
      ],
      "stateMutability": "view",
      "type": "function",
      "constant": true
    },
    {
      "stateMutability": "payable",
      "type": "receive",
      "payable": true
    },
    {
      "inputs": [
        {
          "internalType": "address",
          "name": "_tracker",
          "type": "address"
        }
      ],
      "name": "setTracker",
      "outputs": [],
      "stateMutability": "nonpayable",
      "type": "function"
    },
    {
      "inputs": [],
      "name": "name",
      "outputs": [
        {
          "internalType": "string",
          "name": "",
          "type": "string"
        }
      ],
      "stateMutability": "view",
      "type": "function",
      "constant": true
    },
    {
      "inputs": [],
      "name": "symbol",
      "outputs": [
        {
          "internalType": "string",
          "name": "",
          "type": "string"
        }
      ],
      "stateMutability": "view",
      "type": "function",
      "constant": true
    },
    {
      "inputs": [],
      "name": "decimals",
      "outputs": [
        {
          "internalType": "uint8",
          "name": "",
          "type": "uint8"
        }
      ],
      "stateMutability": "view",
      "type": "function",
      "constant": true
    },
    {
      "inputs": [],
      "name": "totalSupply",
      "outputs": [
        {
          "internalType": "uint256",
          "name": "",
          "type": "uint256"
        }
      ],
      "stateMutability": "view",
      "type": "function",
      "constant": true
    },
    {
      "inputs": [
        {
          "internalType": "address",
          "name": "account",
          "type": "address"
        }
      ],
      "name": "balanceOf",
      "outputs": [
        {
          "internalType": "uint256",
          "name": "",
          "type": "uint256"
        }
      ],
      "stateMutability": "view",
      "type": "function",
      "constant": true
    },
    {
      "inputs": [
        {
          "internalType": "address",
          "name": "recipient",
          "type": "address"
        },
        {
          "internalType": "uint256",
          "name": "amount",
          "type": "uint256"
        }
      ],
      "name": "transfer",
      "outputs": [
        {
          "internalType": "bool",
          "name": "",
          "type": "bool"
        }
      ],
      "stateMutability": "nonpayable",
      "type": "function"
    },
    {
      "inputs": [
        {
          "internalType": "address",
          "name": "pair",
          "type": "address"
        }
      ],
      "name": "updatePair",
      "outputs": [],
      "stateMutability": "nonpayable",
      "type": "function"
    },
    {
      "inputs": [
        {
          "internalType": "address",
          "name": "owner",
          "type": "address"
        },
        {
          "internalType": "address",
          "name": "spender",
          "type": "address"
        }
      ],
      "name": "allowance",
      "outputs": [
        {
          "internalType": "uint256",
          "name": "",
          "type": "uint256"
        }
      ],
      "stateMutability": "view",
      "type": "function",
      "constant": true
    },
    {
      "inputs": [
        {
          "internalType": "address",
          "name": "spender",
          "type": "address"
        },
        {
          "internalType": "uint256",
          "name": "amount",
          "type": "uint256"
        }
      ],
      "name": "approve",
      "outputs": [
        {
          "internalType": "bool",
          "name": "",
          "type": "bool"
        }
      ],
      "stateMutability": "nonpayable",
      "type": "function"
    },
    {
      "inputs": [],
      "name": "manualSwap",
      "outputs": [],
      "stateMutability": "nonpayable",
      "type": "function"
    },
    {
      "inputs": [],
      "name": "manualSend",
      "outputs": [],
      "stateMutability": "nonpayable",
      "type": "function"
    },
    {
      "inputs": [
        {
          "internalType": "address",
          "name": "sender",
          "type": "address"
        },
        {
          "internalType": "address",
          "name": "recipient",
          "type": "address"
        },
        {
          "internalType": "uint256",
          "name": "amount",
          "type": "uint256"
        }
      ],
      "name": "transferFrom",
      "outputs": [
        {
          "internalType": "bool",
          "name": "",
          "type": "bool"
        }
      ],
      "stateMutability": "nonpayable",
      "type": "function"
    },
    {
      "inputs": [
        {
          "internalType": "address",
          "name": "spender",
          "type": "address"
        },
        {
          "internalType": "uint256",
          "name": "addedValue",
          "type": "uint256"
        }
      ],
      "name": "increaseAllowance",
      "outputs": [
        {
          "internalType": "bool",
          "name": "",
          "type": "bool"
        }
      ],
      "stateMutability": "nonpayable",
      "type": "function"
    },
    {
      "inputs": [
        {
          "internalType": "address",
          "name": "spender",
          "type": "address"
        },
        {
          "internalType": "uint256",
          "name": "subtractedValue",
          "type": "uint256"
        }
      ],
      "name": "decreaseAllowance",
      "outputs": [
        {
          "internalType": "bool",
          "name": "",
          "type": "bool"
        }
      ],
      "stateMutability": "nonpayable",
      "type": "function"
    },
    {
      "inputs": [],
      "name": "rescueBNBFromContract",
      "outputs": [],
      "stateMutability": "nonpayable",
      "type": "function"
    },
    {
      "inputs": [
        {
          "internalType": "address",
          "name": "account",
          "type": "address"
        }
      ],
      "name": "isExcludedFromReward",
      "outputs": [
        {
          "internalType": "bool",
          "name": "",
          "type": "bool"
        }
      ],
      "stateMutability": "view",
      "type": "function",
      "constant": true
    },
    {
      "inputs": [],
      "name": "totalFees",
      "outputs": [
        {
          "internalType": "uint256",
          "name": "",
          "type": "uint256"
        }
      ],
      "stateMutability": "view",
      "type": "function",
      "constant": true
    },
    {
      "inputs": [
        {
          "internalType": "address",
          "name": "newRouter",
          "type": "address"
        }
      ],
      "name": "setRouterAddress",
      "outputs": [],
      "stateMutability": "nonpayable",
      "type": "function"
    },
    {
      "inputs": [
        {
          "internalType": "address payable",
          "name": "marketingWallet",
          "type": "address"
        }
      ],
      "name": "setMarketingWallet",
      "outputs": [],
      "stateMutability": "nonpayable",
      "type": "function"
    },
    {
      "inputs": [
        {
          "internalType": "uint256",
          "name": "tAmount",
          "type": "uint256"
        }
      ],
      "name": "deliver",
      "outputs": [],
      "stateMutability": "nonpayable",
      "type": "function"
    },
    {
      "inputs": [
        {
          "internalType": "uint256",
          "name": "tAmount",
          "type": "uint256"
        },
        {
          "internalType": "bool",
          "name": "deductTransferFee",
          "type": "bool"
        }
      ],
      "name": "reflectionFromToken",
      "outputs": [
        {
          "internalType": "uint256",
          "name": "",
          "type": "uint256"
        }
      ],
      "stateMutability": "view",
      "type": "function",
      "constant": true
    },
    {
      "inputs": [
        {
          "internalType": "uint256",
          "name": "rAmount",
          "type": "uint256"
        }
      ],
      "name": "tokenFromReflection",
      "outputs": [
        {
          "internalType": "uint256",
          "name": "",
          "type": "uint256"
        }
      ],
      "stateMutability": "view",
      "type": "function",
      "constant": true
    },
    {
      "inputs": [
        {
          "internalType": "address",
          "name": "account",
          "type": "address"
        }
      ],
      "name": "excludeFromReward",
      "outputs": [],
      "stateMutability": "nonpayable",
      "type": "function"
    },
    {
      "inputs": [
        {
          "internalType": "address",
          "name": "account",
          "type": "address"
        }
      ],
      "name": "includeInReward",
      "outputs": [],
      "stateMutability": "nonpayable",
      "type": "function"
    },
    {
      "inputs": [
        {
          "internalType": "address",
          "name": "account",
          "type": "address"
        }
      ],
      "name": "excludeFromFee",
      "outputs": [],
      "stateMutability": "nonpayable",
      "type": "function"
    },
    {
      "inputs": [
        {
          "internalType": "address",
          "name": "account",
          "type": "address"
        }
      ],
      "name": "includeInFee",
      "outputs": [],
      "stateMutability": "nonpayable",
      "type": "function"
    },
    {
      "inputs": [
        {
          "internalType": "uint256",
          "name": "taxFee",
          "type": "uint256"
        }
      ],
      "name": "setTaxFeePercent",
      "outputs": [],
      "stateMutability": "nonpayable",
      "type": "function"
    },
    {
      "inputs": [
        {
          "internalType": "uint256",
          "name": "marketingFee",
          "type": "uint256"
        }
      ],
      "name": "setMarketingFeePercent",
      "outputs": [],
      "stateMutability": "nonpayable",
      "type": "function"
    },
    {
      "inputs": [
        {
          "internalType": "uint256",
          "name": "liquidityFee",
          "type": "uint256"
        }
      ],
      "name": "setLiquidityFeePercent",
      "outputs": [],
      "stateMutability": "nonpayable",
      "type": "function"
    },
    {
      "inputs": [
        {
          "internalType": "uint256",
          "name": "burnFee",
          "type": "uint256"
        }
      ],
      "name": "setBurnFeePercent",
      "outputs": [],
      "stateMutability": "nonpayable",
      "type": "function"
    },
    {
      "inputs": [
        {
          "internalType": "bool",
          "name": "_enabled",
          "type": "bool"
        }
      ],
      "name": "setSwapAndLiquifyEnabled",
      "outputs": [],
      "stateMutability": "nonpayable",
      "type": "function"
    },
    {
      "inputs": [
        {
          "internalType": "uint256",
          "name": "amount",
          "type": "uint256"
        }
      ],
      "name": "setNumTokensTosSwap",
      "outputs": [],
      "stateMutability": "nonpayable",
      "type": "function"
    },
    {
      "inputs": [
        {
          "internalType": "uint256",
          "name": "amount",
          "type": "uint256"
        }
      ],
      "name": "setMaxTxAmount",
      "outputs": [],
      "stateMutability": "nonpayable",
      "type": "function"
    },
    {
      "inputs": [
        {
          "internalType": "address",
          "name": "_tokenAddr",
          "type": "address"
        },
        {
          "internalType": "address",
          "name": "_to",
          "type": "address"
        },
        {
          "internalType": "uint256",
          "name": "_amount",
          "type": "uint256"
        }
      ],
      "name": "transferAnyBEP20Tokens",
      "outputs": [],
      "stateMutability": "nonpayable",
      "type": "function"
    },
    {
      "inputs": [
        {
          "internalType": "address",
          "name": "account",
          "type": "address"
        }
      ],
      "name": "isExcludedFromFee",
      "outputs": [
        {
          "internalType": "bool",
          "name": "",
          "type": "bool"
        }
      ],
      "stateMutability": "view",
      "type": "function",
      "constant": true
    }
  ],
  "bytecode": "0x60a06040526ddead00000000000000000000000060805269d3c21bcecceda1000000600881905562000034906000196200071e565b6200004290600019620006c7565b6009556040805180820190915260038082526273707960e81b60209092019182526200007191600b9162000573565b506040805180820190915260038082526273705960e81b60209092019182526200009e91600c9162000573565b50600d805460ff191660091790556003600e819055600f819055601081905560115560026012819055601381905560158190556016556018805460ff60a81b1916600160a81b179055670429d069189e00006019556008546200012e906064906200011a90600162001e3062000459602090811b91909117901c565b620004ed60201b62001ed21790919060201c565b601a553480156200013e57600080fd5b5060405162003d3f38038062003d3f833981016040819052620001619162000619565b600080546001600160a01b031916339081178255604051909182917f8be0079c531659141344cd1fd0a4f28419497f9722a3daafe3b4186f6b6457e0908290a3506009543360009081526001602090815260409182902092909255805163c45a015560e01b8152905173d99d1c33f9fc3444f8101754abc46c52416550d192839263c45a01559260048083019392829003018186803b1580156200020457600080fd5b505afa15801562000219573d6000803e3d6000fd5b505050506040513d601f19601f820116820180604052508101906200023f919062000619565b6001600160a01b031663c9c6539630836001600160a01b031663ad5c46486040518163ffffffff1660e01b815260040160206040518083038186803b1580156200028857600080fd5b505afa1580156200029d573d6000803e3d6000fd5b505050506040513d601f19601f82011682018060405250810190620002c3919062000619565b6040516001600160e01b031960e085901b1681526001600160a01b03928316600482015291166024820152604401602060405180830381600087803b1580156200030c57600080fd5b505af115801562000321573d6000803e3d6000fd5b505050506040513d601f19601f8201168201806040525081019062000347919062000619565b601880546001600160a01b03199081166001600160a01b0393841617909155601780549091169183169190911790556001600460006200038f6000546001600160a01b031690565b6001600160a01b03908116825260208083019390935260409182016000908120805495151560ff199687161790559086168082526004909352818120805485166001908117909155308252919020805490931617909155601480546001600160a01b0319169091179055620004013390565b6001600160a01b031660006001600160a01b03167fddf252ad1be2c89b69c2b068fc378daa952ba7f163c4a11628f55a4df523b3ef6008546040516200044991815260200190565b60405180910390a350506200077a565b6000826200046a57506000620004e7565b6000620004788385620006a5565b9050826200048785836200068e565b14620004e45760405162461bcd60e51b815260206004820152602160248201527f536166654d6174683a206d756c7469706c69636174696f6e206f766572666c6f6044820152607760f81b60648201526084015b60405180910390fd5b90505b92915050565b6000620004e483836040518060400160405280601a81526020017f536166654d6174683a206469766973696f6e206279207a65726f0000000000008152506200053760201b60201c565b600081836200055b5760405162461bcd60e51b8152600401620004db919062000638565b5060006200056a84866200068e565b95945050505050565b8280546200058190620006e1565b90600052602060002090601f016020900481019282620005a55760008555620005f0565b82601f10620005c057805160ff1916838001178555620005f0565b82800160010185558215620005f0579182015b82811115620005f0578251825591602001919060010190620005d3565b50620005fe92915062000602565b5090565b5b80821115620005fe576000815560010162000603565b6000602082840312156200062b578081fd5b8151620004e48162000761565b6000602080835283518082850152825b81811015620006665785810183015185820160400152820162000648565b81811115620006785783604083870101525b50601f01601f1916929092016040019392505050565b600082620006a057620006a06200074b565b500490565b6000816000190483118215151615620006c257620006c262000735565b500290565b600082821015620006dc57620006dc62000735565b500390565b600181811c90821680620006f657607f821691505b602082108114156200071857634e487b7160e01b600052602260045260246000fd5b50919050565b6000826200073057620007306200074b565b500690565b634e487b7160e01b600052601160045260246000fd5b634e487b7160e01b600052601260045260246000fd5b6001600160a01b03811681146200077757600080fd5b50565b60805160601c61359f620007a0600039600081816104bf01526129b0015261359f6000f3fe6080604052600436106103225760003560e01c806351bc3c85116101a557806391abf76c116100ec578063cea2695811610095578063ec28438a1161006f578063ec28438a14610906578063f2fde38b14610926578063f429389014610946578063f52bccad1461095b57610329565b8063cea2695814610880578063dd62ed3e146108a0578063ea2f0b37146108e657610329565b8063a9059cbb116100c6578063a9059cbb1461082a578063c0b0fda21461084a578063c49b9a801461086057610329565b806391abf76c146107d557806395d89b41146107f5578063a457c2d71461080a57610329565b806370a082311161014e5780638c0b5e22116101285780638c0b5e22146107815780638da5cb5b146107975780638ee88c53146107b557610329565b806370a0823114610713578063715018a61461073357806388f820201461074857610329565b80635d098b381161017f5780635d098b38146106c857806365e1d909146106e85780636bc87c3a146106fd57610329565b806351bc3c851461065a57806352390c021461066f5780635342acb41461068f57610329565b80632d8381191161026957806341cb87fc11610212578063457c194c116101ec578063457c194c146105f957806349bd5a5e146106195780634a74bb021461063957610329565b806341cb87fc14610599578063437823ec146105b95780634549b039146105d957610329565b8063395093511161024357806339509351146105435780633b124fe7146105635780633bd5d1731461057957610329565b80632d838119146104e1578063313ce567146105015780633685d4191461052357610329565b80631b56bbf9116102cb57806322976e0d116102a557806322976e0d1461047757806323b872dd1461048d57806327c8f835146104ad57610329565b80631b56bbf9146104175780631d8138131461043757806321645c851461045757610329565b806313114a9d116102fc57806313114a9d146103ab5780631694505e146103ca57806318160ddd1461040257610329565b8063061c82d01461032e57806306fdde0314610350578063095ea7b31461037b57610329565b3661032957005b600080fd5b34801561033a57600080fd5b5061034e6103493660046132d3565b61097b565b005b34801561035c57600080fd5b506103656109cd565b604051610372919061333c565b60405180910390f35b34801561038757600080fd5b5061039b610396366004613270565b610a5f565b6040519015158152602001610372565b3480156103b757600080fd5b50600a545b604051908152602001610372565b3480156103d657600080fd5b506017546103ea906001600160a01b031681565b6040516001600160a01b039091168152602001610372565b34801561040e57600080fd5b506008546103bc565b34801561042357600080fd5b5061034e6104323660046131c0565b610a76565b34801561044357600080fd5b5061034e610452366004613230565b610ae0565b34801561046357600080fd5b5061034e6104723660046132d3565b610c22565b34801561048357600080fd5b506103bc60155481565b34801561049957600080fd5b5061039b6104a8366004613230565b610c7e565b3480156104b957600080fd5b506103ea7f000000000000000000000000000000000000000000000000000000000000000081565b3480156104ed57600080fd5b506103bc6104fc3660046132d3565b610ce7565b34801561050d57600080fd5b50600d5460405160ff9091168152602001610372565b34801561052f57600080fd5b5061034e61053e3660046131c0565b610d80565b34801561054f57600080fd5b5061039b61055e366004613270565b610f8e565b34801561056f57600080fd5b506103bc600e5481565b34801561058557600080fd5b5061034e6105943660046132d3565b610fc4565b3480156105a557600080fd5b5061034e6105b43660046131c0565b6110c1565b3480156105c557600080fd5b5061034e6105d43660046131c0565b611495565b3480156105e557600080fd5b506103bc6105f43660046132eb565b611501565b34801561060557600080fd5b5061034e6106143660046132d3565b611590565b34801561062557600080fd5b506018546103ea906001600160a01b031681565b34801561064557600080fd5b5060185461039b90600160a81b900460ff1681565b34801561066657600080fd5b5061034e6115dd565b34801561067b57600080fd5b5061034e61068a3660046131c0565b61163e565b34801561069b57600080fd5b5061039b6106aa3660046131c0565b6001600160a01b031660009081526004602052604090205460ff1690565b3480156106d457600080fd5b5061034e6106e33660046131c0565b6117af565b3480156106f457600080fd5b5061034e611819565b34801561070957600080fd5b506103bc60105481565b34801561071f57600080fd5b506103bc61072e3660046131c0565b61188f565b34801561073f57600080fd5b5061034e6118f1565b34801561075457600080fd5b5061039b6107633660046131c0565b6001600160a01b031660009081526005602052604090205460ff1690565b34801561078d57600080fd5b506103bc601a5481565b3480156107a357600080fd5b506000546001600160a01b03166103ea565b3480156107c157600080fd5b5061034e6107d03660046132d3565b611983565b3480156107e157600080fd5b5061034e6107f03660046131c0565b6119d0565b34801561080157600080fd5b50610365611a86565b34801561081657600080fd5b5061039b610825366004613270565b611a95565b34801561083657600080fd5b5061039b610845366004613270565b611ae4565b34801561085657600080fd5b506103bc60125481565b34801561086c57600080fd5b5061034e61087b36600461329b565b611af1565b34801561088c57600080fd5b5061034e61089b3660046132d3565b611bac565b3480156108ac57600080fd5b506103bc6108bb3660046131f8565b6001600160a01b03918216600090815260036020908152604080832093909416825291909152205490565b3480156108f257600080fd5b5061034e6109013660046131c0565b611bf9565b34801561091257600080fd5b5061034e6109213660046132d3565b611c62565b34801561093257600080fd5b5061034e6109413660046131c0565b611cbe565b34801561095257600080fd5b5061034e611ddd565b34801561096757600080fd5b506007546103ea906001600160a01b031681565b6000546001600160a01b031633146109c85760405162461bcd60e51b8152602060048201819052602482015260008051602061352583398151915260448201526064015b60405180910390fd5b600e55565b6060600b80546109dc9061346d565b80601f0160208091040260200160405190810160405280929190818152602001828054610a089061346d565b8015610a555780601f10610a2a57610100808354040283529160200191610a55565b820191906000526020600020905b815481529060010190602001808311610a3857829003601f168201915b5050505050905090565b6000610a6c338484611f14565b5060015b92915050565b6000546001600160a01b03163314610abe5760405162461bcd60e51b8152602060048201819052602482015260008051602061352583398151915260448201526064016109bf565b601880546001600160a01b0319166001600160a01b0392909216919091179055565b6000546001600160a01b03163314610b285760405162461bcd60e51b8152602060048201819052602482015260008051602061352583398151915260448201526064016109bf565b6001600160a01b038316301415610b815760405162461bcd60e51b815260206004820152601860248201527f43616e6e6f74207472616e73666572206f75742057545721000000000000000060448201526064016109bf565b6040517fa9059cbb0000000000000000000000000000000000000000000000000000000081526001600160a01b0383811660048301526024820183905284169063a9059cbb90604401602060405180830381600087803b158015610be457600080fd5b505af1158015610bf8573d6000803e3d6000fd5b505050506040513d601f19601f82011682018060405250810190610c1c91906132b7565b50505050565b6000546001600160a01b03163314610c6a5760405162461bcd60e51b8152602060048201819052602482015260008051602061352583398151915260448201526064016109bf565b610c7881633b9aca00613437565b60195550565b6000610c8b84848461206c565b610cdd8433610cd8856040518060600160405280602881526020016134fd602891396001600160a01b038a1660009081526003602090815260408083203384529091529020549190612399565b611f14565b5060019392505050565b6000600954821115610d615760405162461bcd60e51b815260206004820152602a60248201527f416d6f756e74206d757374206265206c657373207468616e20746f74616c207260448201527f65666c656374696f6e730000000000000000000000000000000000000000000060648201526084016109bf565b6000610d6b6123d3565b9050610d778382611ed2565b9150505b919050565b6000546001600160a01b03163314610dc85760405162461bcd60e51b8152602060048201819052602482015260008051602061352583398151915260448201526064016109bf565b6001600160a01b03811660009081526005602052604090205460ff16610e305760405162461bcd60e51b815260206004820152601b60248201527f4163636f756e7420697320616c7265616479206578636c75646564000000000060448201526064016109bf565b60005b600654811015610f8a57816001600160a01b031660068281548110610e6857634e487b7160e01b600052603260045260246000fd5b6000918252602090912001546001600160a01b03161415610f785760068054610e9390600190613456565b81548110610eb157634e487b7160e01b600052603260045260246000fd5b600091825260209091200154600680546001600160a01b039092169183908110610eeb57634e487b7160e01b600052603260045260246000fd5b600091825260208083209190910180546001600160a01b0319166001600160a01b039485161790559184168152600282526040808220829055600590925220805460ff191690556006805480610f5157634e487b7160e01b600052603160045260246000fd5b600082815260209020810160001990810180546001600160a01b0319169055019055610f8a565b80610f82816134a8565b915050610e33565b5050565b3360008181526003602090815260408083206001600160a01b03871684529091528120549091610a6c918590610cd890866123f6565b3360008181526005602052604090205460ff161561104a5760405162461bcd60e51b815260206004820152602c60248201527f4578636c75646564206164647265737365732063616e6e6f742063616c6c207460448201527f6869732066756e6374696f6e000000000000000000000000000000000000000060648201526084016109bf565b600061105583612455565b5050506001600160a01b038616600090815260016020526040902054939450611083939250849150506124b0565b6001600160a01b0383166000908152600160205260409020556009546110a990826124b0565b600955600a546110b990846123f6565b600a55505050565b6000546001600160a01b031633146111095760405162461bcd60e51b8152602060048201819052602482015260008051602061352583398151915260448201526064016109bf565b60008190506000816001600160a01b031663c45a01556040518163ffffffff1660e01b815260040160206040518083038186803b15801561114957600080fd5b505afa15801561115d573d6000803e3d6000fd5b505050506040513d601f19601f8201168201806040525081019061118191906131dc565b6001600160a01b031663e6a4390530846001600160a01b031663ad5c46486040518163ffffffff1660e01b815260040160206040518083038186803b1580156111c957600080fd5b505afa1580156111dd573d6000803e3d6000fd5b505050506040513d601f19601f8201168201806040525081019061120191906131dc565b6040517fffffffff0000000000000000000000000000000000000000000000000000000060e085901b1681526001600160a01b0392831660048201529116602482015260440160206040518083038186803b15801561125f57600080fd5b505afa158015611273573d6000803e3d6000fd5b505050506040513d601f19601f8201168201806040525081019061129791906131dc565b90506001600160a01b03811661145557816001600160a01b031663c45a01556040518163ffffffff1660e01b815260040160206040518083038186803b1580156112e057600080fd5b505afa1580156112f4573d6000803e3d6000fd5b505050506040513d601f19601f8201168201806040525081019061131891906131dc565b6001600160a01b031663c9c6539630846001600160a01b031663ad5c46486040518163ffffffff1660e01b815260040160206040518083038186803b15801561136057600080fd5b505afa158015611374573d6000803e3d6000fd5b505050506040513d601f19601f8201168201806040525081019061139891906131dc565b6040517fffffffff0000000000000000000000000000000000000000000000000000000060e085901b1681526001600160a01b03928316600482015291166024820152604401602060405180830381600087803b1580156113f857600080fd5b505af115801561140c573d6000803e3d6000fd5b505050506040513d601f19601f8201168201806040525081019061143091906131dc565b601880546001600160a01b0319166001600160a01b0392909216919091179055611471565b601880546001600160a01b0319166001600160a01b0383161790555b50601780546001600160a01b0319166001600160a01b039290921691909117905550565b6000546001600160a01b031633146114dd5760405162461bcd60e51b8152602060048201819052602482015260008051602061352583398151915260448201526064016109bf565b6001600160a01b03166000908152600460205260409020805460ff19166001179055565b60006008548311156115555760405162461bcd60e51b815260206004820152601f60248201527f416d6f756e74206d757374206265206c657373207468616e20737570706c790060448201526064016109bf565b8161157557600061156584612455565b50949650610a7095505050505050565b600061158084612455565b50939650610a7095505050505050565b6000546001600160a01b031633146115d85760405162461bcd60e51b8152602060048201819052602482015260008051602061352583398151915260448201526064016109bf565b601555565b6000546001600160a01b031633146116255760405162461bcd60e51b8152602060048201819052602482015260008051602061352583398151915260448201526064016109bf565b60006116303061188f565b905061163b816124f2565b50565b6000546001600160a01b031633146116865760405162461bcd60e51b8152602060048201819052602482015260008051602061352583398151915260448201526064016109bf565b6001600160a01b03811660009081526005602052604090205460ff16156116ef5760405162461bcd60e51b815260206004820152601b60248201527f4163636f756e7420697320616c7265616479206578636c75646564000000000060448201526064016109bf565b6001600160a01b03811660009081526001602052604090205415611749576001600160a01b03811660009081526001602052604090205461172f90610ce7565b6001600160a01b0382166000908152600260205260409020555b6001600160a01b03166000818152600560205260408120805460ff191660019081179091556006805491820181559091527ff652222313e28459528d920b65115c16c04f3efc82aaedc97be59f3f377c0d3f0180546001600160a01b0319169091179055565b6000546001600160a01b031633146117f75760405162461bcd60e51b8152602060048201819052602482015260008051602061352583398151915260448201526064016109bf565b601480546001600160a01b0319166001600160a01b0392909216919091179055565b6000546001600160a01b031633146118615760405162461bcd60e51b8152602060048201819052602482015260008051602061352583398151915260448201526064016109bf565b604051339081904780156108fc02916000818181858888f19350505050158015610f8a573d6000803e3d6000fd5b6001600160a01b03811660009081526005602052604081205460ff16156118cf57506001600160a01b038116600090815260026020526040902054610d7b565b6001600160a01b038216600090815260016020526040902054610a7090610ce7565b6000546001600160a01b031633146119395760405162461bcd60e51b8152602060048201819052602482015260008051602061352583398151915260448201526064016109bf565b600080546040516001600160a01b03909116907f8be0079c531659141344cd1fd0a4f28419497f9722a3daafe3b4186f6b6457e0908390a3600080546001600160a01b0319169055565b6000546001600160a01b031633146119cb5760405162461bcd60e51b8152602060048201819052602482015260008051602061352583398151915260448201526064016109bf565b601055565b6000546001600160a01b03163314611a185760405162461bcd60e51b8152602060048201819052602482015260008051602061352583398151915260448201526064016109bf565b6007546001600160a01b03168015611a4b576001600160a01b0381166000908152600460205260409020805460ff191690555b50600780546001600160a01b039092166001600160a01b0319909216821790556000908152600460205260409020805460ff19166001179055565b6060600c80546109dc9061346d565b6000610a6c3384610cd885604051806060016040528060258152602001613545602591393360009081526003602090815260408083206001600160a01b038d1684529091529020549190612399565b6000610a6c33848461206c565b6000546001600160a01b03163314611b395760405162461bcd60e51b8152602060048201819052602482015260008051602061352583398151915260448201526064016109bf565b60188054821515600160a81b027fffffffffffffffffffff00ffffffffffffffffffffffffffffffffffffffffff9091161790556040517f53726dfcaf90650aa7eb35524f4d3220f07413c8d6cb404cc8c18bf5591bc15990611ba190831515815260200190565b60405180910390a150565b6000546001600160a01b03163314611bf45760405162461bcd60e51b8152602060048201819052602482015260008051602061352583398151915260448201526064016109bf565b601255565b6000546001600160a01b03163314611c415760405162461bcd60e51b8152602060048201819052602482015260008051602061352583398151915260448201526064016109bf565b6001600160a01b03166000908152600460205260409020805460ff19169055565b6000546001600160a01b03163314611caa5760405162461bcd60e51b8152602060048201819052602482015260008051602061352583398151915260448201526064016109bf565b611cb881633b9aca00613437565b601a5550565b6000546001600160a01b03163314611d065760405162461bcd60e51b8152602060048201819052602482015260008051602061352583398151915260448201526064016109bf565b6001600160a01b038116611d825760405162461bcd60e51b815260206004820152602660248201527f4f776e61626c653a206e6577206f776e657220697320746865207a65726f206160448201527f646472657373000000000000000000000000000000000000000000000000000060648201526084016109bf565b600080546040516001600160a01b03808516939216917f8be0079c531659141344cd1fd0a4f28419497f9722a3daafe3b4186f6b6457e091a3600080546001600160a01b0319166001600160a01b0392909216919091179055565b6000546001600160a01b03163314611e255760405162461bcd60e51b8152602060048201819052602482015260008051602061352583398151915260448201526064016109bf565b611e2e476126a1565b565b600082611e3f57506000610a70565b6000611e4b8385613437565b905082611e588583613417565b14611ecb5760405162461bcd60e51b815260206004820152602160248201527f536166654d6174683a206d756c7469706c69636174696f6e206f766572666c6f60448201527f770000000000000000000000000000000000000000000000000000000000000060648201526084016109bf565b9392505050565b6000611ecb83836040518060400160405280601a81526020017f536166654d6174683a206469766973696f6e206279207a65726f000000000000815250612718565b6001600160a01b038316611f8f5760405162461bcd60e51b8152602060048201526024808201527f45524332303a20617070726f76652066726f6d20746865207a65726f2061646460448201527f726573730000000000000000000000000000000000000000000000000000000060648201526084016109bf565b6001600160a01b03821661200b5760405162461bcd60e51b815260206004820152602260248201527f45524332303a20617070726f766520746f20746865207a65726f20616464726560448201527f737300000000000000000000000000000000000000000000000000000000000060648201526084016109bf565b6001600160a01b0383811660008181526003602090815260408083209487168084529482529182902085905590518481527f8c5be1e5ebec7d5bd14f71427d1e84f3dd0314c0f7b2291e5b200ac8c7c3b925910160405180910390a3505050565b6001600160a01b0383166120e85760405162461bcd60e51b815260206004820152602560248201527f45524332303a207472616e736665722066726f6d20746865207a65726f20616460448201527f647265737300000000000000000000000000000000000000000000000000000060648201526084016109bf565b6001600160a01b0382166121645760405162461bcd60e51b815260206004820152602360248201527f45524332303a207472616e7366657220746f20746865207a65726f206164647260448201527f657373000000000000000000000000000000000000000000000000000000000060648201526084016109bf565b600081116121da5760405162461bcd60e51b815260206004820152602960248201527f5472616e7366657220616d6f756e74206d75737420626520677265617465722060448201527f7468616e207a65726f000000000000000000000000000000000000000000000060648201526084016109bf565b6001600160a01b03831660009081526004602052604090205460ff1615801561221c57506001600160a01b03821660009081526004602052604090205460ff16155b1561227357601a548111156122735760405162461bcd60e51b815260206004820152601d60248201527f796f752061726520657863656564696e67206d61785478416d6f756e7400000060448201526064016109bf565b600061227e3061188f565b6019549091508110801590819061229f5750601854600160a01b900460ff16155b80156122b957506018546001600160a01b03868116911614155b80156122ce5750601854600160a81b900460ff165b1561233a57601954915060006122f16015546010546123f690919063ffffffff16565b9050600061231460105461230e8487611ed290919063ffffffff16565b90611e30565b905061231f81612746565b600061232b85836124b0565b9050612336816126a1565b5050505b6001600160a01b03851660009081526004602052604090205460019060ff168061237c57506001600160a01b03851660009081526004602052604090205460ff165b15612385575060005b612391868686846127ed565b505050505050565b600081848411156123bd5760405162461bcd60e51b81526004016109bf919061333c565b5060006123ca8486613456565b95945050505050565b60008060006123e0612a10565b90925090506123ef8282611ed2565b9250505090565b60008061240383856133ff565b905083811015611ecb5760405162461bcd60e51b815260206004820152601b60248201527f536166654d6174683a206164646974696f6e206f766572666c6f77000000000060448201526064016109bf565b600080600080600080600080600080600061246f8c612bcd565b935093509350935060008060006124908f87878761248b6123d3565b612c22565b919f509d509b509599509397509195509350505050919395979092949650565b6000611ecb83836040518060400160405280601e81526020017f536166654d6174683a207375627472616374696f6e206f766572666c6f770000815250612399565b604080516002808252606082018352600092602083019080368337019050509050308160008151811061253557634e487b7160e01b600052603260045260246000fd5b6001600160a01b03928316602091820292909201810191909152601754604080517fad5c46480000000000000000000000000000000000000000000000000000000081529051919093169263ad5c4648926004808301939192829003018186803b1580156125a257600080fd5b505afa1580156125b6573d6000803e3d6000fd5b505050506040513d601f19601f820116820180604052508101906125da91906131dc565b816001815181106125fb57634e487b7160e01b600052603260045260246000fd5b6001600160a01b0392831660209182029290920101526017546126219130911684611f14565b6017546040517f791ac9470000000000000000000000000000000000000000000000000000000081526001600160a01b039091169063791ac9479061267390859060009086903090429060040161338f565b600060405180830381600087803b15801561268d57600080fd5b505af1158015612391573d6000803e3d6000fd5b6018805460ff60a01b1916600160a01b179055476126be826124f2565b60006126ca47836124b0565b6014546040519192506001600160a01b03169082156108fc029083906000818181858888f19350505050158015612705573d6000803e3d6000fd5b50506018805460ff60a01b191690555050565b600081836127395760405162461bcd60e51b81526004016109bf919061333c565b5060006123ca8486613417565b6018805460ff60a01b1916600160a01b1790556000612766826002611ed2565b9050600061277483836124b0565b905047612780836124f2565b600061278c47836124b0565b90506127988382612c84565b60408051858152602081018390529081018490527f17bbfb9a6069321b6ded73bd96327c9e6b7212a5cd51ff219cd61370acafb5619060600160405180910390a150506018805460ff60a01b19169055505050565b806127fa576127fa612d79565b600061281c606461281660125486611e3090919063ffffffff16565b90611ed2565b6001600160a01b03861660009081526005602052604090205490915060ff16801561286057506001600160a01b03841660009081526005602052604090205460ff16155b1561287e57612879858561287486856124b0565b612dd7565b61299b565b6001600160a01b03851660009081526005602052604090205460ff161580156128bf57506001600160a01b03841660009081526005602052604090205460ff165b156128d85761287985856128d386856124b0565b612f1d565b6001600160a01b03851660009081526005602052604090205460ff1615801561291a57506001600160a01b03841660009081526005602052604090205460ff16155b1561293357612879858561292e86856124b0565b612fdc565b6001600160a01b03851660009081526005602052604090205460ff16801561297357506001600160a01b03841660009081526005602052604090205460ff165b1561298c57612879858561298786856124b0565b613036565b61299b858561292e86856124b0565b6000600e81905560108190556015556129d5857f000000000000000000000000000000000000000000000000000000000000000083612fdc565b600f54600e5560115460105560165460155581612a0957612a09600f54600e55601154601055601654601555601354601255565b5050505050565b6009546008546000918291825b600654811015612b9b57826001600060068481548110612a4d57634e487b7160e01b600052603260045260246000fd5b60009182526020808320909101546001600160a01b031683528201929092526040019020541180612ac65750816002600060068481548110612a9f57634e487b7160e01b600052603260045260246000fd5b60009182526020808320909101546001600160a01b03168352820192909252604001902054115b15612add5760095460085494509450505050612bc9565b612b316001600060068481548110612b0557634e487b7160e01b600052603260045260246000fd5b60009182526020808320909101546001600160a01b0316835282019290925260400190205484906124b0565b9250612b876002600060068481548110612b5b57634e487b7160e01b600052603260045260246000fd5b60009182526020808320909101546001600160a01b0316835282019290925260400190205483906124b0565b915080612b93816134a8565b915050612a1d565b50600854600954612bab91611ed2565b821015612bc357600954600854935093505050612bc9565b90925090505b9091565b6000806000806000612bde866130bf565b90506000612beb876130db565b90506000612bf8886130f7565b90506000612c1282612c0c85818d896124b0565b906124b0565b9993985091965094509092505050565b6000808080612c318986611e30565b90506000612c3f8987611e30565b90506000612c4d8988611e30565b90506000612c5b8989611e30565b90506000612c6f82612c0c858189896124b0565b949d949c50929a509298505050505050505050565b601754612c9c9030906001600160a01b031684611f14565b6017546001600160a01b031663f305d719823085600080612cc56000546001600160a01b031690565b60405160e088901b7fffffffff000000000000000000000000000000000000000000000000000000001681526001600160a01b03958616600482015260248101949094526044840192909252606483015290911660848201524260a482015260c4016060604051808303818588803b158015612d4057600080fd5b505af1158015612d54573d6000803e3d6000fd5b50505050506040513d601f19601f82011682018060405250810190612a09919061330f565b600e54158015612d895750601054155b8015612d955750601554155b8015612da15750601254155b15612dab57611e2e565b600e8054600f556010805460115560158054601655601280546013556000938490559183905582905555565b6000806000806000806000612deb88612455565b9650965096509650965096509650612e3188600260008d6001600160a01b03166001600160a01b03168152602001908152602001600020546124b090919063ffffffff16565b6001600160a01b038b16600090815260026020908152604080832093909355600190522054612e6090886124b0565b6001600160a01b03808c1660009081526001602052604080822093909355908b1681522054612e8f90876123f6565b6001600160a01b038a16600090815260016020526040902055612eb182613113565b612eba81613113565b612ec4858461319c565b886001600160a01b03168a6001600160a01b03167fddf252ad1be2c89b69c2b068fc378daa952ba7f163c4a11628f55a4df523b3ef86604051612f0991815260200190565b60405180910390a350505050505050505050565b6000806000806000806000612f3188612455565b9650965096509650965096509650612f7787600160008d6001600160a01b03166001600160a01b03168152602001908152602001600020546124b090919063ffffffff16565b6001600160a01b03808c16600090815260016020908152604080832094909455918c16815260029091522054612fad90856123f6565b6001600160a01b038a16600090815260026020908152604080832093909355600190522054612e8f90876123f6565b6000806000806000806000612ff088612455565b9650965096509650965096509650612e6087600160008d6001600160a01b03166001600160a01b03168152602001908152602001600020546124b090919063ffffffff16565b600080600080600080600061304a88612455565b965096509650965096509650965061309088600260008d6001600160a01b03166001600160a01b03168152602001908152602001600020546124b090919063ffffffff16565b6001600160a01b038b16600090815260026020908152604080832093909355600190522054612f7790886124b0565b6000610a706064612816600e5485611e3090919063ffffffff16565b6000610a70606461281660105485611e3090919063ffffffff16565b6000610a70606461281660155485611e3090919063ffffffff16565b600061311d6123d3565b9050600061312b8383611e30565b3060009081526001602052604090205490915061314890826123f6565b3060009081526001602090815260408083209390935560059052205460ff1615613197573060009081526002602052604090205461318690846123f6565b306000908152600260205260409020555b505050565b6009546131a990836124b0565b600955600a546131b990826123f6565b600a555050565b6000602082840312156131d1578081fd5b8135611ecb816134d9565b6000602082840312156131ed578081fd5b8151611ecb816134d9565b6000806040838503121561320a578081fd5b8235613215816134d9565b91506020830135613225816134d9565b809150509250929050565b600080600060608486031215613244578081fd5b833561324f816134d9565b9250602084013561325f816134d9565b929592945050506040919091013590565b60008060408385031215613282578182fd5b823561328d816134d9565b946020939093013593505050565b6000602082840312156132ac578081fd5b8135611ecb816134ee565b6000602082840312156132c8578081fd5b8151611ecb816134ee565b6000602082840312156132e4578081fd5b5035919050565b600080604083850312156132fd578182fd5b823591506020830135613225816134ee565b600080600060608486031215613323578283fd5b8351925060208401519150604084015190509250925092565b6000602080835283518082850152825b818110156133685785810183015185820160400152820161334c565b818111156133795783604083870101525b50601f01601f1916929092016040019392505050565b600060a082018783526020878185015260a0604085015281875180845260c0860191508289019350845b818110156133de5784516001600160a01b0316835293830193918301916001016133b9565b50506001600160a01b03969096166060850152505050608001529392505050565b60008219821115613412576134126134c3565b500190565b60008261343257634e487b7160e01b81526012600452602481fd5b500490565b6000816000190483118215151615613451576134516134c3565b500290565b600082821015613468576134686134c3565b500390565b600181811c9082168061348157607f821691505b602082108114156134a257634e487b7160e01b600052602260045260246000fd5b50919050565b60006000198214156134bc576134bc6134c3565b5060010190565b634e487b7160e01b600052601160045260246000fd5b6001600160a01b038116811461163b57600080fd5b801515811461163b57600080fdfe45524332303a207472616e7366657220616d6f756e74206578636565647320616c6c6f77616e63654f776e61626c653a2063616c6c6572206973206e6f7420746865206f776e657245524332303a2064656372656173656420616c6c6f77616e63652062656c6f77207a65726fa264697066735822122037c4f40bc69c41ec93c134bbafa50c11faf321ff7843fa111686c3663b341a3264736f6c63430008030033",
  "immutableReferences": {
    "1740": [
      {
        "length": 32,
        "start": 1215
      },
      {
        "length": 32,
        "start": 10672
      }
    ]
  },
  "source": "// SPDX-License-Identifier: MIT\npragma solidity 0.8.3;\n\nimport \"./IERC20.sol\";\nimport \"./SafeMath.sol\";\nimport \"./Context.sol\";\nimport \"./Address.sol\";\nimport \"./Token.sol\";\nimport \"./Ownable.sol\";\nimport \"./Uniswap.sol\";\nimport \"./BetTracker.sol\";\n\ncontract SpadeQ is Context, IERC20, Ownable {\n    using SafeMath for uint256;\n    using Address for address;\n    \n    address public immutable deadAddress = 0x000000000000000000000000000000000000dEaD;\n    \n    mapping (address => uint256) private _rOwned;\n    mapping (address => uint256) private _tOwned;\n    mapping (address => mapping (address => uint256)) private _allowances;\n\n    mapping (address => bool) private _isExcludedFromFee;\n\n    mapping (address => bool) private _isExcluded;\n    address[] private _excluded;\n   \n    BetTracker public tracker;\n\n    uint256 private constant MAX = ~uint256(0);\n    uint256 private _tTotal = 1000000000 * 10**6  * 10**9;\n    uint256 private _rTotal = (MAX - (MAX % _tTotal));\n    uint256 private _tFeeTotal;\n\n    string private _name = \"spy\";\n    string private _symbol = \"spY\";\n    uint8 private _decimals = 9;\n    \n    uint256 public _taxFee = 3;\n    uint256 private _previousTaxFee = _taxFee;\n    \n    uint256 public _liquidityFee = 3;  \n    uint256 private _previousLiquidityFee = _liquidityFee;\n    \n    uint256 public _burnFee = 2;\n    uint256 private _previousBurnFee = _burnFee;\n\n\taddress  payable  _marketingWallet;\n    uint256 public _marketingFee = 2;\n\tuint256 private _previousMarketingFee = _marketingFee;\n\n    IUniswapV2Router02 public  uniswapV2Router;\n    address public  uniswapV2Pair;\n    \n    bool inSwapAndLiquify;\n    bool public swapAndLiquifyEnabled = true;\n    uint256 private numTokensSellToAddToLiquidity = 300000000 * 10**9;\n    uint256 public maxTxAmount = _tTotal.mul(1).div(100);\n\n    event SwapAndLiquifyEnabledUpdated(bool enabled);\n    event SwapAndLiquify(\n        uint256 tokensSwapped,\n        uint256 ethReceived,\n        uint256 tokensIntoLiqudity\n    );\n    \n    modifier lockTheSwap {\n        inSwapAndLiquify = true;\n        _;\n        inSwapAndLiquify = false;\n    }\n    \n    constructor (address payable marketingWallet) {\n        _rOwned[_msgSender()] = _rTotal;\n\n        // IUniswapV2Router02 _uniswapV2Router = IUniswapV2Router02(0x10ED43C718714eb63d5aA57B78B54704E256024E);\n        IUniswapV2Router02 _uniswapV2Router = IUniswapV2Router02(0xD99D1c33F9fC3444f8101754aBC46c52416550D1);\n\n        // Create a uniswap pair for this new token\n        uniswapV2Pair = IUniswapV2Factory(_uniswapV2Router.factory())\n            .createPair(address(this), _uniswapV2Router.WETH());\n\n        // set the rest of the contract variables\n        uniswapV2Router = _uniswapV2Router;\n\n        //exclude owner and this contract from fee\n        _isExcludedFromFee[owner()] = true;\n        _isExcludedFromFee[marketingWallet] = true;\n        _isExcludedFromFee[address(this)] = true;\n        \n        _marketingWallet = marketingWallet;\n        emit Transfer(address(0), _msgSender(), _tTotal);\n\n    }\n\n    function setTracker(address _tracker) external onlyOwner {\n        address oldTracker = address(tracker);\n        if (oldTracker != address(0)) {\n            _isExcludedFromFee[oldTracker] = false;\n        }\n\n        tracker = BetTracker(_tracker);\n        _isExcludedFromFee[_tracker] = true;\n    }\n\n    function name() public view returns (string memory) {\n        return _name;\n    }\n\n    function symbol() public view returns (string memory) {\n        return _symbol;\n    }\n\n    function decimals() public view returns (uint8) {\n        return _decimals;\n    }\n\n    function totalSupply() public view override returns (uint256) {\n        return _tTotal;\n    }\n\n    function balanceOf(address account) public view override returns (uint256) {\n        if (_isExcluded[account]) return _tOwned[account];\n        return tokenFromReflection(_rOwned[account]);\n    }\n\n    function transfer(address recipient, uint256 amount) public override returns (bool) {\n        _transfer(_msgSender(), recipient, amount);\n        return true;\n    }\n    \n    function updatePair(address pair) external onlyOwner{\n        uniswapV2Pair = pair;\n    }\n\n    function allowance(address owner, address spender) public view override returns (uint256) {\n        return _allowances[owner][spender];\n    }\n\n    function approve(address spender, uint256 amount) public override returns (bool) {\n        _approve(_msgSender(), spender, amount);\n        return true;\n    }\n    \n    function manualSwap() external onlyOwner{\n        uint256 tokensToSwap = balanceOf(address(this));\n        swapTokensForEth(tokensToSwap);\n    }\n    \n    function manualSend() external onlyOwner{\n        swapAndSendToMarketing(address(this).balance);\n    }\n\n    function transferFrom(address sender, address recipient, uint256 amount) public override returns (bool) {\n        _transfer(sender, recipient, amount);\n        _approve(sender, _msgSender(), _allowances[sender][_msgSender()].sub(amount, \"ERC20: transfer amount exceeds allowance\"));\n        return true;\n    }\n\n    function increaseAllowance(address spender, uint256 addedValue) public virtual returns (bool) {\n        _approve(_msgSender(), spender, _allowances[_msgSender()][spender].add(addedValue));\n        return true;\n    }\n\n    function decreaseAllowance(address spender, uint256 subtractedValue) public virtual returns (bool) {\n        _approve(_msgSender(), spender, _allowances[_msgSender()][spender].sub(subtractedValue, \"ERC20: decreased allowance below zero\"));\n        return true;\n    }\n    \n    function rescueBNBFromContract() external onlyOwner {\n        address payable _owner = payable(msg.sender);\n        _owner.transfer(address(this).balance);\n    }\n\n\n    function isExcludedFromReward(address account) public view returns (bool) {\n        return _isExcluded[account];\n    }\n\n    function totalFees() public view returns (uint256) {\n        return _tFeeTotal;\n    }\n    \n    function setRouterAddress(address newRouter) external onlyOwner {\n        //give the option to change the router down the line \n        IUniswapV2Router02 _newRouter = IUniswapV2Router02(newRouter);\n        address get_pair = IUniswapV2Factory(_newRouter.factory()).getPair(address(this), _newRouter.WETH());\n        //checks if pair already exists\n        if (get_pair == address(0)) {\n            uniswapV2Pair = IUniswapV2Factory(_newRouter.factory()).createPair(address(this), _newRouter.WETH());\n        }\n        else {\n            uniswapV2Pair = get_pair;\n        }\n        uniswapV2Router = _newRouter;\n    }   \n\n    function setMarketingWallet(address payable marketingWallet) external onlyOwner()  {\n        _marketingWallet = marketingWallet;\n    }\n\n    function deliver(uint256 tAmount) public {\n        address sender = _msgSender();\n        require(!_isExcluded[sender], \"Excluded addresses cannot call this function\");\n        (uint256 rAmount,,,,,,) = _getValues(tAmount);\n        _rOwned[sender] = _rOwned[sender].sub(rAmount);\n        _rTotal = _rTotal.sub(rAmount);\n        _tFeeTotal = _tFeeTotal.add(tAmount);\n    }\n\n    function reflectionFromToken(uint256 tAmount, bool deductTransferFee) public view returns(uint256) {\n        require(tAmount <= _tTotal, \"Amount must be less than supply\");\n        if (!deductTransferFee) {\n            (uint256 rAmount,,,,,,) = _getValues(tAmount);\n            return rAmount;\n        } else {\n            (,uint256 rTransferAmount,,,,,) = _getValues(tAmount);\n            return rTransferAmount;\n        }\n    }\n\n    function tokenFromReflection(uint256 rAmount) public view returns(uint256) {\n        require(rAmount <= _rTotal, \"Amount must be less than total reflections\");\n        uint256 currentRate =  _getRate();\n        return rAmount.div(currentRate);\n    }\n\n    function excludeFromReward(address account) public onlyOwner() {\n        require(!_isExcluded[account], \"Account is already excluded\");\n        if(_rOwned[account] > 0) {\n            _tOwned[account] = tokenFromReflection(_rOwned[account]);\n        }\n        _isExcluded[account] = true;\n        _excluded.push(account);\n    }\n\n    function includeInReward(address account) external onlyOwner() {\n        require(_isExcluded[account], \"Account is already excluded\");\n        for (uint256 i = 0; i < _excluded.length; i++) {\n            if (_excluded[i] == account) {\n                _excluded[i] = _excluded[_excluded.length - 1];\n                _tOwned[account] = 0;\n                _isExcluded[account] = false;\n                _excluded.pop();\n                break;\n            }\n        }\n    }\n    function _transferBothExcluded(address sender, address recipient, uint256 tAmount) private {\n        (uint256 rAmount, uint256 rTransferAmount, uint256 rFee, uint256 tTransferAmount, uint256 tFee, uint256 tLiquidity, uint256 tMarketing) = _getValues(tAmount);\n\n        _tOwned[sender] = _tOwned[sender].sub(tAmount);\n        _rOwned[sender] = _rOwned[sender].sub(rAmount);\n        _tOwned[recipient] = _tOwned[recipient].add(tTransferAmount);\n        _rOwned[recipient] = _rOwned[recipient].add(rTransferAmount);\n\n\t\t_takeLiquidity(tLiquidity);\n\t\t_takeMarketing(tMarketing);\n        _reflectFee(rFee, tFee);\n        emit Transfer(sender, recipient, tTransferAmount);\n    }\n    \n    function excludeFromFee(address account) public onlyOwner {\n        _isExcludedFromFee[account] = true;\n    }\n    \n    function includeInFee(address account) public onlyOwner {\n        _isExcludedFromFee[account] = false;\n    }\n    \n    function setTaxFeePercent(uint256 taxFee) external onlyOwner() {\n        _taxFee = taxFee;\n    }\n\n\tfunction setMarketingFeePercent(uint256 marketingFee) external onlyOwner() {\n        _marketingFee = marketingFee;\n    }\n    \n    function setLiquidityFeePercent(uint256 liquidityFee) external onlyOwner() {\n        _liquidityFee = liquidityFee;\n    }\n    \n    function setBurnFeePercent(uint256 burnFee) external onlyOwner{\n        _burnFee = burnFee;\n    }\n\n    function setSwapAndLiquifyEnabled(bool _enabled) public onlyOwner {\n        swapAndLiquifyEnabled = _enabled;\n        emit SwapAndLiquifyEnabledUpdated(_enabled);\n    }\n    \n     //to recieve ETH from uniswapV2Router when swaping\n    receive() external payable {}\n\n     function _reflectFee(uint256 rFee, uint256 tFee) private {\n        _rTotal     = _rTotal.sub(rFee);\n        _tFeeTotal  = _tFeeTotal.add(tFee);\n    }\n\n    function _getValues(uint256 tAmount) private view returns (uint256, uint256, uint256, uint256, uint256, uint256, uint256) {\n        (uint256 tTransferAmount, uint256 tFee, uint256 tLiquidity, uint256 tMarketing) = _getTValues(tAmount);\n        (uint256 rAmount, uint256 rTransferAmount, uint256 rFee) = _getRValues(tAmount, tFee, tLiquidity, tMarketing, _getRate());\n        return (rAmount, rTransferAmount, rFee, tTransferAmount, tFee, tLiquidity, tMarketing);\n    }\n\n    function _getTValues(uint256 tAmount) private view returns (uint256, uint256, uint256, uint256) {\n        uint256 tFee = calculateTaxFee(tAmount);\n        uint256 tLiquidity = calculateLiquidityFee(tAmount);\n\t\tuint256 tMarketing = calculateMarketingFee(tAmount);\n        uint256 tTransferAmount = tAmount.sub(tFee).sub(tLiquidity).sub(tMarketing);\n        return (tTransferAmount, tFee, tLiquidity, tMarketing);\n    }\n\n    function _getRValues(uint256 tAmount, uint256 tFee, uint256 tLiquidity, uint256 tMarketing, uint256 currentRate) private pure returns (uint256, uint256, uint256) {\n        uint256 rAmount = tAmount.mul(currentRate);\n        uint256 rFee = tFee.mul(currentRate);\n        uint256 rLiquidity = tLiquidity.mul(currentRate);\n\t\tuint256 rMarketing = tMarketing.mul(currentRate);\n        uint256 rTransferAmount = rAmount.sub(rFee).sub(rLiquidity).sub(rMarketing);\n        return (rAmount, rTransferAmount, rFee);\n    }\n\n    function _getRate() private view returns(uint256) {\n        (uint256 rSupply, uint256 tSupply) = _getCurrentSupply();\n        return rSupply.div(tSupply);\n    }\n\n    function _getCurrentSupply() private view returns(uint256, uint256) {\n        uint256 rSupply = _rTotal;\n        uint256 tSupply = _tTotal;      \n        for (uint256 i = 0; i < _excluded.length; i++) {\n            if (_rOwned[_excluded[i]] > rSupply || _tOwned[_excluded[i]] > tSupply) return (_rTotal, _tTotal);\n            rSupply = rSupply.sub(_rOwned[_excluded[i]]);\n            tSupply = tSupply.sub(_tOwned[_excluded[i]]);\n        }\n        if (rSupply < _rTotal.div(_tTotal)) return (_rTotal, _tTotal);\n        return (rSupply, tSupply);\n    }\n    \n    function _takeLiquidity(uint256 tLiquidity) private {\n        uint256 currentRate =  _getRate();\n        uint256 rLiquidity = tLiquidity.mul(currentRate);\n        _rOwned[address(this)] = _rOwned[address(this)].add(rLiquidity);\n        if(_isExcluded[address(this)])\n            _tOwned[address(this)] = _tOwned[address(this)].add(tLiquidity);\n    }\n\n\tfunction _takeMarketing(uint256 tMarketing) private {\n\t  uint256 currentRate =  _getRate();\n        uint256 rMarketing = tMarketing.mul(currentRate);\n        _rOwned[address(this)] = _rOwned[address(this)].add(rMarketing);\n        if(_isExcluded[address(this)])\n            _tOwned[address(this)] = _tOwned[address(this)].add(tMarketing);\n    }\n    \n    function calculateTaxFee(uint256 _amount) private view returns (uint256) {\n        return _amount.mul(_taxFee).div(\n            10**2\n        );\n    }\n\n    function calculateLiquidityFee(uint256 _amount) private view returns (uint256) {\n        return _amount.mul(_liquidityFee).div(\n            10**2\n        );\n    }\n\tfunction calculateMarketingFee(uint256 _amount) private view returns (uint256) {\n        return _amount.mul(_marketingFee).div(\n            10**2\n        );\n    }\n    \n    function setNumTokensTosSwap(uint256 amount) external onlyOwner{\n        numTokensSellToAddToLiquidity = amount * 10**9;\n    }\n    \n    function setMaxTxAmount(uint256 amount) external onlyOwner{\n        maxTxAmount = amount * 10**9;\n    }\n    \n    function transferAnyBEP20Tokens(address _tokenAddr, address _to, uint _amount) public onlyOwner {\n        require(_tokenAddr != address(this), \"Cannot transfer out WTW!\");\n        Token(_tokenAddr).transfer(_to, _amount);\n    }\n    \n    function removeAllFee() private {\n        if(_taxFee == 0 && _liquidityFee == 0 && _marketingFee == 0 && _burnFee == 0) return;\n        \n        _previousTaxFee = _taxFee;\n        _previousLiquidityFee = _liquidityFee;\n\t\t_previousMarketingFee = _marketingFee;\n\t\t_previousBurnFee = _burnFee;\n        \n        _taxFee = 0;\n        _liquidityFee = 0;\n\t\t_marketingFee = 0;\n\t\t_burnFee = 0;\n    }\n    \n    function restoreAllFee() private {\n        _taxFee = _previousTaxFee;\n        _liquidityFee = _previousLiquidityFee;\n\t\t_marketingFee = _previousMarketingFee;\n\t\t_burnFee = _previousBurnFee;\n    }\n    \n    function isExcludedFromFee(address account) public view returns(bool) {\n        return _isExcludedFromFee[account];\n    }\n\n    function _approve(address owner, address spender, uint256 amount) private {\n        require(owner != address(0), \"ERC20: approve from the zero address\");\n        require(spender != address(0), \"ERC20: approve to the zero address\");\n\n        _allowances[owner][spender] = amount;\n        emit Approval(owner, spender, amount);\n    }\n\n    function _transfer(\n        address from,\n        address to,\n        uint256 amount\n    ) private {\n        require(from != address(0), \"ERC20: transfer from the zero address\");\n        require(to != address(0), \"ERC20: transfer to the zero address\");\n        require(amount > 0, \"Transfer amount must be greater than zero\");\n        \n        \n        if(!_isExcludedFromFee[from] && !_isExcludedFromFee[to]){\n            require(amount <= maxTxAmount, 'you are exceeding maxTxAmount');\n        }\n        \n        uint256 contractTokenBalance = balanceOf(address(this));\n        \n        bool overMinTokenBalance = contractTokenBalance >= numTokensSellToAddToLiquidity;\n        if (\n            overMinTokenBalance &&\n            !inSwapAndLiquify &&\n            from != uniswapV2Pair &&\n            swapAndLiquifyEnabled\n        ) {\n            contractTokenBalance = numTokensSellToAddToLiquidity;\n            uint256 totFee = _liquidityFee.add(_marketingFee);\n            uint256 liqTokens = contractTokenBalance.div(totFee).mul(_liquidityFee);\n            swapAndLiquify(liqTokens);\n            uint256 marketingTokens = contractTokenBalance.sub(liqTokens);\n            swapAndSendToMarketing(marketingTokens);\n        }\n        \n        //indicates if fee should be deducted from transfer\n        bool takeFee = true;\n        \n        //if any account belongs to _isExcludedFromFee account then remove the fee\n        if(_isExcludedFromFee[from] || _isExcludedFromFee[to]){\n            takeFee = false;\n        }\n        \n        //transfer amount, it will take tax, burn, liquidity fee\n        _tokenTransfer(from,to,amount,takeFee);\n    }\n\n    function swapAndLiquify(uint256 contractTokenBalance) private lockTheSwap {\n        uint256 half = contractTokenBalance.div(2);\n        uint256 otherHalf = contractTokenBalance.sub(half);\n\n        // capture the contract's current ETH balance.\n        // this is so that we can capture exactly the amount of ETH that the\n        // swap creates, and not make the liquidity event include any ETH that\n        // has been manually sent to the contract\n        uint256 initialBalance = address(this).balance;\n\n        // swap tokens for ETH\n        swapTokensForEth(half); // <- this breaks the ETH -> HATE swap when swap+liquify is triggered\n\n        // how much ETH did we just swap into?\n        uint256 newBalance = address(this).balance.sub(initialBalance);\n\n        // add liquidity to uniswap\n        addLiquidity(otherHalf, newBalance);\n        \n        emit SwapAndLiquify(half, newBalance, otherHalf);\n    }\n    \n    function swapAndSendToMarketing(uint256 tokens) private lockTheSwap{\n        uint256 initialBalance = address(this).balance;\n        swapTokensForEth(tokens);\n        uint256 transferBalance = (address(this).balance).sub(initialBalance);\n        _marketingWallet.transfer(transferBalance);\n    }\n\n    function swapTokensForEth(uint256 tokenAmount) private {\n        // generate the uniswap pair path of token -> weth\n        address[] memory path = new address[](2);\n        path[0] = address(this);\n        path[1] = uniswapV2Router.WETH();\n\n        _approve(address(this), address(uniswapV2Router), tokenAmount);\n\n        // make the swap\n        uniswapV2Router.swapExactTokensForETHSupportingFeeOnTransferTokens(\n            tokenAmount,\n            0, // accept any amount of ETH\n            path,\n            address(this),\n            block.timestamp\n        );\n    }\n\n    function addLiquidity(uint256 tokenAmount, uint256 ethAmount) private {\n        // approve token transfer to cover all possible scenarios\n        _approve(address(this), address(uniswapV2Router), tokenAmount);\n\n        // add the liquidity\n        uniswapV2Router.addLiquidityETH{value: ethAmount}(\n            address(this),\n            tokenAmount,\n            0, // slippage is unavoidable\n            0, // slippage is unavoidable\n            owner(),\n            block.timestamp\n        );\n    }\n\n    //this method is responsible for taking all fee, if takeFee is true\n    function _tokenTransfer(address sender, address recipient, uint256 amount,bool takeFee) private {\n        if(!takeFee)\n            removeAllFee();\n            \n        uint256 burnAmt = amount.mul(_burnFee).div(100);\n        \n        if (_isExcluded[sender] && !_isExcluded[recipient]) {\n            _transferFromExcluded(sender, recipient, amount.sub(burnAmt));\n        } else if (!_isExcluded[sender] && _isExcluded[recipient]) {\n            _transferToExcluded(sender, recipient,  amount.sub(burnAmt));\n        } else if (!_isExcluded[sender] && !_isExcluded[recipient]) {\n            _transferStandard(sender, recipient,  amount.sub(burnAmt));\n        } else if (_isExcluded[sender] && _isExcluded[recipient]) {\n            _transferBothExcluded(sender, recipient,  amount.sub(burnAmt));\n        } else {\n            _transferStandard(sender, recipient,  amount.sub(burnAmt));\n        }\n        \n        _taxFee = 0; _liquidityFee = 0; _marketingFee = 0;\n        _transferStandard(sender, deadAddress, burnAmt);\n        _taxFee = _previousTaxFee; _liquidityFee = _previousLiquidityFee; _marketingFee = _previousMarketingFee;\n        \n        if(!takeFee)\n            restoreAllFee();\n    }\n\n   function _transferStandard(address sender, address recipient, uint256 tAmount) private {\n        (uint256 rAmount, uint256 rTransferAmount, uint256 rFee, uint256 tTransferAmount, uint256 tFee, uint256 tLiquidity, uint256 tMarketing) = _getValues(tAmount);\n\n        _rOwned[sender] = _rOwned[sender].sub(rAmount);\n        _rOwned[recipient] = _rOwned[recipient].add(rTransferAmount);\n\n\t\t_takeLiquidity(tLiquidity);\n\t\t_takeMarketing(tMarketing);\n        _reflectFee(rFee, tFee);\n        emit Transfer(sender, recipient, tTransferAmount);\n    }\n     function _transferToExcluded(address sender, address recipient, uint256 tAmount) private {\n        (uint256 rAmount, uint256 rTransferAmount, uint256 rFee, uint256 tTransferAmount, uint256 tFee, uint256 tLiquidity, uint256 tMarketing) = _getValues(tAmount);\n\n        _rOwned[sender] = _rOwned[sender].sub(rAmount);\n        _tOwned[recipient] = _tOwned[recipient].add(tTransferAmount);\n        _rOwned[recipient] = _rOwned[recipient].add(rTransferAmount);\n\n\t\t_takeLiquidity(tLiquidity);\n\t\t_takeMarketing(tMarketing);\n        _reflectFee(rFee, tFee);\n        emit Transfer(sender, recipient, tTransferAmount);\n    }\n\n    function _transferFromExcluded(address sender, address recipient, uint256 tAmount) private {\n        (uint256 rAmount, uint256 rTransferAmount, uint256 rFee, uint256 tTransferAmount, uint256 tFee, uint256 tLiquidity, uint256 tMarketing) = _getValues(tAmount);\n\n        _tOwned[sender] = _tOwned[sender].sub(tAmount);\n        _rOwned[sender] = _rOwned[sender].sub(rAmount);\n        _rOwned[recipient] = _rOwned[recipient].add(rTransferAmount);\n\n\t\t_takeLiquidity(tLiquidity);\n\t\t_takeMarketing(tMarketing);\n        _reflectFee(rFee, tFee);\n        emit Transfer(sender, recipient, tTransferAmount);\n    }\n    \n}",
  "sourcePath": "/home/rol/Desktop/spadeQ-lott/spadeq/contracts/SpadeQ.sol",
  "compiler": {
    "name": "solc",
    "version": "0.8.3+commit.8d00100c.Emscripten.clang"
  },
  "schemaVersion": "3.4.1",
  "updatedAt": "2021-09-09T15:06:34.849Z",
  "networkType": "ethereum",
  "devdoc": {
    "kind": "dev",
    "methods": {},
    "version": 1
  },
  "userdoc": {
    "kind": "user",
    "methods": {},
    "version": 1
  }
}