{
  "contractName": "ValidatorProxy",
  "abi": [
    {
      "inputs": [
        {
          "internalType": "address",
          "name": "aggregator",
          "type": "address"
        },
        {
          "internalType": "contract AggregatorValidatorInterface",
          "name": "validator",
          "type": "address"
        }
      ],
      "stateMutability": "nonpayable",
      "type": "constructor"
    },
    {
      "anonymous": false,
      "inputs": [
        {
          "indexed": true,
          "internalType": "address",
          "name": "aggregator",
          "type": "address"
        }
      ],
      "name": "AggregatorProposed",
      "type": "event"
    },
    {
      "anonymous": false,
      "inputs": [
        {
          "indexed": true,
          "internalType": "address",
          "name": "previous",
          "type": "address"
        },
        {
          "indexed": true,
          "internalType": "address",
          "name": "current",
          "type": "address"
        }
      ],
      "name": "AggregatorUpgraded",
      "type": "event"
    },
    {
      "anonymous": false,
      "inputs": [
        {
          "indexed": true,
          "internalType": "address",
          "name": "from",
          "type": "address"
        },
        {
          "indexed": true,
          "internalType": "address",
          "name": "to",
          "type": "address"
        }
      ],
      "name": "OwnershipTransferRequested",
      "type": "event"
    },
    {
      "anonymous": false,
      "inputs": [
        {
          "indexed": true,
          "internalType": "address",
          "name": "from",
          "type": "address"
        },
        {
          "indexed": true,
          "internalType": "address",
          "name": "to",
          "type": "address"
        }
      ],
      "name": "OwnershipTransferred",
      "type": "event"
    },
    {
      "anonymous": false,
      "inputs": [
        {
          "indexed": true,
          "internalType": "address",
          "name": "proposed",
          "type": "address"
        },
        {
          "indexed": false,
          "internalType": "uint256",
          "name": "previousRoundId",
          "type": "uint256"
        },
        {
          "indexed": false,
          "internalType": "int256",
          "name": "previousAnswer",
          "type": "int256"
        },
        {
          "indexed": false,
          "internalType": "uint256",
          "name": "currentRoundId",
          "type": "uint256"
        },
        {
          "indexed": false,
          "internalType": "int256",
          "name": "currentAnswer",
          "type": "int256"
        }
      ],
      "name": "ProposedAggregatorValidateCall",
      "type": "event"
    },
    {
      "anonymous": false,
      "inputs": [
        {
          "indexed": true,
          "internalType": "contract AggregatorValidatorInterface",
          "name": "validator",
          "type": "address"
        }
      ],
      "name": "ValidatorProposed",
      "type": "event"
    },
    {
      "anonymous": false,
      "inputs": [
        {
          "indexed": true,
          "internalType": "contract AggregatorValidatorInterface",
          "name": "previous",
          "type": "address"
        },
        {
          "indexed": true,
          "internalType": "contract AggregatorValidatorInterface",
          "name": "current",
          "type": "address"
        }
      ],
      "name": "ValidatorUpgraded",
      "type": "event"
    },
    {
      "inputs": [],
      "name": "acceptOwnership",
      "outputs": [],
      "stateMutability": "nonpayable",
      "type": "function"
    },
    {
      "inputs": [],
      "name": "owner",
      "outputs": [
        {
          "internalType": "address",
          "name": "",
          "type": "address"
        }
      ],
      "stateMutability": "view",
      "type": "function"
    },
    {
      "inputs": [
        {
          "internalType": "address",
          "name": "to",
          "type": "address"
        }
      ],
      "name": "transferOwnership",
      "outputs": [],
      "stateMutability": "nonpayable",
      "type": "function"
    },
    {
      "inputs": [
        {
          "internalType": "uint256",
          "name": "previousRoundId",
          "type": "uint256"
        },
        {
          "internalType": "int256",
          "name": "previousAnswer",
          "type": "int256"
        },
        {
          "internalType": "uint256",
          "name": "currentRoundId",
          "type": "uint256"
        },
        {
          "internalType": "int256",
          "name": "currentAnswer",
          "type": "int256"
        }
      ],
      "name": "validate",
      "outputs": [
        {
          "internalType": "bool",
          "name": "",
          "type": "bool"
        }
      ],
      "stateMutability": "nonpayable",
      "type": "function"
    },
    {
      "inputs": [
        {
          "internalType": "address",
          "name": "proposed",
          "type": "address"
        }
      ],
      "name": "proposeNewAggregator",
      "outputs": [],
      "stateMutability": "nonpayable",
      "type": "function"
    },
    {
      "inputs": [],
      "name": "upgradeAggregator",
      "outputs": [],
      "stateMutability": "nonpayable",
      "type": "function"
    },
    {
      "inputs": [],
      "name": "getAggregators",
      "outputs": [
        {
          "internalType": "address",
          "name": "current",
          "type": "address"
        },
        {
          "internalType": "bool",
          "name": "hasProposal",
          "type": "bool"
        },
        {
          "internalType": "address",
          "name": "proposed",
          "type": "address"
        }
      ],
      "stateMutability": "view",
      "type": "function"
    },
    {
      "inputs": [
        {
          "internalType": "contract AggregatorValidatorInterface",
          "name": "proposed",
          "type": "address"
        }
      ],
      "name": "proposeNewValidator",
      "outputs": [],
      "stateMutability": "nonpayable",
      "type": "function"
    },
    {
      "inputs": [],
      "name": "upgradeValidator",
      "outputs": [],
      "stateMutability": "nonpayable",
      "type": "function"
    },
    {
      "inputs": [],
      "name": "getValidators",
      "outputs": [
        {
          "internalType": "contract AggregatorValidatorInterface",
          "name": "current",
          "type": "address"
        },
        {
          "internalType": "bool",
          "name": "hasProposal",
          "type": "bool"
        },
        {
          "internalType": "contract AggregatorValidatorInterface",
          "name": "proposed",
          "type": "address"
        }
      ],
      "stateMutability": "view",
      "type": "function"
    },
    {
      "inputs": [],
      "name": "typeAndVersion",
      "outputs": [
        {
          "internalType": "string",
          "name": "",
          "type": "string"
        }
      ],
      "stateMutability": "pure",
      "type": "function"
    }
  ],
  "bytecode": "0x608060405234801561001057600080fd5b50604051610e68380380610e6883398101604081905261002f916101bc565b33806000816100855760405162461bcd60e51b815260206004820152601860248201527f43616e6e6f7420736574206f776e657220746f207a65726f000000000000000060448201526064015b60405180910390fd5b600080546001600160a01b0319166001600160a01b03848116919091179091558116156100b5576100b581610112565b50506040805180820182526001600160a01b0394851680825260006020928301819052600280546001600160a81b03199081169093179055835180850190945294909516808352910192909252506004805490921617905561020d565b6001600160a01b03811633141561016b5760405162461bcd60e51b815260206004820152601760248201527f43616e6e6f74207472616e7366657220746f2073656c66000000000000000000604482015260640161007c565b600180546001600160a01b0319166001600160a01b0383811691821790925560008054604051929316917fed8889f560326eb138920d842192f0eb3dd22b4f139c87a2c57538e05bae12789190a350565b600080604083850312156101ce578182fd5b82516101d9816101f5565b60208401519092506101ea816101f5565b809150509250929050565b6001600160a01b038116811461020a57600080fd5b50565b610c4c8061021c6000396000f3fe608060405234801561001057600080fd5b50600436106100c95760003560e01c80638da5cb5b11610081578063beed9b511161005b578063beed9b51146101d5578063c97f7856146101f8578063f2fde38b14610200576100c9565b80638da5cb5b1461018457806394ce943b1461019f578063b7ab4db5146101b2576100c9565b80637903677f116100b25780637903677f1461012b57806379ba5097146101335780637ee7f7d11461013b576100c9565b8063181f5a77146100ce57806359112a4e14610116575b600080fd5b604080518082018252601481527f56616c696461746f7250726f787920312e302e300000000000000000000000006020820152905161010d9190610b9e565b60405180910390f35b610129610124366004610b2e565b610213565b005b610129610321565b610129610441565b6002546003546001600160a01b0380831692600160a01b900460ff1691165b604080516001600160a01b039485168152921515602084015292169181019190915260600161010d565b6000546040516001600160a01b03909116815260200161010d565b6101296101ad366004610b2e565b6104ff565b6004546005546001600160a01b0380831692600160a01b900460ff16911661015a565b6101e86101e3366004610b51565b610607565b604051901515815260200161010d565b6101296108e7565b61012961020e366004610b2e565b610a07565b61021b610a1b565b6003546001600160a01b0382811691161480159061024757506002546001600160a01b03828116911614155b6102985760405162461bcd60e51b815260206004820152601060248201527f496e76616c69642070726f706f73616c0000000000000000000000000000000060448201526064015b60405180910390fd5b6003805473ffffffffffffffffffffffffffffffffffffffff19166001600160a01b038316908117909155600280547fffffffffffffffffffffff00ffffffffffffffffffffffffffffffffffffffff16821515600160a01b021790556040517f5f9c9d260db95e6065c958ac4462171e7a8e70c0c5a7e1864ec8e425c3348de790600090a250565b610329610a1b565b604080518082019091526004546001600160a01b03808216808452600160a01b90920460ff16151560208401819052600554909116906103ab5760405162461bcd60e51b815260206004820152600b60248201527f4e6f2070726f706f73616c000000000000000000000000000000000000000000604482015260640161028f565b6040805180820182526001600160a01b0380841680835260006020909301839052600480547fffffffffffffffffffffff00000000000000000000000000000000000000000016821790556005805473ffffffffffffffffffffffffffffffffffffffff191690559251908516917fb78a7598213b871cdb0b5cf984a129fa34c321bfd3b74073ba5147e0e3f1c33c91a3505050565b6001546001600160a01b0316331461049b5760405162461bcd60e51b815260206004820152601660248201527f4d7573742062652070726f706f736564206f776e657200000000000000000000604482015260640161028f565b600080543373ffffffffffffffffffffffffffffffffffffffff19808316821784556001805490911690556040516001600160a01b0390921692909183917f8be0079c531659141344cd1fd0a4f28419497f9722a3daafe3b4186f6b6457e091a350565b610507610a1b565b6005546001600160a01b0382811691161480159061053357506004546001600160a01b03828116911614155b61057f5760405162461bcd60e51b815260206004820152601060248201527f496e76616c69642070726f706f73616c00000000000000000000000000000000604482015260640161028f565b6005805473ffffffffffffffffffffffffffffffffffffffff19166001600160a01b038316908117909155600480547fffffffffffffffffffffff00ffffffffffffffffffffffffffffffffffffffff16821515600160a01b021790556040517e2d79d30d9a290b4aa306dc3542d81c243b1f679b4083044b9723d2378600be90600090a250565b6002546000906001600160a01b03163381146106d6576003546001600160a01b03163381146106785760405162461bcd60e51b815260206004820152601b60248201527f4e6f74206120636f6e666967757265642061676772656761746f720000000000604482015260640161028f565b6040805188815260208101889052908101869052606081018590526001600160a01b038216907f5a76b3e9adddfd8f853f50a26cb51f7e4cfef4fbaf1d49df7da37b90119aba789060800160405180910390a26001925050506108df565b604080518082019091526004546001600160a01b038116808352600160a01b90910460ff16151560208301528061074f5760405162461bcd60e51b815260206004820152601060248201527f4e6f2076616c696461746f722073657400000000000000000000000000000000604482015260640161028f565b60408051602481018a9052604481018990526064810188905260848082018890528251808303909101815260a490910182526020810180517bffffffffffffffffffffffffffffffffffffffffffffffffffffffff1663beed9b5160e01b17905290516001600160a01b038316916107c691610b82565b6000604051808303816000865af19150503d8060008114610803576040519150601f19603f3d011682016040523d82523d6000602084013e610808565b606091505b5050508160200151156108d75760055460408051602481018b9052604481018a90526064810189905260848082018990528251808303909101815260a490910182526020810180517bffffffffffffffffffffffffffffffffffffffffffffffffffffffff1663beed9b5160e01b17905290516001600160a01b03909216916108919190610b82565b6000604051808303816000865af19150503d80600081146108ce576040519150601f19603f3d011682016040523d82523d6000602084013e6108d3565b606091505b5050505b600193505050505b949350505050565b6108ef610a1b565b604080518082019091526002546001600160a01b03808216808452600160a01b90920460ff16151560208401819052600354909116906109715760405162461bcd60e51b815260206004820152600b60248201527f4e6f2070726f706f73616c000000000000000000000000000000000000000000604482015260640161028f565b6040805180820182526001600160a01b0380841680835260006020909301839052600280547fffffffffffffffffffffff00000000000000000000000000000000000000000016821790556003805473ffffffffffffffffffffffffffffffffffffffff191690559251908516917f7005ddb42f7ac176ef55c6adb46b53f52e2832c77e915dad61a643841466ea2191a3505050565b610a0f610a1b565b610a1881610a77565b50565b6000546001600160a01b03163314610a755760405162461bcd60e51b815260206004820152601660248201527f4f6e6c792063616c6c61626c65206279206f776e657200000000000000000000604482015260640161028f565b565b6001600160a01b038116331415610ad05760405162461bcd60e51b815260206004820152601760248201527f43616e6e6f74207472616e7366657220746f2073656c66000000000000000000604482015260640161028f565b6001805473ffffffffffffffffffffffffffffffffffffffff19166001600160a01b0383811691821790925560008054604051929316917fed8889f560326eb138920d842192f0eb3dd22b4f139c87a2c57538e05bae12789190a350565b600060208284031215610b3f578081fd5b8135610b4a81610c01565b9392505050565b60008060008060808587031215610b66578283fd5b5050823594602084013594506040840135936060013592509050565b60008251610b94818460208701610bd1565b9190910192915050565b6000602082528251806020840152610bbd816040850160208701610bd1565b601f01601f19169190910160400192915050565b60005b83811015610bec578181015183820152602001610bd4565b83811115610bfb576000848401525b50505050565b6001600160a01b0381168114610a1857600080fdfea26469706673582212205039da4765979f7223fb210046c8cc7feb75895da3e3e5812b1bd9eb5e25569464736f6c63430008030033",
  "immutableReferences": {},
  "source": "// SPDX-License-Identifier: MIT\npragma solidity ^0.8.0;\n\nimport \"./ConfirmedOwner.sol\";\nimport \"./interfaces/AggregatorValidatorInterface.sol\";\nimport \"./interfaces/TypeAndVersionInterface.sol\";\n\ncontract ValidatorProxy is AggregatorValidatorInterface, TypeAndVersionInterface, ConfirmedOwner {\n\n  /// @notice Uses a single storage slot to store the current address\n  struct AggregatorConfiguration {\n    address target;\n    bool hasNewProposal;\n  }\n\n  struct ValidatorConfiguration {\n    AggregatorValidatorInterface target;\n    bool hasNewProposal;\n  }\n\n  // Configuration for the current aggregator\n  AggregatorConfiguration private s_currentAggregator;\n  // Proposed aggregator address\n  address private s_proposedAggregator;\n\n  // Configuration for the current validator\n  ValidatorConfiguration private s_currentValidator;\n  // Proposed validator address\n  AggregatorValidatorInterface private s_proposedValidator;\n\n  event AggregatorProposed(\n    address indexed aggregator\n  );\n  event AggregatorUpgraded(\n    address indexed previous,\n    address indexed current\n  );\n  event ValidatorProposed(\n    AggregatorValidatorInterface indexed validator\n  );\n  event ValidatorUpgraded(\n    AggregatorValidatorInterface indexed previous,\n    AggregatorValidatorInterface indexed current\n  );\n  /// @notice The proposed aggregator called validate, but the call was not passed on to any validators\n  event ProposedAggregatorValidateCall(\n    address indexed proposed,\n    uint256 previousRoundId,\n    int256 previousAnswer,\n    uint256 currentRoundId,\n    int256 currentAnswer\n  );\n\n  /**\n   * @notice Construct the ValidatorProxy with an aggregator and a validator\n   * @param aggregator address\n   * @param validator address\n   */\n  constructor(\n    address aggregator,\n    AggregatorValidatorInterface validator\n  )\n    ConfirmedOwner(msg.sender)\n  {\n    s_currentAggregator = AggregatorConfiguration({\n      target: aggregator,\n      hasNewProposal: false\n    });\n    s_currentValidator = ValidatorConfiguration({\n      target: validator,\n      hasNewProposal: false\n    });\n  }\n\n  /**\n   * @notice Validate a transmission\n   * @dev Must be called by either the `s_currentAggregator.target`, or the `s_proposedAggregator`.\n   * If called by the `s_currentAggregator.target` this function passes the call on to the `s_currentValidator.target`\n   * and the `s_proposedValidator`, if it is set.\n   * If called by the `s_proposedAggregator` this function emits a `ProposedAggregatorValidateCall` to signal that\n   * the call was received.\n   * @dev To guard against external `validate` calls reverting, we use raw calls here.\n   * We favour `call` over try-catch to ensure that failures are avoided even if the validator address is incorrectly\n   * set as a non-contract address.\n   * @dev If the `aggregator` and `validator` are the same contract or collude, this could exhibit reentrancy behavior.\n   * However, since that contract would have to be explicitly written for reentrancy and that the `owner` would have\n   * to configure this contract to use that malicious contract, we refrain from using mutex or check here.\n   * @dev This does not perform any checks on any roundId, so it is possible that a validator receive different reports\n   * for the same roundId at different points in time. Validator implementations should be aware of this.\n   * @param previousRoundId uint256\n   * @param previousAnswer int256\n   * @param currentRoundId uint256\n   * @param currentAnswer int256\n   * @return bool\n   */\n  function validate(\n    uint256 previousRoundId,\n    int256 previousAnswer,\n    uint256 currentRoundId,\n    int256 currentAnswer\n  )\n    external\n    override\n    returns (\n      bool\n    )\n  {\n    address currentAggregator = s_currentAggregator.target;\n    if (msg.sender != currentAggregator) {\n      address proposedAggregator = s_proposedAggregator;\n      require(msg.sender == proposedAggregator, \"Not a configured aggregator\");\n      // If the aggregator is still in proposed state, emit an event and don't push to any validator.\n      // This is to confirm that `validate` is being called prior to upgrade.\n      emit ProposedAggregatorValidateCall(\n        proposedAggregator,\n        previousRoundId,\n        previousAnswer,\n        currentRoundId,\n        currentAnswer\n      );\n      return true;\n    }\n\n    // Send the validate call to the current validator\n    ValidatorConfiguration memory currentValidator = s_currentValidator;\n    address currentValidatorAddress = address(currentValidator.target);\n    require(currentValidatorAddress != address(0), \"No validator set\");\n    currentValidatorAddress.call(\n      abi.encodeWithSelector(\n        AggregatorValidatorInterface.validate.selector,\n        previousRoundId,\n        previousAnswer,\n        currentRoundId,\n        currentAnswer\n      )\n    );\n    // If there is a new proposed validator, send the validate call to that validator also\n    if (currentValidator.hasNewProposal) {\n      address(s_proposedValidator).call(\n        abi.encodeWithSelector(\n          AggregatorValidatorInterface.validate.selector,\n          previousRoundId,\n          previousAnswer,\n          currentRoundId,\n          currentAnswer\n        )\n      );\n    }\n    return true;\n  }\n\n  /** AGGREGATOR CONFIGURATION FUNCTIONS **/\n\n  /**\n   * @notice Propose an aggregator\n   * @dev A zero address can be used to unset the proposed aggregator. Only owner can call.\n   * @param proposed address\n   */\n  function proposeNewAggregator(\n    address proposed\n  )\n    external\n    onlyOwner()\n  {\n    require(s_proposedAggregator != proposed && s_currentAggregator.target != proposed, \"Invalid proposal\");\n    s_proposedAggregator = proposed;\n    // If proposed is zero address, hasNewProposal = false\n    s_currentAggregator.hasNewProposal = (proposed != address(0));\n    emit AggregatorProposed(proposed);\n  }\n\n  /**\n   * @notice Upgrade the aggregator by setting the current aggregator as the proposed aggregator.\n   * @dev Must have a proposed aggregator. Only owner can call.\n   */\n  function upgradeAggregator()\n    external\n    onlyOwner()\n  {\n    // Get configuration in memory\n    AggregatorConfiguration memory current = s_currentAggregator;\n    address previous = current.target;\n    address proposed = s_proposedAggregator;\n\n    // Perform the upgrade\n    require(current.hasNewProposal, \"No proposal\");\n    s_currentAggregator = AggregatorConfiguration({\n      target: proposed,\n      hasNewProposal: false\n    });\n    delete s_proposedAggregator;\n\n    emit AggregatorUpgraded(previous, proposed);\n  }\n\n  /**\n   * @notice Get aggregator details\n   * @return current address\n   * @return hasProposal bool\n   * @return proposed address\n   */\n  function getAggregators()\n    external\n    view\n    returns(\n      address current,\n      bool hasProposal,\n      address proposed\n    )\n  {\n    current = s_currentAggregator.target;\n    hasProposal = s_currentAggregator.hasNewProposal;\n    proposed = s_proposedAggregator;\n  }\n\n  /** VALIDATOR CONFIGURATION FUNCTIONS **/\n\n  /**\n   * @notice Propose an validator\n   * @dev A zero address can be used to unset the proposed validator. Only owner can call.\n   * @param proposed address\n   */\n  function proposeNewValidator(\n    AggregatorValidatorInterface proposed\n  )\n    external\n    onlyOwner()\n  {\n    require(s_proposedValidator != proposed && s_currentValidator.target != proposed, \"Invalid proposal\");\n    s_proposedValidator = proposed;\n    // If proposed is zero address, hasNewProposal = false\n    s_currentValidator.hasNewProposal = (address(proposed) != address(0));\n    emit ValidatorProposed(proposed);\n  }\n\n  /**\n   * @notice Upgrade the validator by setting the current validator as the proposed validator.\n   * @dev Must have a proposed validator. Only owner can call.\n   */\n  function upgradeValidator()\n    external\n    onlyOwner()\n  {\n    // Get configuration in memory\n    ValidatorConfiguration memory current = s_currentValidator;\n    AggregatorValidatorInterface previous = current.target;\n    AggregatorValidatorInterface proposed = s_proposedValidator;\n\n    // Perform the upgrade\n    require(current.hasNewProposal, \"No proposal\");\n    s_currentValidator = ValidatorConfiguration({\n      target: proposed,\n      hasNewProposal: false\n    });\n    delete s_proposedValidator;\n\n    emit ValidatorUpgraded(previous, proposed);\n  }\n\n  /**\n   * @notice Get validator details\n   * @return current address\n   * @return hasProposal bool\n   * @return proposed address\n   */\n  function getValidators()\n    external\n    view\n    returns(\n      AggregatorValidatorInterface current,\n      bool hasProposal,\n      AggregatorValidatorInterface proposed\n    )\n  {\n    current = s_currentValidator.target;\n    hasProposal = s_currentValidator.hasNewProposal;\n    proposed = s_proposedValidator;\n  }\n\n  /**\n   * @notice The type and version of this contract\n   * @return Type and version string\n   */\n  function typeAndVersion()\n    external\n    pure\n    virtual\n    override\n    returns (\n      string memory\n    )\n  {\n    return \"ValidatorProxy 1.0.0\";\n  }\n\n}\n",
  "sourcePath": "/home/rol/Desktop/spadeQ-lott/spadeq/contracts/v0.8/ValidatorProxy.sol",
  "compiler": {
    "name": "solc",
    "version": "0.8.3+commit.8d00100c.Emscripten.clang"
  },
  "schemaVersion": "3.4.1",
  "updatedAt": "2021-09-09T15:04:27.005Z",
  "devdoc": {
    "kind": "dev",
    "methods": {
      "constructor": {
        "params": {
          "aggregator": "address",
          "validator": "address"
        }
      },
      "getAggregators()": {
        "returns": {
          "current": "address",
          "hasProposal": "bool",
          "proposed": "address"
        }
      },
      "getValidators()": {
        "returns": {
          "current": "address",
          "hasProposal": "bool",
          "proposed": "address"
        }
      },
      "proposeNewAggregator(address)": {
        "details": "A zero address can be used to unset the proposed aggregator. Only owner can call.",
        "params": {
          "proposed": "address"
        }
      },
      "proposeNewValidator(address)": {
        "details": "A zero address can be used to unset the proposed validator. Only owner can call.",
        "params": {
          "proposed": "address"
        }
      },
      "typeAndVersion()": {
        "returns": {
          "_0": "Type and version string"
        }
      },
      "upgradeAggregator()": {
        "details": "Must have a proposed aggregator. Only owner can call."
      },
      "upgradeValidator()": {
        "details": "Must have a proposed validator. Only owner can call."
      },
      "validate(uint256,int256,uint256,int256)": {
        "details": "Must be called by either the `s_currentAggregator.target`, or the `s_proposedAggregator`. If called by the `s_currentAggregator.target` this function passes the call on to the `s_currentValidator.target` and the `s_proposedValidator`, if it is set. If called by the `s_proposedAggregator` this function emits a `ProposedAggregatorValidateCall` to signal that the call was received.To guard against external `validate` calls reverting, we use raw calls here. We favour `call` over try-catch to ensure that failures are avoided even if the validator address is incorrectly set as a non-contract address.If the `aggregator` and `validator` are the same contract or collude, this could exhibit reentrancy behavior. However, since that contract would have to be explicitly written for reentrancy and that the `owner` would have to configure this contract to use that malicious contract, we refrain from using mutex or check here.This does not perform any checks on any roundId, so it is possible that a validator receive different reports for the same roundId at different points in time. Validator implementations should be aware of this.",
        "params": {
          "currentAnswer": "int256",
          "currentRoundId": "uint256",
          "previousAnswer": "int256",
          "previousRoundId": "uint256"
        },
        "returns": {
          "_0": "bool"
        }
      }
    },
    "version": 1
  },
  "userdoc": {
    "events": {
      "ProposedAggregatorValidateCall(address,uint256,int256,uint256,int256)": {
        "notice": "The proposed aggregator called validate, but the call was not passed on to any validators"
      }
    },
    "kind": "user",
    "methods": {
      "acceptOwnership()": {
        "notice": "Allows an ownership transfer to be completed by the recipient."
      },
      "constructor": {
        "notice": "Construct the ValidatorProxy with an aggregator and a validator"
      },
      "getAggregators()": {
        "notice": "Get aggregator details"
      },
      "getValidators()": {
        "notice": "Get validator details"
      },
      "owner()": {
        "notice": "Get the current owner"
      },
      "proposeNewAggregator(address)": {
        "notice": "Propose an aggregator"
      },
      "proposeNewValidator(address)": {
        "notice": "Propose an validator"
      },
      "transferOwnership(address)": {
        "notice": "Allows an owner to begin transferring ownership to a new address, pending."
      },
      "typeAndVersion()": {
        "notice": "The type and version of this contract"
      },
      "upgradeAggregator()": {
        "notice": "Upgrade the aggregator by setting the current aggregator as the proposed aggregator."
      },
      "upgradeValidator()": {
        "notice": "Upgrade the validator by setting the current validator as the proposed validator."
      },
      "validate(uint256,int256,uint256,int256)": {
        "notice": "Validate a transmission"
      }
    },
    "version": 1
  }
}