{
  "contractName": "VRFConsumer",
  "abi": [
    {
      "inputs": [
        {
          "internalType": "address",
          "name": "_vrfCoordinator",
          "type": "address"
        },
        {
          "internalType": "address",
          "name": "_link",
          "type": "address"
        }
      ],
      "stateMutability": "nonpayable",
      "type": "constructor"
    },
    {
      "inputs": [],
      "name": "randomnessOutput",
      "outputs": [
        {
          "internalType": "uint256",
          "name": "",
          "type": "uint256"
        }
      ],
      "stateMutability": "view",
      "type": "function"
    },
    {
      "inputs": [
        {
          "internalType": "bytes32",
          "name": "requestId",
          "type": "bytes32"
        },
        {
          "internalType": "uint256",
          "name": "randomness",
          "type": "uint256"
        }
      ],
      "name": "rawFulfillRandomness",
      "outputs": [],
      "stateMutability": "nonpayable",
      "type": "function"
    },
    {
      "inputs": [],
      "name": "requestId",
      "outputs": [
        {
          "internalType": "bytes32",
          "name": "",
          "type": "bytes32"
        }
      ],
      "stateMutability": "view",
      "type": "function"
    },
    {
      "inputs": [
        {
          "internalType": "bytes32",
          "name": "_keyHash",
          "type": "bytes32"
        },
        {
          "internalType": "uint256",
          "name": "_fee",
          "type": "uint256"
        }
      ],
      "name": "testRequestRandomness",
      "outputs": [
        {
          "internalType": "bytes32",
          "name": "requestId",
          "type": "bytes32"
        }
      ],
      "stateMutability": "nonpayable",
      "type": "function"
    }
  ],
  "bytecode": "0x60c060405234801561001057600080fd5b506040516104f13803806104f183398101604081905261002f91610069565b6001600160601b0319606092831b811660a052911b1660805261009b565b80516001600160a01b038116811461006457600080fd5b919050565b6000806040838503121561007b578182fd5b6100848361004d565b91506100926020840161004d565b90509250929050565b60805160601c60a05160601c6104256100cc6000396000818160c701526101a30152600061016701526104256000f3fe608060405234801561001057600080fd5b506004361061004b5760003560e01c80626d6cae146100505780632f47fd861461006b578063866ee7481461007457806394985ddd14610087575b600080fd5b61005960025481565b60405190815260200160405180910390f35b61005960015481565b610059610082366004610319565b61009c565b61009a610095366004610319565b6100af565b005b60006100a88383610163565b9392505050565b3373ffffffffffffffffffffffffffffffffffffffff7f00000000000000000000000000000000000000000000000000000000000000001614610152576040517f08c379a000000000000000000000000000000000000000000000000000000000815260206004820152601f60248201527f4f6e6c7920565246436f6f7264696e61746f722063616e2066756c66696c6c00604482015260640160405180910390fd5b61015f8282600155600255565b5050565b60007f000000000000000000000000000000000000000000000000000000000000000073ffffffffffffffffffffffffffffffffffffffff16634000aea07f0000000000000000000000000000000000000000000000000000000000000000848660006040516020016101e0929190918252602082015260400190565b6040516020818303038152906040526040518463ffffffff1660e01b815260040161020d9392919061033a565b602060405180830381600087803b15801561022757600080fd5b505af115801561023b573d6000803e3d6000fd5b505050506040513d601f19601f8201168201806040525081019061025f91906102f9565b5060008381526020818152604080832054815180840188905280830185905230606082015260808082018390528351808303909101815260a0909101909252815191830191909120868452929091526102b99060016103b2565b6000858152602081815260409182902092909255805180830187905280820184905281518082038301815260609091019091528051910120949350505050565b60006020828403121561030a578081fd5b815180151581146100a8578182fd5b6000806040838503121561032b578081fd5b50508035926020909101359150565b600073ffffffffffffffffffffffffffffffffffffffff8516825260208481840152606060408401528351806060850152825b818110156103895785810183015185820160800152820161036d565b8181111561039a5783608083870101525b50601f01601f19169290920160800195945050505050565b600082198211156103ea577f4e487b710000000000000000000000000000000000000000000000000000000081526011600452602481fd5b50019056fea26469706673582212202a5e6ad9e0488488721832b993532054c13918a3eb1583e4bd59e14851b841e764736f6c63430008030033",
  "immutableReferences": {
    "6517": [
      {
        "length": 32,
        "start": 359
      }
    ],
    "6519": [
      {
        "length": 32,
        "start": 199
      },
      {
        "length": 32,
        "start": 419
      }
    ]
  },
  "source": "// SPDX-License-Identifier: MIT\npragma solidity ^0.8.0;\n\nimport \"../interfaces/LinkTokenInterface.sol\";\nimport \"../VRFConsumerBase.sol\";\n\ncontract VRFConsumer is VRFConsumerBase {\n\n  uint256 public randomnessOutput;\n  bytes32 public requestId;\n\n  constructor(address _vrfCoordinator, address _link) public\n    // solhint-disable-next-line no-empty-blocks\n    VRFConsumerBase(_vrfCoordinator, _link) { /* empty */ }\n\n  function fulfillRandomness(bytes32 _requestId, uint256 _randomness)\n    internal override\n  {\n    randomnessOutput = _randomness;\n    requestId = _requestId;\n  }\n\n  function testRequestRandomness(bytes32 _keyHash, uint256 _fee)\n    external returns (bytes32 requestId)\n  {\n    return requestRandomness(_keyHash, _fee);\n  }\n}\n",
  "sourcePath": "/home/rol/Desktop/spadeQ-lott/spadeq/contracts/v0.8/tests/VRFConsumer.sol",
  "compiler": {
    "name": "solc",
    "version": "0.8.3+commit.8d00100c.Emscripten.clang"
  },
  "schemaVersion": "3.4.1",
  "updatedAt": "2021-09-09T15:04:27.024Z",
  "devdoc": {
    "kind": "dev",
    "methods": {},
    "version": 1
  },
  "userdoc": {
    "kind": "user",
    "methods": {},
    "version": 1
  }
}