{
  "contractName": "VRFRequestIDBaseTestHelper",
  "abi": [
    {
      "inputs": [
        {
          "internalType": "bytes32",
          "name": "_keyHash",
          "type": "bytes32"
        },
        {
          "internalType": "uint256",
          "name": "_userSeed",
          "type": "uint256"
        },
        {
          "internalType": "address",
          "name": "_requester",
          "type": "address"
        },
        {
          "internalType": "uint256",
          "name": "_nonce",
          "type": "uint256"
        }
      ],
      "name": "makeVRFInputSeed_",
      "outputs": [
        {
          "internalType": "uint256",
          "name": "",
          "type": "uint256"
        }
      ],
      "stateMutability": "pure",
      "type": "function"
    },
    {
      "inputs": [
        {
          "internalType": "bytes32",
          "name": "_keyHash",
          "type": "bytes32"
        },
        {
          "internalType": "uint256",
          "name": "_vRFInputSeed",
          "type": "uint256"
        }
      ],
      "name": "makeRequestId_",
      "outputs": [
        {
          "internalType": "bytes32",
          "name": "",
          "type": "bytes32"
        }
      ],
      "stateMutability": "pure",
      "type": "function"
    }
  ],
  "bytecode": "0x608060405234801561001057600080fd5b50610196806100206000396000f3fe608060405234801561001057600080fd5b50600436106100365760003560e01c806337ab429a1461003b578063bda087ae146100af575b600080fd5b61009d61004936600461010a565b604080516020808201969096528082019490945273ffffffffffffffffffffffffffffffffffffffff9290921660608401526080808401919091528151808403909101815260a09092019052805191012090565b60405190815260200160405180910390f35b61009d6100bd3660046100e9565b604080516020808201949094528082019290925280518083038201815260609092019052805191012090565b600080604083850312156100fb578182fd5b50508035926020909101359150565b6000806000806080858703121561011f578182fd5b8435935060208501359250604085013573ffffffffffffffffffffffffffffffffffffffff81168114610150578283fd5b939692955092936060013592505056fea264697066735822122049b32ea884ff1eb1ddd53075ccd5140e13aeb553723f042c03cd1e39e233450664736f6c63430008030033",
  "immutableReferences": {},
  "source": "// SPDX-License-Identifier: MIT\npragma solidity ^0.8.0;\n\nimport \"../VRFRequestIDBase.sol\";\n\ncontract VRFRequestIDBaseTestHelper is VRFRequestIDBase {\n\n  function makeVRFInputSeed_(bytes32 _keyHash, uint256 _userSeed,\n                            address _requester, uint256 _nonce)\n    public pure returns (uint256) {\n      return makeVRFInputSeed(_keyHash, _userSeed, _requester, _nonce);\n    }\n\n  function makeRequestId_(\n    bytes32 _keyHash, uint256 _vRFInputSeed) public pure returns (bytes32) {\n    return makeRequestId(_keyHash, _vRFInputSeed);\n  }\n}\n",
  "sourcePath": "/home/rol/Desktop/spadeQ-lott/spadeq/contracts/v0.8/tests/VRFRequestIDBaseTestHelper.sol",
  "compiler": {
    "name": "solc",
    "version": "0.8.3+commit.8d00100c.Emscripten.clang"
  },
  "schemaVersion": "3.4.1",
  "updatedAt": "2021-09-09T15:04:27.026Z",
  "devdoc": {
    "kind": "dev",
    "methods": {},
    "version": 1
  },
  "userdoc": {
    "kind": "user",
    "methods": {},
    "version": 1
  }
}